:0E01F900012400012500021D0000021F00006D
:10024D00C294D29312026EE524B40106E4F5241291
:10025D000188E525B401F0E4F5257F011202268021
:01026D00E6AA
:03000B00020115DA
:10011500C0E0C0F0C083C082C0D075D000C000C0B0
:0D01250001C002C003C004C005C006C00731
:10013200758CFC758A66051EE51E7002051DB4E805
:100142000EE51DB40309751D00751E007524010519
:1001520020E5207002051FB4E80EE51FB4030975FF
:0B0162001F0075200075250112009A97
:10016D00D007D006D005D004D003D002D001D000E6
:0B017D00D0D0D082D083D0F0D0E03290
:10026E00D2AF5389F0438901758CFC758A66D2A989
:03027E00D28C22FD
:100207000A0CC0F9A4B0999282F880900716FFFFF4
:08021700FFFFFFFFFF010800DB
:10009A007580FFE508B4070050709000ABF8282877
:1000AA00730200C00200CC0200D80200E40200F091
:1000BA000200FC020108C292C291C290050885168C
:1000CA008022C292C291D290050885178022C292DC
:1000DA00D291C290050885188022C292D291D290FC
:1000EA00050885198022D292C291C2900508851A04
:1000FA008022D292C291D2900508851B8022D29288
:0A010A00D291C290E4F508851C8034
:0101140022C8
:10018800E50B75F00A84740C25F0F8E6F516E50B16
:1001980075F00A84240CF8E6F517E50A75F00A8468
:1001A800740C25F0F8E6F518E50A75F00A84240CB5
:1001B800F8E6F519E50975F00A84740C25F0F8E6F7
:1001C800F51AE50975F00A84240CF8E6F51B050B09
:1001D800E50BC3943C4019E4F50B050AE50A943C89
:1001E800400EE4F50A0509E50994184003E4F50909
:0101F80022E4
:06021F0001260101278009
:03022600EF701066
:10022900E526F4F51CE52625E0F52670037526017B
:03023900BF0110F2
:10023C00E527F4F51CE527C313F527700375278014
:01024C00228F
:0300000002000EED
:0C000E00787FE4F6D8FD758127020055CC
:10001A0002024DE493A3F8E493A34003F68001F2AD
:10002A0008DFF48029E493A3F85407240CC8C333E7
:10003A00C4540F4420C8834004F456800146F6DFB6
:10004A00E4800B01020408102040809001F9E47E4C
:10005A00019360BCA3FF543F30E509541FFEE493AB
:10006A00A360010ECF54C025E060A840B8E493A372
:10007A00FAE493A3F8E493A3C8C582C8CAC583CA9D
:10008A00F0A3C8C582C8CAC583CADFE9DEE780BE55
:0102250000D8
:00000001FF
