:100171000A0EC0F9A4B0999282F880900618FFFF88
:10018100FFFFFFFF010D0001080101091E010A1E09
:06019100010B00010C004F
:1001B900C294D2931201CDE50DB401FBE4F50D1201
:0401C900009A80F325
:1001CD00D2AF5389F0438902758CA4758AA4D2A944
:0301DD00D28C229F
:10009A00E50AD394004020D50A1DE509D39400400F
:1000AA0016750A63D50910E508D394004009750945
:1000BA003BD50803E4F508E50A75F00A84740E25B1
:1000CA00F0F8E6F518E50A75F00A84240EF8E6F564
:1000DA0019E50975F00A84740E25F0F8E6F51AE5B3
:1000EA000975F00A84240EF8E6F51BE50875F00A8E
:1000FA0084740E25F0F8E6F51CE50875F00A8424E8
:05010A000EF8E6F51DF2
:01010F0022CD
:100110007580FFE50B14601C14602514602E1460BC
:100120003714604024057048C292C291C290050BFA
:1001300085188022C292C291D290050B8519802227
:10014000C292D291C290050B851A8022C292D2919E
:10015000D290050B851B8022D292C291C290050BD2
:10016000851C8022D292C291D290E4F50B851D802D
:01017000226C
:03000B0002019857
:04019800C0E0C0D033
:10019C00758CA4758AA4050CE50CD3946440067583
:0801AC000C00750D0112011099
:0501B400D0D0D0E032C4
:0300000002000EED
:0C000E00787FE4F6D8FD75811D020055D6
:10001A000201B9E493A3F8E493A34003F68001F242
:10002A0008DFF48029E493A3F85407240CC8C333E7
:10003A00C4540F4420C8834004F456800146F6DFB6
:10004A00E4800B0102040810204080900171E47ED4
:10005A00019360BCA3FF543F30E509541FFEE493AB
:10006A00A360010ECF54C025E060A840B8E493A372
:10007A00FAE493A3F8E493A3C8C582C8CAC583CA9D
:10008A00F0A3C8C582C8CAC583CADFE9DEE780BE55
:010197000067
:00000001FF
