:0B0003006F70656E00636C6F7365002A
:10031B00D2AFD2ACD283C284D282D281C28075805A
:10032B00FF7F807E251203E33000FD78097C007D82
:10033B00007BFF7A0079031201A4EF7002F580783D
:10034B00097C007D007BFF7A0079081201A4EF7015
:08035B00037580FFC20080D091
:05000E00C10001080023
:1003E30075985053890F438920AB07AA06E4F9F89F
:1003F3007F807E70FDFC120363EFF404F58D858D21
:060403008BC2ABD28E2279
:030023000203A72E
:0B03A700C0E0C0D075D000C000C0074F
:1003B200309823200020AF99BF0A1274082508F84C
:1003C200E6B40D097600750800D20080097409258B
:0803D20008F8A6070508C2980F
:0903DA00D007D000D0D0D0E032F1
:0300000002028F6A
:0C028F00787FE4F6D8FD7581200202D6CD
:10036300C2D5E830E70FB2D5E4C39BFBE49AFAE4C5
:1003730099F9E498F8EC30E717B2D5120399120112
:10038300FDE4C39BFBE49AFAE499F9E498F880034B
:100393001201FD30D50DE4C39FFFE49EFEE49DFDF5
:0403A300E49CFC22B8
:10002600E3F5F009E208B5F06D606B80F3E3F5F0F7
:1000360009E608B5F060605E80F387F009E608B56A
:10004600F054605280F487F009E208B5F048604643
:1000560080F488828C8387F009E0A3B5F038603697
:1000660080F488828C8387F009E493A3B5F0276037
:100076002580F388828C83E3F5F009E0A3B5F016BA
:10008600601480F388828C83E3F5F009E493A3B5CA
:10009600F004600280F2020151808580E7808E8044
:1000A600D2803C8015806C807E809B80B5808B8062
:1000B600A1804F8070803A02015D89828A83ECFAC2
:1000C600E493F5F0A3C8C582C8CCC583CCE493A35A
:1000D600C8C582C8CCC583CCB5F070606E80E18996
:1000E600828A83E493F5F0A3E208B5F05E605C8053
:1000F600F289828A83E0F5F0A3E608B5F04D604BFD
:1001060080F389828A83E0F5F0A3E208B5F03C60CB
:100116003A80F389828A83E493F5F0A3E608B5F082
:100126002A602880F2805389828A83ECFAE493F568
:10013600F0A3C8C582C8CCC583CCE0A3C8C582C815
:10014600CCC583CCB5F004600280E27FFFB5F00237
:100156000F2240027F012289828A83ECFAE0F5F0C1
:10016600A3C8C582C8CCC583CCE0A3C8C582C8CC09
:10017600C583CCB5F0D560D380E389828A83ECFA57
:10018600E0F5F0A3C8C582C8CCC583CCE493A3C868
:10019600C582C8CCC583CCB5F0B160AF80E288F02B
:1001A600ED2402B4040050A3F582EB2402B404004B
:0B01B6005099232345822390009F7383
:10029B0002031BE493A3F8E493A34003F68001F25B
:1002AB0008DFF48029E493A3F85407240CC8C33364
:1002BB00C4540F4420C8834004F456800146F6DF33
:1002CB00E4800B010204081020408090000EE47EB5
:1002DB00019360BCA3FF543F30E509541FFEE49328
:1002EB00A360010ECF54C025E060A840B8E493A3EF
:1002FB00FAE493A3F8E493A3C8C582C8CAC583CA1A
:10030B00F0A3C8C582C8CAC583CADFE9DEE780BED1
:0100130000EC
:1001C10075F008758200EF2FFFEE33FECD33CDCCF5
:1001D10033CCC58233C5829BED9AEC99E582984078
:1001E1000CF582EE9BFEED9AFDEC99FC0FD5F0D655
:1001F100E4CEFBE4CDFAE4CCF9A88222B800C1B97F
:100201000059BA002DEC8BF084CFCECDFCE5F0CBBC
:10021100F97818EF2FFFEE33FEED33FDEC33FCEBF5
:1002210033FB10D703994004EB99FB0FD8E5E4F9B0
:10023100FA227818EF2FFFEE33FEED33FDEC33FC9D
:10024100C933C910D7059BE99A4007EC9BFCE99A91
:10025100F90FD8E0E4C9FAE4CCFB2275F010EF2FD6
:10026100FFEE33FEED33FDCC33CCC833C810D707D6
:100271009BEC9AE899400AED9BFDEC9AFCE899F811
:0E0281000FD5F0DAE4CDFBE4CCFAE4C8F922A4
:00000001FF
