:1001C6001201EE1201F5D2AFD293C294C2A3D2A409
:0401D600D2A580FE30
:1001DA00007F047E817D7730A4037580FFDDFEDE1B
:0301EA00F6DFF449
:0101ED0022EF
:09000600007F027EC7DEFEDFFC74
:01000F0022CE
:0701EE00D2A8C288C28922D9
:0701F500D2AAC28AC28B22CC
:030003000200FAFE
:1000FA00C0E0C0F0C083C082C0D075D000C000C0CC
:10010A0001C002C003C004C005C006C00720A4067F
:10011A001201AF1201DAD007D006D005D004D003FD
:10012A00D002D001D000D0D0D082D083D0F0D0E09D
:01013A003292
:030013000200A246
:1000A200C0E0C0F0C083C082C0D075D000C000C024
:0D00B20001C002C003C004C005C006C007A5
:1000BF0020A51D75140175170012016912013B303F
:1000CF00A5057580FF80090517E517C394FA40E968
:1000DF00D007D006D005D004D003D002D001D00075
:0B00EF00D0D0D082D083D0F0D0E0321F
:0301920001180150
:1001AF00D292D291C290E518F4F580E51825E0F5CA
:0601BF0018700375180121
:0101C5002217
:100195000A0AC0F9A4B0999282F880900215FFFF6F
:0901A50001140001080001090029
:100169007580FFE50814601104701DC292C291C226
:10017900900508851580120006C292C291D290E4BA
:08018900F5088516801200063E
:01019100224B
:10013B00E514600FE4F5140509E509C39464400365
:10014B00E4F509E50975F00A84740A25F0F8E6F57B
:0D015B0015E50975F00A84240AF8E6F5168A
:010168002274
:03000000020016E5
:0C001600787FE4F6D8FD75811802005DCB
:100022000201C6E493A3F8E493A34003F68001F22D
:1000320008DFF48029E493A3F85407240CC8C333DF
:10004200C4540F4420C8834004F456800146F6DFAE
:10005200E4800B0102040810204080900192E47EAB
:10006200019360BCA3FF543F30E509541FFEE493A3
:10007200A360010ECF54C025E060A840B8E493A36A
:10008200FAE493A3F8E493A3C8C582C8CAC583CA95
:10009200F0A3C8C582C8CAC583CADFE9DEE780BE4D
:0101AE000050
:00000001FF
