:0300000002013EBC
:0C013E00787FE4F6D8FD75811D02018574
:10031100010B00010C000A0DC0F9A4B0999282F8FA
:10032100809001181001192D01171E010800020902
:020331000000CA
:09037200D2AFD2A8C289C28822D0
:1001CA00751D00751C10751B0E751A00E4FCFDAB3D
:1001DA001DAA1CA91BA81A12000EE47BE87A03F9CF
:1001EA00F81200998F1D8E1C8D1B8C1AE51D240C8C
:1001FA00F51DE4351CF51CE4351BF51BE4351AF531
:10020A001AC3E4951DF51DE4951CF51C7401951B94
:10021A00F51BE4951AF51AAF1DAE1CAD1BFC780848
:10022A0012012B8F0B851D0BD2AF5389F043890125
:0A023A00850B8C850C8AD28CD2A9AA
:010244002297
:10033400D2B8C2B9D2B27F017E001201CA120372CE
:0803440075A0F712024580FBD1
:10024500D293C2947580FFE50814601A14602114D6
:1002550060281460351460492405705AC292C29111
:10026500C290E517802CC292C291D290E5178012F8
:10027500C292D291C290E5198018C292D291D290C1
:10028500E51975F00A84240D8010D292C291C290AE
:10029500E51875F00A84740D25F0F8E6F580050873
:1002A50022D292C291D290E51875F00A84240DF8F5
:0602B500E6F580E4F50807
:0102BB002220
:03000B000202BC32
:0402BC00C0E0C0D00E
:1002C000C28D850B8C850C8A050AE50A700205092A
:1002D000D394E8E50994034033208930750900750B
:1002E0000A000517E517D3943B402175170005193F
:1002F000E519D3943B40157519000518E518D394FA
:0C030000174009751800751900751700EA
:05030C00D0D0D0E0326A
:0D034C00007F047E817D77DDFEDEFCDFFAA0
:010359002281
:0D035A00007F027E677D93DDFEDEFCDFFA92
:010367002273
:09036800007F027EC7DEFEDFFC0F
:010371002269
:08037B007F5A7EA3DEFEDFFCC9
:010383002257
:05000300007F14DFFE88
:0100080022D5
:10014A00020334E493A3F8E493A34003F68001F294
:10015A0008DFF48029E493A3F85407240CC8C333B6
:10016A00C4540F4420C8834004F456800146F6DF85
:10017A00E4800B0102040810204080900311E47E01
:10018A00019360BCA3FF543F30E509541FFEE4937A
:10019A00A360010ECF54C025E060A840B8E493A341
:1001AA00FAE493A3F8E493A3C8C582C8CAC583CA6C
:1001BA00F0A3C8C582C8CAC583CADFE9DEE780BE24
:0103330000C9
:10000E00E88FF0A4CC8BF0A42CFCE98EF0A42CFC91
:10001E008AF0EDA42CFCEA8EF0A4CDA8F08BF0A40F
:10002E002DCC3825F0FDE98FF0A42CCD35F0FCEB6E
:10003E008EF0A4FEA9F0EB8FF0A4CFC5F02ECD3933
:0F004E00FEE43CFCEAA42DCE35F0FDE43CFC22A0
:10005D0075F008758200EF2FFFEE33FECD33CDCC5A
:10006D0033CCC58233C5829BED9AEC99E5829840DD
:10007D000CF582EE9BFEED9AFDEC99FC0FD5F0D6BA
:10008D00E4CEFBE4CDFAE4CCF9A88222B800C1B9E4
:10009D000059BA002DEC8BF084CFCECDFCE5F0CB22
:1000AD00F97818EF2FFFEE33FEED33FDEC33FCEB5B
:1000BD0033FB10D703994004EB99FB0FD8E5E4F916
:1000CD00FA227818EF2FFFEE33FEED33FDEC33FC03
:1000DD00C933C910D7059BE99A4007EC9BFCE99AF7
:1000ED00F90FD8E0E4C9FAE4CCFB2275F010EF2F3C
:1000FD00FFEE33FEED33FDCC33CCC833C810D7073C
:10010D009BEC9AE899400AED9BFDEC9AFCE899F876
:0E011D000FD5F0DAE4CDFBE4CCFAE4C8F92209
:10012B00E8600FECC313FCED13FDEE13FEEF13FFB2
:03013B00D8F122D6
:00000001FF
