:020000040800F2
:10000000E00A002001010008A5740008A9600008AA
:10001000DD6C000881230008119300080000000037
:10002000000000000000000000000000A5810008A2
:100030001524000800000000B97E00083182000885
:100040001B0100081B0100081B0100081B01000820
:100050001B0100081B0100081B0100081B01000810
:100060001B0100081B0100081B0100088523000874
:100070001B010008952300081B010008A5230008A8
:10008000B52300081B0100081B0100081B01000824
:100090001B0100081B0100081B0100081B010008D0
:1000A0001B010008198300081B0100081B01000840
:1000B0001B0100081B0100081B0100081B010008B0
:1000C0001B0100081B0100081B0100081B010008A0
:1000D0001B010008AD9100082592000899920008C4
:1000E0001B0100081B0100081B010008DFF80CD0F1
:1000F00001F006F80048004791950008E00A00204A
:100100000648804706480047FEE7FEE7FEE7FEE7B1
:10011000FEE7FEE7FEE7FEE7FEE7FEE709830008ED
:10012000ED000008D2B201E000F8012B491EFBD21D
:1001300070470022F6E710B513460A4604461946F2
:10014000FFF7F0FF204610BDCAB2401E10F8011F95
:100150008A4202D00029F9D100207047421C10F8D1
:10016000011B0029FBD1801A704730B505460020DD
:10017000034600E05B1C934205D2EC5CC85C201A8D
:1001800001D1002CF6D130BD0FB400B58DB010A94F
:1001900009900B9000914FF0FF300A9000200C90D6
:1001A00005480690054807906A4609A80F9900F08F
:1001B000B5FE0DB05DF814FB390F0008570F0008AD
:1001C000F0B480EA0102D40F4200B2EB410F02D238
:1001D0000246084611464A0042D0C30DDDB2C1F3C3
:1001E000C752AD1A202D35DAC1F3160141F40002D1
:1001F00004B15242C5F1200602FA06F12A41104428
:10020000B3EBD05F23D0C4B1012DA0EBC35009DC08
:10021000F0BC4FF0004202EAC352DBB200F500002E
:1002200000F0B3BE400000F1807000EBC350A0F1BD
:10023000807040EAD170490009E0490841EAC07184
:10024000A0EBC35000F50000400800EBC350F0BC29
:1002500000F092BE6142012202EB4101001BF6E771
:10026000F0BC704781F00041AAE780F00040A7E7AA
:1002700080EA010210B502F00043400022D04A009B
:100280001FD0010E01EB1261C0F35600C2F35602FB
:1002900040F4000042F40002A0FB022000047F3979
:1002A000140400D0401C50EA124001D44000491E02
:1002B000C2B20C0604EBD010401C4008802A02D0C9
:1002C00003E0002010BD20F00100002900DA00202A
:1002D000184310BD30B480EA010202F0004530F04E
:1002E000004221F0004013D090B1C30DD40DC2F3F1
:1002F0001601C0F31600E41A41F4000140F40002B4
:100300007D34914201D3641C00E04900002C02DAE4
:1003100030BC002070474FF400000023914201D30D
:10032000891A034340084FEA4101F7D151B1914284
:1003300002D14FF0004105E002D24FF0010101E08F
:100340006FF0010103EBC450284430BC00F014BE30
:100350002DE9FE4F804681EA0300C00F0C46009055
:1003600021F0004123F00045B8EB0200A94105D27D
:100370004046214690461C460B46024623F000406C
:10038000104347D0270DC7F30A00C3F30A51029068
:10039000401A019040286BDAC3F3130040F4801B2D
:1003A0000098924620B10023D2EB030A63EB0B0BBB
:1003B00001985946C0F14002504600F016FA064630
:1003C0000D4650465946019A00F01EFA10EB0800FF
:1003D0006141002487EA115284EAE7731A4340D04E
:1003E000009A62B3019A012A4FEA075215DC001BFA
:1003F00061EB02014FF0004202EA0752CDE90042F0
:10040000001C41F5801132462B4600F0FBFD03B085
:10041000BDE8F08F40462146F9E7001B61EB020181
:10042000001C41F5801300185B412018A2F500174D
:1004300047EB030140EAD570B6196D4111E06D0834
:100440004FEA360645EAC0754FEA0752001B61EBDA
:100450000201001C41F5801149084FEA30000019E3
:10046000514132462B4603B0BDE8F04F00F0BBBD12
:100470000098012240000023D0EB020263EBE073FE
:10048000009821464FEAE074B8EB000061EB0401EC
:10049000E9E783F000435BE781F0004158E72DE98D
:1004A000FE4F81EA030404F0004421F0004100946F
:1004B0004FF0000B23F0004350EA01045ED052EAF3
:1004C00003045BD0C3F30A54C1F30A552C44A4F2CD
:1004D000F3340194A0FB0254C1F3130141F48011E1
:1004E000C3F3130343F4801301FB024400FB034EE8
:1004F000840A970A44EA815447EA8357A4FB0768B1
:1005000002958D0A05FB07854FEA932C04FB0C54DA
:100510002705029D4FEA065847EA1637B5EB08054E
:100520006EEB070C870E920E47EA811742EA8312A0
:10053000A7FB0201B6EB0B0164EB00042B0D43EAB1
:100540000C335E1844EB1C50DA465146E7FB0201BF
:10055000C5F313044FEA0B3343EA14534FEA043252
:10056000019C43EA0603A4F10C040294009CCDE92B
:1005700000B400F047FD03B0BDE8F08F0020014655
:10058000F9E72DE9F04D81EA030404F0004B21F076
:10059000004514464FF0000A23F0004150EA0502DE
:1005A00020D054EA01021DD0C5F30A570246C5F314
:1005B0001303C1F31300C1F30A5640F4801543F44A
:1005C0008013A7EB0608101BD64608F2FD3873EB24
:1005D000050002D308F1010801E092185B41B8F16F
:1005E000000F03DA00200146BDE8F08D00204FF433
:1005F0008011064684460EE0171B73EB050705D3F2
:10060000121B63EB050306434CEA010C49084FEA51
:10061000300092185B4150EA0107EDD152EA030025
:1006200012D082EA040083EA0501084305D0101BBA
:10063000AB4106D20122002306E000224FF0004326
:1006400002E06FF0010253101AEB06004CEB085168
:1006500010EB0A0041EB0B01BDE8F04D00F0C3BC0C
:10066000002801DBC0F10040002901DBC1F100419D
:10067000814201D80120704700207047002801DB2B
:10068000C0F10040002901DBC1F10041814201D3EA
:100690000120704700207047C10F80EAE0700844D5
:1006A000CA079623002100F070BC0EB5C10F80EA86
:1006B000E0700844CA07002140F233438DE80E0081
:1006C0000A460B4600F09EFC03B000BD00F000425D
:1006D00020F00040C10DC0F3160040F400007F2957
:1006E00001DA00207047962903DCC1F19601C84069
:1006F00001E096398840002AF4D04042704700F06B
:10070000004230F000400AD0C10D01F56071C0F325
:10071000160042EA0151C208400711437047002009
:100720000146704701F0004330B421F0004150EA27
:10073000010206D00A0DA2F56072C1F31301002A6E
:1007400002DC30BC00207047440F44EAC104C10001
:10075000E01830BC00EBC25000F00EBC30B50B46C8
:10076000014600202022012409E021FA02F59D42E1
:1007700005D303FA02F5491B04FA02F52844151EB5
:10078000A2F10102F1DC30BD2DE9F05F0546002049
:1007900092469B4688460646814640241BE02846F2
:1007A00041464746224600F0BDFC53465A46C01A11
:1007B000914110D311461846224600F016F82D1A22
:1007C00067EB01084F4622460120002100F00DF89A
:1007D00017EB00094E41201EA4F10104DFDC48465E
:1007E00031462A464346BDE8F09F202A04DB203AE2
:1007F00000FA02F1002070479140C2F1200320FA74
:1008000003F3194390407047202A06DBCB17203AA8
:1008100041FA02F043EAE07306E041FA02F3D04005
:10082000C2F1200291400843194670472DE9FF4F5D
:100830001C4681B00021D4E9016791464FF0FF3595
:100840008A468846A1696D1C02988847216A8346BA
:1008500088470028F6D1BBF1FF3F0CD026F4C066D4
:10086000002F1ADD700615D5BBF12B0F0AD0BBF196
:100870002D0F0FD104E04FF0FF3005B0BDE8F08F31
:1008800046F48066A1696D1C029888477F1E8346E6
:10089000002F02DDBBF1300F03D0B9F1000F2AD0D9
:1008A00025E0A1696D1C46F400767F1E02988847FA
:1008B0008346002F05DDBBF1780F06D0BBF1580F42
:1008C00003D0B9F1000F10D011E0B9F1000F02D040
:1008D000B9F1100F0BD1A1696D1C26F400767F1EB3
:1008E000029888478346102000E0082081464FEA9E
:1008F000E970009017E00A20F8E74346AAFB0928B0
:1009000003FB0980DDF800C07F1E0AFB0C0112EB1F
:100910000B0A41EBEB78A16946F4007605F101057D
:10092000029888478346002F06DD4946584600F066
:100930000EFC5FEA000BE0D5E16902988847B0053C
:1009400002D46FF0010098E7F00718D1700610D5B7
:100950007005514605D50023D1EB030163EB080276
:1009600000E042462068031D23600068C0E90012D1
:1009700005E02068011D21600068C0E900A8284644
:100980007BE72DE9FF5F1D464FF0FF3BD5E90146B0
:1009900091465F464FF00008A9697F1C019888477F
:1009A000296A824688470028F6D1BAF1FF3F0CD069
:1009B00024F4C064002E19DD600614D5BAF12B0FA3
:1009C00009D0BAF12D0F0ED103E0584604B0BDE8AE
:1009D000F09F44F48064A9697F1C01988847761EC3
:1009E0008246002E02DDBAF1300F03D0B9F1000FBC
:1009F00026D032E0A969761E44F400747F1C019869
:100A000088478246002E05DDBAF1780F06D0BAF18C
:100A1000580F03D0B9F1000F10D01EE0B9F1000F4C
:100A200002D0B9F1100F18D1A969761E24F4007410
:100A30007F1C019888478246102002E0082000E0D1
:100A40000A20814609E008FB0908A969761E44F4DA
:100A500000747F1C019888478246002E05DD4946B8
:100A6000504600F074FB0028EDDAE96901988847E8
:100A7000A00502D46FF00100A8E7E00725D16006C9
:100A800013D5600502D5C8F1000000E04046296892
:100A90000A1D2A600968220501D5087015E02207A1
:100AA00001D5088011E008600FE02868011D296069
:100AB0000068210502D580F8008006E0210702D5F4
:100AC000A0F8008001E0C0F8008038467EE72DE9FC
:100AD000FF5FD2E901A74FF00008916999461446DB
:100AE000DDF838B0464601988847054659EA0B00BC
:100AF00005D009E0A169761C019888470546216A5E
:100B0000284688470028F5D1681C03D05FEACA70E0
:100B100005D015E04FF0FF3004B0BDE8F09F20682D
:100B2000011D2160D0F800800AE05FEACA7001D19F
:100B300008F8015BA169761C7F1E0198884705466D
:100B4000002F1ADD681C18D0B9F1000F0DD0E8177E
:100B500005EBD060421120F01F0059F822102A1A2C
:100B6000012090400142E0D107E0BBF1000FDCD151
:100B7000216A284688470028D7D0E169019888472C
:100B8000BBF1000F07D1002E05DD5FEACA7002D16C
:100B9000002188F80010A068B84203DDBBF1000F07
:100BA00003D017B16FF00100B6E73046B4E700009C
:100BB0002DE9FF4F087883B09946FF2805D0491CDE
:100BC0002D2804D00024002008E000200BE00124A0
:100BD000F9E700EB800003EB4000491C0B78FF2B8A
:100BE000F7D104B1404200230293147819461D4600
:100BF0002D2C01D02B2C04D1521C2D2C13D00024D1
:100C00000294AA461478FF2C0FD00A25A3FB05787E
:100C100001FB05814FF0000C03FB0C11521CE31982
:100C20004AEB0101EEE70124EAE7814453EA0100BF
:100C300002D019F5C87F06DA03980021C0E9001137
:100C400007B0BDE8F08F0025AE4E2F46DFF8B88222
:100C5000184600F021FCCDE90001B9F1000002DAEC
:100C6000C9F1000400E004460023A74A1AEB030B75
:100C700042EB045A12E0E00707D02A4633463846D2
:100C80004146FFF70CFC074688462A463346104685
:100C90001946FFF704FC05460E466410002CEAD105
:100CA000DDE90001B9F1000F5A46534606DAFFF7B5
:100CB00068FC3A464346FFF764FC05E0FFF7EFFBAC
:100CC0003A464346FFF7EBFB029A0AB181F0004136
:100CD000039AC2E90001B3E72DE9FF4F1F468DB02B
:100CE000D7E901464FF0FF382E2045464FF0000966
:100CF0000B90B9696D1C0E988847396A82468847FF
:100D00000028F6D1BAF1FF3F0AD024F4D064002EB7
:100D100011DDBAF12B0F08D0BAF12D0F0BD102E083
:100D2000404611B08DE744F48064B9696D1C0E989B
:100D300088478246761E6946600501D52D2000E071
:100D40002B208DF8000001F1010B0DF1200809E0C6
:100D5000B9696D1C0E98884782460F9844F4007458
:100D6000761E0560002E02DDBAF1300FF0D00B992F
:100D70008A453ED144F0800406E00F99681CA9F131
:100D8000010944F400740860B9696D1C761E0E9860
:100D9000884782463028F0D02BE00B998A4505D150
:100DA000200603D444F08004761E18E0504608F074
:100DB0000DFD08B30DF11302761EAAF1300044F4C4
:100DC0000074934506D20BF8010B200607D5A9F154
:100DD000010003E0200602D409F101008146A005CC
:100DE00002D50F99681C0860B9696D1C0E98884778
:100DF0008246002ED1DC53E0002E51DDBAF1650FA2
:100E000002D0BAF1450F4BD1A00549D5B9696D1C87
:100E100024F44074761E0E9888478246002E0CDD1E
:100E20002B2804D0BAF12D0F07D144F48074B9698E
:100E30006D1C0E9888478246761EE00501D52D214F
:100E400000E02B2108F8011BCDF82C8021E00DF1EA
:100E50002901761E44F4007488450CD2AAF13000B2
:100E600010F0FF0088F8000002D10B99884509D9DD
:100E700008F1010806E0E00501D5244801E042F24E
:100E80000F708146B9696D1C0E98884782460F988D
:100E90000560002E04DD504608F098FC0028D6D1ED
:100EA000F9690E988847FF208BF8000088F8000049
:100EB0000020069007904B466A4608A906A8FFF74F
:100EC00077FEA00502D46FF001002AE714F0240F8A
:100ED0000AD0E00714D1DDE906123868031D3B6033
:100EE0000068C0E900120BE0DDE90601FFF71AFC1B
:100EF0000146E00704D13868021D3A6000680160CD
:100F000028460EE7000014400000F03FF1D8FFFF34
:100F1000026811441378016018467047D160044993
:100F200051610449116200211161114600F01EB99E
:100F3000110F000845110008426842B1016811F81C
:100F4000013B23B1521EC0E900121846704701212F
:100F5000C160881E704742685AB1C368016843B9CE
:100F600083688B4205D0491E521CC0E90012002044
:100F700070474FF0FF3070470029A8BF7047401CF2
:100F8000490008BF20F00100704710B4B0FA80FC9F
:100F900000FA0CF050EA010404BF10BC704749B1DC
:100FA000CCF1200421FA04F411FA0CF118BF01214C
:100FB00021430843A3EB0C01CB1D4FEA00614FEA2C
:100FC000102042BF002010BC704700EBC3501044FB
:100FD0000029A4BF10BC7047401C490008BF20F086
:100FE000010010BC704710B5141E73F1000408DA3C
:100FF000401C41F1000192185B411A4301D120F0DD
:10100000010010BD2DE9F04D92469B4611B1B1FA99
:1010100081F202E0B0FA80F220329046FFF7E5FB61
:1010200004460F4640EA0A0041EA0B0153465A467D
:10103000084313D0114653EA010019D0C8F1400209
:10104000504600F06FF805460E4650465946424657
:10105000FFF7CBFB084305D0012004E020463946CA
:10106000BDE8F08D0020054346EAE0762C43374387
:101070000A986305E40AA0EB08000022FD0A44EA8E
:1010800047540A3002D500200146E9E7010510194E
:101090006941DDE9084500196941BDE8F04DA2E765
:1010A000C1F30A52C1F3130140F2FF3341F480113E
:1010B0009A4202DA00200146704740F233439A42D6
:1010C000A2F2334202DC524200F02CB8FFF78DBB93
:1010D00030B5041E71F1000404DB4FF000444042BF
:1010E00064EB0101141E73F1000405DB1C464FF094
:1010F0000043524263EB0403994208BF904230BD63
:10110000064C074D06E0E06840F0010394E8070054
:1011100098471034AC42F6D3FEF7ECFF74A80008F1
:1011200094A80008202A04DB203A21FA02F00021CA
:10113000704721FA02F3D040C2F1200291400843E7
:1011400019467047C0B24FF4F05100F0B1B93A28D7
:1011500000D2303820F02002412A01D3A2F137001A
:10116000884201D34FF0FF30704700002DE9F34F64
:101170008BB04FF0000801F10C000C464FF0010B52
:1011800046460DF1080A01906269012101989047D5
:10119000051E2DD0252D2CD0216A8847C0B162694B
:1011A000012101989047216A88470028F7D1411E04
:1011B00062690198904700E0761CA1690B98884706
:1011C000216A88470028F7D1E1690B988847DBE757
:1011D000A1690B9888470746A84201D1761CD3E73E
:1011E000E1690B9888477F1C02D1B8F1000F6FD0DE
:1011F00046E1002762693D463946019890472A2812
:1012000004D162690121019890470125DFF8849299
:101210006269012101989047A0F130010A290AD2A0
:101220004F45E5DC07EB870100EB4107303FDFD49A
:1012300045F01005ECE7E90601D46FF000476C2893
:101240000AD04C2814D0682815D06A280DD07428EC
:101250001CD07A281AD01DE06269012101989047BC
:101260006C2802D045F0040514E045F002050DE0BD
:1012700045F020050AE0626901210198904768283D
:1012800002D045F0080505E045F4006562690121DA
:1012900001989047C4E9015765283DD019DC5828CA
:1012A0007AD00CDC452837D004DC252826D041280C
:1012B00031D131E046282FD047282CD12CE05B28B3
:1012C00077D0612828D063287CD0642823D15AE0C5
:1012D000D0E06F2848D008DC66281DD067281BD0D6
:1012E000692821D06E2816D127E0702845D07328B0
:1012F00068D0752847D078280DD14DE0A1690B98AA
:101300008847054625283FF469AFE1690B9888476F
:101310006D1C3FF46AAFB3E023466A466FF00100EC
:101320000B99FFF7D9FC9EE045F040006060A807EC
:1013300023464FF0000236D43EE0E8077FF447AF83
:101340002068011D21600068290501D506701BE792
:10135000290701D5068017E7A90703D5F117C0E9CA
:10136000006111E706600FE745F040006060A807E4
:1013700023464FF0080216D41EE040F60E0125EA7F
:101380000100606016E045F040006060A807234659
:101390004FF00A0207D40FE045F040006060A80754
:1013A00008D5234610226FF001000B99FFF73EFA93
:1013B00059E007E0234610226FF001000B99FFF778
:1013C000E0FA50E04FF000094F464B46632802D048
:1013D0005B2806D040E0E80601D40120A060012788
:1013E0003AE062690121019890475E2805D14FF0EB
:1013F00001096269494601989047216939B900217C
:101400000A46534643F82120491C0829FADBB0B3A9
:10141000216969B9C11700EBD16253110AEB83014D
:1014200022F01F02821A01200B68904003430B60D8
:1014300062690121019890475D28E8D1B9F1000F58
:1014400009D00020514651F82020D24341F82020F5
:10145000401C0828F7DB02AB224600976FF0010022
:101460000B99FFF734FB00280CDA401C08D1BBF1C4
:10147000000F05D04FF0FF300DB0BDE8F08FFFE753
:101480004046F9E7E90701D108F1010806444FF0A9
:10149000000B79E6CCCCCC0C0EB540F23342029274
:1014A0000022CDE900221346FFF7ACFD03B000BDDA
:1014B0007F2801D9002208E0064A02EB5002C0074B
:1014C000127800D1120902F00F020120904008406A
:1014D00070470000149F000870B58C1810F8015B6D
:1014E00015F0070301D110F8013B2A1106D110F8BD
:1014F000012B03E010F8016B01F8016B5B1EF9D1C1
:101500002B0705D40023521E0DD401F8013BFAE746
:1015100010F8013BCB1A921C03E013F8015B01F8B1
:10152000015B521EF9D5A142D8D3002070BD000046
:1015300080B584B002900020019002980068806815
:10154000C00770B3FFE702980168886820F00100C7
:10155000886002F00DF90190FFE70298006880684A
:10156000C007E8B1FFE702F003F90199401A032828
:1015700015D3FFE7029800688068C00770B1FFE7E5
:101580000299886A40F0100088620299C86A40F0A7
:101590000100C86201208DF80F0006E0FFE7DCE7DC
:1015A000FFE700208DF80F00FFE79DF80F0004B063
:1015B00080BD000080B582B001900198406A009023
:1015C0000098806A10F0500F28D1FFE70099886AD0
:1015D00040F40070886200980068806800F4602021
:1015E000B0F5602F16D1FFE70098007B90B9FFE7B8
:1015F0000099886A20F4807088620098806AC0042C
:10160000002806D4FFE70099886A40F0010088624C
:10161000FFE7FFE7009801F057F905E00098006A3E
:10162000016B01988847FFE702B080BD80B582B0AA
:1016300001900198406A00900099886A40F040004B
:1016400088620099C86A40F00400C862009801F0FE
:1016500043F902B080BD000080B582B001900198CE
:10166000406A0090009801F033F902B080BD00009C
:1016700080B584B00290002001900090029800682C
:101680008068C007002849D1FFE702980168886890
:1016900040F00100886040F2AC00C2F20000006837
:1016A0004DF68361C4F21B31A0FB0110800C009049
:1016B000FFE7009820B1FFE7009801380090F8E7B5
:1016C00002F056F80190FFE7029800688068C007B2
:1016D00018BBFFE702F04CF80199401A03281BD30E
:1016E000FFE7029800688068C007A0B9FFE7029989
:1016F000886A40F0100088620299C86A40F00100D0
:10170000C862FFE70299002081F82400FFE701206A
:101710008DF80F0006E0FFE7D6E7FFE700208DF821
:101720000F00FFE79DF80F0004B080BD80B582B0C8
:10173000002001908DF80300FFE79DF80300312899
:1017400017DCFFE79DF8031040F21010C2F2000012
:1017500000EB41008088FEF79FFF01460198FEF7ED
:101760002FFD0190FFE79DF8030001308DF8030085
:10177000E3E701980021C4F24821FEF7ABFD019098
:1017800001984FF08B41FEF7A5FDFEF7B8FF4FF033
:10179000663246F26663C4F20A03FEF780FE002258
:1017A0000023C4F21403FEF77AFEFEF7BBFF40F2FB
:1017B0001011C2F20001086002B080BD80B540F295
:1017C0009C10C2F20000407978B1FFE740F29C1013
:1017D000C2F2000000214171016840F20460C2F2CF
:1017E0000000422204F098FBFFE780BD80B540F284
:1017F0000460C2F200000268D16841F01001D160BB
:1018000040F29C11C2F200010968422204F084FBFC
:1018100080BD000080B59AB040F2B810C2F200005E
:10182000C079002800F0C681FFE740F20810C2F23C
:1018300000000078012828D1FFE740F26800C2F2DA
:1018400000008068804740F24000C2F20000016959
:10185000179100780130FEF71FFF179A01460846DE
:10186000904740F28001C2F20001189100204871B7
:101870008871087248720A69012119919047189875
:10188000199902690846904793E140F20810C2F2A4
:101890000000007802281FD1FFE740F26800C2F282
:1018A00000008068804740F24000C2F200000169F9
:1018B00016910078C043FEF7EFFE169A01460846DF
:1018C000904740F28001C2F2000100204871887107
:1018D0000120087248726BE140F20810C2F2000069
:1018E0000078032831D1FFE740F26800C2F200001F
:1018F0008068804740F24000C2F200000169139105
:1019000000781290FEF7D1FE002215920023C3F654
:10191000E073FEF71DFDFEF705FF014612981491D6
:101920000130FEF7B9FE139A014614989047159AB4
:1019300040F28000C2F20000427182710121017206
:10194000427202690846904731E140F20810C2F243
:1019500000000078042830D1FFE740F26800C2F2AE
:1019600000008068804740F24000C2F20000016938
:101970000F9100780E900130FEF78EFE01460E9812
:101980001091FEF792FE002211920023C3F6E0733D
:10199000FEF7DEFCFEF7C6FE0F9A01461098904750
:1019A000119840F28002C2F2000250719071012140
:1019B0005172107212699047F8E040F20810C2F2BA
:1019C00000000078052829D1FFE740F26800C2F244
:1019D00000008068804740F24000C2F200000169C8
:1019E0000C9100780B90C043FEF756FE01460B9811
:1019F0000D910130FEF750FE0C9A01460D9890476C
:101A000040F28000C2F20000002242718271012186
:101A100001724272026908469047C6E040F208101F
:101A2000C2F200000078062828D1FFE740F26800E3
:101A3000C2F200008068804740F24000C2F200001D
:101A400001690991007808900130FEF725FE0146F2
:101A500008980A91C043FEF71FFE099A01460A98AA
:101A6000904740F28002C2F2000200205071907153
:101A70000121517210721269904795E040F20810EE
:101A8000C2F200000078072823D1FFE740F2680087
:101A9000C2F200008068804740F24000C2F20000BD
:101AA00002690021059108469047059840F280019F
:101AB000C2F20001069148718871087248720A6981
:101AC00001210791904706980799026908469047B7
:101AD00069E040F20810C2F200000078082822D124
:101AE000FFE740F28001C2F200010020C871FFE769
:101AF00040F28000C2F200000390026900210491CC
:101B0000084690470398049902690120904703987A
:101B100004990269022090470398049902690320FE
:101B20009047FFE73EE040F20810C2F20000007864
:101B3000092822D1FFE740F28001C2F20001002013
:101B4000C871FFE740F28000C2F200000190026914
:101B500000200121029190470198029902690846EC
:101B600090470198029902690220904701980299D2
:101B7000026903209047FFE713E040F20810C2F229
:101B8000000000780A280BD1FFE740F28001C2F282
:101B90000001002008710122CA7108724872FFE733
:101BA000FFE7FFE7FFE7FFE7FFE7FFE7FFE7FFE705
:101BB000FFE7FFE740F20811C2F2000100200870C1
:101BC0001AB080BD80B540F24C60C2F200000268DD
:101BD000D16841F01001D16040F2AC11C2F20001B5
:101BE0000968FA2204F098F980BD000080B59EB023
:101BF00040F2B810C2F2000000684AF26A11C0F662
:101C000000010F22FEF7B1FAB0B9FFE740F2680019
:101C1000C2F200008068804740F27400C2F2000007
:101C2000826840F2B810C2F20000006840F224213D
:101C3000C2F20001904796E040F2B810C2F20000F4
:101C400000684AF27A11C0F600010F22FEF78DFA01
:101C5000B0B9FFE740F26800C2F200008068804738
:101C600040F27400C2F20000826840F2B810C2F282
:101C70000000006840F24821C2F20001904771E084
:101C800040F2B810C2F2000000684AF26111C0F6DA
:101C900000010822FEF769FAB8B9FFE740F26800D0
:101CA000C2F200008068804740F27400C2F2000077
:101CB000826840F2B810C2F20000006840F20021D1
:101CC000C2F20001143190474BE040F2B810C2F26A
:101CD000000000684AF25811C0F600010822FEF721
:101CE00044FAB8B9FFE740F26800C2F20000806829
:101CF000804740F27400C2F20000826840F2B810DF
:101D0000C2F20000006840F20021C2F20001183166
:101D1000904725E040F2B810C2F2000000684AF295
:101D20004F11C0F600010822FEF71FFAB8B9FFE70D
:101D300040F26800C2F200008068804740F2740000
:101D4000C2F20000826840F2B810C2F200000068DF
:101D500040F20021C2F200011C319047FFE7FFE78B
:101D6000FFE7FFE7FFE740F2B810C2F200000068AB
:101D70004AF2B611C0F600010F22FEF7F6F9A8B933
:101D8000FFE740F26800C2F200008068804740F23E
:101D90004000C2F20000026900210846904740F26C
:101DA000B811C2F2000101208871FFE740F2B810BB
:101DB000C2F2000000684AF2D111C0F600010B2205
:101DC000FEF7D3F9B8B9FFE740F26800C2F20000AD
:101DD0008068804740F24000C2F2000002690021A2
:101DE0001D91084690471D9840F2B811C2F20001BB
:101DF000C8718871FFE740F2B810C2F20000807924
:101E0000002800F07782FFE740F2B810C2F200002D
:101E100000684AF2DD11C0F600010822FEF7A5F9BC
:101E200040BBFFE740F26800C2F2000080688047D4
:101E300040F24000C2F2000001691A9100780130BE
:101E4000FEF72AFC1A9A01460846904740F28001A4
:101E5000C2F200011B91002048718871087248721B
:101E60000A6901211C9190471B981C990269084638
:101E700090473EE240F2B810C2F2000000684AF219
:101E8000C611C0F600010A22FEF76FF950BBFFE74A
:101E900040F26800C2F200008068804740F24000D3
:101EA000C2F20000016917910078C043FEF7F4FB0D
:101EB000179A01460846904740F28001C2F200019D
:101EC00018910020487188710A6901211991904781
:101ED0001898199902690846904718991998087234
:101EE000487205E240F2B810C2F2000000684AF2FF
:101EF0000F21C0F600010A22FEF737F988BBFFE781
:101F000040F26800C2F200008068804740F2400062
:101F1000C2F200000169149100781390FEF7C5FB2E
:101F2000002216920023C3F6E073FEF711FAFEF7C3
:101F3000F9FB0146139815910130FEF7ADFB149A99
:101F4000014615989047169A40F28000C2F20000B0
:101F50004271827101210172427202690846904702
:101F6000C5E140F2B810C2F2000000684AF22E212A
:101F7000C0F600010B22FEF7F8F880BBFFE740F245
:101F80006800C2F200008068804740F24000C2F260
:101F900000000169109100780F900130FEF77CFB82
:101FA00001460F981191FEF780FB00221292002348
:101FB000C3F6E073FEF7CCF9FEF7B4FB109A0146C6
:101FC00011989047129840F28002C2F200025071BC
:101FD00090710121517210721269904786E140F2AE
:101FE000B810C2F2000000684AF2FC11C0F600010D
:101FF0001222FEF7BAF848BBFFE740F26800C2F2CF
:1020000000008068804740F24000C2F20000016991
:102010000D9100780C90C043FEF73EFB01460C98F2
:102020000E910130FEF738FB0D9A01460E9890474D
:1020300040F28000C2F20000002242718271012150
:10204000017242720269084690474EE140F2B810B0
:10205000C2F2000000684AF21A21C0F60001132201
:10206000FEF783F840BBFFE740F26800C2F20000D1
:102070008068804740F24000C2F2000001690A9186
:10208000007809900130FEF707FB014609980B9193
:10209000C043FEF701FB0A9A01460B98904740F2B5
:1020A0008002C2F200020020507190710121517231
:1020B00010721269904717E140F2B810C2F20000A6
:1020C00000684AF2F111C0F600010A22FEF74DF84D
:1020D00018BBFFE740F26800C2F20000806880474A
:1020E00040F24000C2F20000026900210691084659
:1020F0009047069840F28001C2F2000107914871B2
:102100008871087248720A690121089190470798FE
:102110000899026908469047E5E040F2B810C2F21B
:10212000000000684AF2A411C0F600011122FEF777
:102130001CF8D8B9FFE740F2DA10C2F200000178CB
:10214000B1FA81F149090170007838B1FFE740F236
:10215000B811C2F200010120C87106E040F2B811C6
:10216000C2F200010020C871FFE7BBE040F2B810E6
:10217000C2F2000000684AF28A11C0F600010C2287
:10218000FDF7F3FF00284CD1FFE740F2D810C2F270
:1021900000000178B1FA81F14909017040F2800232
:1021A000C2F200020021517191710078E0B1FFE7A5
:1021B000FFE740F28000C2F20000049002690021B3
:1021C00005910846904704980599026901209047B7
:1021D00004980599026902209047049805990269BC
:1021E00003209047FFE71BE0FFE740F28000C2F2C8
:1021F000000002900269002001210391904702989B
:1022000003990269084690470298039902690220DF
:10221000904702980399026903209047FFE7FFE780
:102220005FE040F2B810C2F2000000684AF2E61126
:10223000C0F600010A22FDF798FFC0BBFFE740F29D
:10224000D910C2F200000178B1FA81F14909017098
:10225000007848B1FFE740F28001C2F2000100209F
:1022600008710120C87121E040F28001C2F2000132
:102270000020C871FFE740F28000C2F20000009029
:10228000026900200121019190470098019902699B
:1022900008469047009801990269022090470098EB
:1022A0000199026903209047FFE7FFE718E040F239
:1022B000B810C2F2000000684AF29711C0F600019F
:1022C0000922FDF752FF50B9FFE740F24001C2F288
:1022D00000010878013000F003000870FFE7FFE715
:1022E000FFE7FFE7FFE7FFE7FFE7FFE7FFE7FFE7BE
:1022F000FFE7FFE71EB080BD80B582B040F2B810A6
:10230000C2F20000407998B1FFE740F2B811C2F282
:102310000001019100204871FFF768FC01980168F5
:1023200040F29460C2F20000422203F0F5FDFFE7A4
:1023300002B080BD80B540F29460C2F20000026835
:10234000D16841F01001D16040F2B811C2F2000131
:102350000968422203F0E0FD80BD000080B582B034
:102360000190ADF802100199BDF8022040F294608E
:10237000C2F200000A2303F003FE02B080BD000099
:10238000FFE7FEE780B540F21C40C2F2000000F01B
:10239000F7FD80BD80B540F2E840C2F2000000F0D9
:1023A000EFFD80BD80B540F26040C2F2000000F059
:1023B000E7FD80BD80B540F2A440C2F2000000F00D
:1023C000DFFD80BD84B003900291019200930398D9
:1023D000C16B026C01209040486000980399096825
:1023E000486003984068102809D1FFE701980399D5
:1023F00009688860029803990968C86008E0029833
:10240000039909688860019803990968C860FFE723
:1024100004B070477047000080B586B040F20400F9
:10242000C2F200000590016800914068FEF767F96C
:1024300041F27B42C4F2AE7247F6E123C3F69473D5
:10244000FEF72DF80246009801920291FEF757F927
:102450000246019803920A46029904924FF0C04244
:102460004FF6E123C4F23503FEF719F8039A049BF3
:10247000FDF76EFFFEF756F90599086006B080BDBE
:1024800080B588B000200490ADF81E00ADF81C00A7
:1024900040F62401C4F200010A68ADF81E2024228F
:1024A000C4F2000213685B42ADF81C301060086093
:1024B000BDF91E00FEF7F0F80021C4F2C82100911A
:1024C000FDF7D6FEFEF71BF94FF03332019243F2CF
:1024D0003333C4F223030293FEF753F8049A002324
:1024E000C4F226030393FEF74CF8049A0023C4F2C7
:1024F00010030593FEF745F8FEF714F940F20401C6
:10250000C2F2000106914860BDF91C00FEF7C4F854
:102510000099FDF7ADFEFEF7F2F8019A029BFEF777
:1025200030F8039B049AFEF72CF8049A059BFEF7FB
:1025300028F8FEF7F7F80699886008B080BD00001B
:1025400080B584B040F27450C2F2000002903C2189
:10255000019102F0DBFB019940F2BC50C2F2000095
:10256000039002F0D3FB029802F0B0F9039802F056
:10257000ADF904B080BD000081B0EFF3108072B6F9
:102580000090FFE7FEE7000080B586B004900020D1
:102590008DF80F000190FFE7049890F824000128BF
:1025A00004D1FFE702208DF81700AEE00499012066
:1025B00081F82400FFE7FFE70498FEF7B9FF8DF8E4
:1025C0000F000498FFF754F88DF80F009DF80F00E6
:1025D000002840F08F80FFE70498806A40F00200F6
:1025E00020F488500499886240F2AC00C2F20000E6
:1025F00000680090022001F079F901460098B0FBD4
:10260000F1F040000190FFE7019820B1FFE7019849
:1026100001380190F8E704980168886840F00800E4
:10262000886001F0A5F80290FFE7049800688068D0
:102630000007002822D5FFE701F09AF80299401A16
:102640000B281AD3FFE70498006880680007002869
:1026500012D5FFE70498806A40F0100020F00200D5
:1026600004998862FFE70499002081F82400FFE7BD
:1026700001208DF8170048E0FFE7D6E704980168CD
:10268000886840F00400886001F072F80290FFE76B
:102690000498006880684007002822D5FFE701F011
:1026A00067F80299401A0B281AD3FFE704980068CC
:1026B00080684007002812D5FFE70498806A40F040
:1026C000100020F0020004998862FFE704990020BE
:1026D00081F82400FFE701208DF8170015E0FFE7DF
:1026E000D6E70498806A40F0010020F002000499C7
:1026F0008862FFE7FFE70499002081F82400FFE7E4
:102700009DF80F008DF81700FFE79DF8170006B041
:1027100080BD000085B00390029100208DF8070075
:102720000090FFE7039890F82400012804D1FFE708
:1027300002208DF81300C3E00399012081F82400E2
:10274000FFE7FFE702984068062812D8FFE70398E2
:102750000068406B029A1168526802EB8202053AE7
:102760001F239340984391400843039909684863A5
:1027700029E0029840680C2812D8FFE70398006807
:10278000006B029A1168526802EB8202233A1F23FF
:10279000934098439140084303990968086311E006
:1027A00003980068C06A029A1168526802EB8202BC
:1027B000413A1F2393409843914008430399096885
:1027C000C862FFE7FFE7029800680A2812D3FFE714
:1027D00003980068C06802990A68896802EB42029F
:1027E0001E3A072393409843914008430399096890
:1027F000C86010E003980068006902990A68896857
:1028000002EB420207239340984391400843039907
:1028100009680861FFE702980068102805D0FFE703
:1028200002980068112840D1FFE70398006842F23F
:102830000041C4F2010188422DD1FFE703980068EE
:1028400080680002002825D4FFE7039801688868A3
:1028500040F40000886002980068102819D1FFE752
:1028600040F2AC00C2F2000000684DF68361C4F291
:102870001B31A0FB0110800C00EB80004000009099
:10288000FFE7009820B1FFE7009801380090F8E7D3
:10289000FFE7FFE708E00399886A40F020008862BC
:1028A00001208DF80700FFE7FFE7FFE7039900200D
:1028B00081F82400FFE79DF807008DF81300FFE77B
:1028C0009DF8130005B0704781B0009001B07047CB
:1028D00081B0009001B0704781B0009001B07047A6
:1028E00080B588B0069000208DF817000490039002
:1028F0000290069820B9FFE701208DF81F00F4E050
:102900000698806830B1FFE70698007D08B1FFE7C0
:10291000FFE7FFE70698806A50B9FFE706990020B5
:10292000C862069981F82400069800F0E3F8FFE7F2
:102930000698FEF7FDFD8DF817000698806AC00620
:10294000002800F1C480FFE79DF81700002840F040
:10295000BE80FFE70698806A40F0020020F48850AD
:102960000699886206994868CA691043097B40EA5B
:102970004101039808430390069881680120B1F54E
:10298000807F019008D0FFE7069880680138B0FA90
:1029900080F040090190FFE701990498CA0740F4CC
:1029A0008071002A18BF084604900698007D01280F
:1029B0001ED1FFE70698007B70B9FFE70698816992
:1029C0004EF20000CFF6FF7000EB4130049908434F
:1029D00040F4006004900AE00699886A40F0200004
:1029E00088620699C86A40F00100C862FFE7FFE705
:1029F00006980068406820F46940049908430699E5
:102A0000096848600698006880684FF2FD71CFF64B
:102A1000E17108400399084306990968886006989F
:102A200081680120B1F5807F009008D0FFE706980B
:102A300080680138B0FA80F040090090FFE7009804
:102A400000F00100002818BF4FF48070B0F5807FBF
:102A500009D1FFE7069801690020CFF6F07000EB7E
:102A600001500290FFE706980068C06A20F47000E9
:102A70000299084306990968C86206980068806848
:102A800040F6FE61CFF61F710840039988420CD1D1
:102A9000FFE706990020C8620698806A40F00100AE
:102AA00020F002000699886210E00698806A40F0E3
:102AB000100020F00200069988620699C86A40F06A
:102AC0000100C86201208DF81700FFE708E00699B1
:102AD000886A40F01000886201208DF81700FFE737
:102AE0009DF817008DF81F00FFE79DF81F0008B044
:102AF00080BD000080B588B007900020069005904A
:102B0000049003900798006842F20041C4F201016A
:102B1000884252D1FFE7FFE741F21800C4F20200F9
:102B2000016841F400710160006800F400700290D7
:102B30000298FFE7FFE741F21800C4F202000168C3
:102B400041F004010160006800F004000190019868
:102B5000FFE7102003900320049040F60000C4F229
:102B6000010003A900F030FC40F21C40C2F200005A
:102B700000900821C4F202010160002141608160DF
:102B80008022C2604FF4807202614FF48062426121
:102B900020228261C16100F037FB18B1FFE7FFF727
:102BA000EBFCFFE7FFE7079840F21C41C2F200018F
:102BB000016207984862FFE7FFE708B080BD0000A8
:102BC00080B586B004900391029200208DF8070032
:102BD0000498006842F20041C4F20101884209D021
:102BE000FFE70498006842F60001C4F20101884240
:102BF00009D1FFE742F20440C4F20100006800F48A
:102C00007020009002E000200090FFE7009800286C
:102C100040F0DC80FFE7FFE7049890F824000128EB
:102C200004D1FFE702208DF81700D8E004990120B5
:102C300081F82400FFE7FFE70498FEF719FD8DF8FF
:102C400007009DF80700002840F0B880FFE70498CF
:102C5000806A40F4807040F601618843049988627C
:102C60000498006842F60001C4F20101884209D1CB
:102C7000FFE742F20440C4F20100006810F4702F34
:102C800003D018E00020B0B9FFE70499886A20F467
:102C9000801088620498006840684005002809D5C3
:102CA000FFE70498806A40F4805020F400500499B3
:102CB0008862FFE72CE00499886A40F480108862FB
:102CC0000498006842F20041C4F20101884209D030
:102CD000FFE70498006842F60001C4F2010188424F
:102CE00009D1FFE742F20440C4F201000068400548
:102CF000002803D40BE0012048B9FFE70498806A5C
:102D000040F4805020F4005004998862FFE7FFE708
:102D10000498806AC004002806D5FFE70499C86AB1
:102D200020F00600C86203E004990020C862FFE7B3
:102D3000FFE70499002081F82400FFE70498016A66
:102D400041F2B550C0F6000088620498016A41F271
:102D50005960C0F60000C8620498016A41F22D6013
:102D6000C0F600000863049801686FF00200086074
:102D700004980168886840F480708860049801684D
:102D8000006A4C31039A029B00F096FA049800689E
:102D9000806800F46020B0F5602F07D1FFE7049849
:102DA0000168886840F4A000886006E00498016823
:102DB000886840F480108860FFE706E0FFE7049928
:102DC000002081F82400FFE7FFE703E001208DF8F1
:102DD0000700FFE79DF807008DF81700FFE79DF853
:102DE000170006B080BD000083B0019000208DF870
:102DF0000300019890F8210002280DD0FFE7019907
:102E000004208863FFE70199002081F82000FFE794
:102E100001208DF80B0021E001980168086820F07E
:102E20000E00086001980168086820F00100086041
:102E30000198C16B026C012090404860FFE7019946
:102E4000012081F82100FFE70199002081F820008E
:102E5000FFE79DF803008DF80B00FFE79DF80B00DE
:102E600003B0704780B588B0079000208DF81B0034
:102E7000079890F82100022807D0FFE7079904205F
:102E8000886301208DF81B0076E0079801680868C8
:102E900020F00E00086007980168086820F0010023
:102EA0000860079800680821C4F20201884203D133
:102EB000FFE70120059047E0079800681C21C4F255
:102EC0000201884203D1FFE71020049039E00798FF
:102ED00000683021C4F20201884204D1FFE74FF4B8
:102EE000807003902AE0079800684421C4F2020130
:102EF000884204D1FFE74FF4805002901BE007980E
:102F000000685821C4F20201884204D1FFE74FF45F
:102F1000803001900CE0079801686C22C4F2020234
:102F20004FF08070914208BF4FF480100190FFE78E
:102F300001980290FFE702980390FFE7039804903E
:102F4000FFE704980590FFE705980421C4F2020109
:102F500008600799012081F82100FFE70799002008
:102F600081F82000FFE70798406B20B1FFE7079842
:102F7000416B8847FFE7FFE79DF81B0008B080BD65
:102F800080B58EB00D900D98C06B00680C900D98B8
:102F9000006800680B900C980D99096CC8404007B8
:102FA000002875D5FFE79DF82C00400700286FD555
:102FB000FFE70D98006800688006002807D4FFE747
:102FC0000D980168086820F004000860FFE70D987C
:102FD00000680821C4F20201884203D1FFE70420FF
:102FE0000A9047E00D9800681C21C4F20201884253
:102FF00003D1FFE74020099039E00D9800683021A7
:10300000C4F20201884204D1FFE74FF480600890C7
:103010002AE00D9800684421C4F20201884204D1DC
:10302000FFE74FF4804007901BE00D98006858219F
:10303000C4F20201884204D1FFE74FF480200690D9
:103040000CE00D9801686C22C4F202024FF080601F
:10305000914208BF4FF480000690FFE70698079062
:10306000FFE707980890FFE708980990FFE709989D
:103070000A90FFE70A980421C4F2020108600D9843
:10308000C06A20B1FFE70D98C16A8847FFE7B8E042
:103090000C980D99096CC8408007002840F1808089
:1030A000FFE79DF82C008007002879D5FFE70D98F1
:1030B00000680068800600280BD4FFE70D980168BF
:1030C000086820F00A0008600D99012081F82100AD
:1030D000FFE70D9800680821C4F20201884203D17D
:1030E000FFE70220059047E00D9800681C21C4F21C
:1030F0000201884203D1FFE72020049039E00D98B7
:1031000000683021C4F20201884204D1FFE74FF485
:10311000007003902AE00D9800684421C4F2020177
:10312000884204D1FFE74FF4005002901BE00D9855
:1031300000685821C4F20201884204D1FFE74FF42D
:10314000003001900CE00D9801686C22C4F202027C
:103150004FF00070914208BF4FF400100190FFE75C
:1031600001980290FFE702980390FFE7039804900C
:10317000FFE704980590FFE705980421C4F20201D7
:103180000860FFE70D99002081F82000FFE70D9807
:10319000806A20B1FFE70D98816A8847FFE72FE03A
:1031A0000C980D99096CC8400007002827D5FFE747
:1031B0009DF82C000007002821D5FFE70D98016835
:1031C000086820F00E0008600D98C26B016C0120A9
:1031D00000FA01F151600D9988630D9981F8210081
:1031E000FFE70D99002081F82000FFE70D98006BA4
:1031F00020B1FFE70D98016B8847FFE7FFE7FFE786
:10320000FFE70EB080BD000083B001900020009069
:10321000019820B9FFE701208DF80B0047E00199E4
:1032200008684FF6F872CBF6FD7210444CF6CD42AA
:10323000CCF6CC42A0FB02026FF0030000EA920041
:10324000086401990020C4F20200C86301990220B9
:1032500081F821000198006800680090009843F60A
:10326000F0718843009001994868D1F808C0CB6894
:103270000A6940EA0C00184310434A6910438A69FE
:103280001043C969014300980843009000980199D0
:1032900009680860019900208863019A012182F879
:1032A0002110019981F820008DF80B00FFE79DF8AF
:1032B0000B0003B07047000080B586B00490039106
:1032C0000292019300208DF80300FFE7049890F824
:1032D0002000012804D1FFE702208DF817004CE000
:1032E0000499012081F82000FFE7FFE7049890F897
:1032F0002100012832D1FFE70499022081F8210042
:1033000004990020886304980168086820F001008F
:10331000086004980399029A019BFFF753F80498F8
:10332000C06A38B1FFE704980168086840F00E00F1
:1033300008600CE004980168086820F00400086048
:1033400004980168086840F00A000860FFE70498E4
:103350000168086840F00100086009E0FFE704998F
:10336000002081F82000FFE702208DF80300FFE72E
:103370009DF803008DF81700FFE79DF8170006B0D1
:1033800080BD000080B584B0039000F0F1F9029098
:10339000039801900198013048B1FFE740F2CD1049
:1033A000C2F200000178019808440190FFE7FFE7AE
:1033B00000F0DEF90299401A0199884201D2FFE734
:1033C000F6E704B080BD000090B00F900E91002091
:1033D0000D900990FFE70E9800680D99C8400028ED
:1033E00000F07F81FFE70D99012088400C900E9836
:1033F00000680C9908400B900B980C99884240F09B
:103400006C81FFE70E9840680590002851D0FFE7D7
:10341000059801283AD0FFE7059802283FD0FFE73A
:10342000059803285FD0FFE70598112832D0FFE701
:103430000598122838D0FFE705980021C1F2110144
:10344000884236D0FFE705980021C1F21201884278
:103450002FD0FFE705980021C1F22101884228D032
:10346000FFE705980021C1F22201884221D0FFE741
:1034700005980021C1F2310188421AD0FFE7059872
:103480000021C1F23201884213D02FE00E98C068AB
:1034900009902CE00E98C0680430099027E00E983F
:1034A000C0680830099022E00E98C0680C3009907E
:1034B0001DE00E98806818B9FFE70420099011E01C
:1034C0000E988068012806D1FFE7082009900C9823
:1034D0000F99086105E0082009900C980F99486140
:1034E000FFE7FFE703E00020099000E0FFE70B980B
:1034F000FF2803D8FFE70F98049003E00F980430EB
:103500000490FFE7049808900B98FF2804D8FFE781
:103510000D988000039006E00D996FF01F0000EBFE
:1035200081000390FFE70398079008980068079AC6
:103530000F219140884309999140084308990860F8
:103540000E98C079C006002840F1C680FFE7FFE76B
:1035500041F21800C4F20200016841F0010101606B
:10356000006800F0010006900698FFE70D9820F033
:1035700003000821C4F2010140580A900D9800F0A0
:10358000030081000F2000FA01F10A9888430A9095
:103590000F9840F60001C4F20101884203D1FFE711
:1035A0000020029026E00F9840F60041C4F201018D
:1035B000884203D1FFE70120019018E00F9841F203
:1035C0000001C4F20101884203D1FFE7022000900C
:1035D0000AE00F9941F20042C4F201020420914234
:1035E00008BF03200090FFE700980190FFE70198D3
:1035F0000290FFE702980D9901F00301890000FA9B
:1036000001F10A9808430A900A980D9921F00301E4
:103610000822C4F2010288500E988079C006002862
:1036200009D5FFE70B9A40F20841C4F2010108688E
:103630001043086008E00B9A40F20841C4F201010F
:10364000086890430860FFE70E988079800600289C
:1036500009D5FFE70B9A40F20C41C4F2010108685A
:103660001043086008E00B9A40F20C41C4F20101DB
:10367000086890430860FFE70E988079800700286B
:1036800009D5FFE70B9A40F20441C4F20101086832
:103690001043086008E00B9A40F20441C4F20101B3
:1036A000086890430860FFE70E988079C00748B12A
:1036B000FFE70B9A40F20041C4F201010868104391
:1036C000086008E00B9A40F20041C4F2010108686A
:1036D00090430860FFE7FFE7FFE70D9801300D908A
:1036E00079E610B07047000082B00190ADF802108A
:1036F00001988068BDF80210084204D0FFE701205D
:103700008DF8010003E000208DF80100FFE79DF82F
:10371000010002B07047000083B00290ADF80610BF
:103720000298C0680090009ABDF8060002EA000105
:10373000904340EA01400299086103B070470000DD
:1037400082B00190ADF802108DF801209DF80100C3
:1037500028B1FFE7BDF802000199086105E0BDF856
:103760000200000401990861FFE702B07047000001
:1037700040F2DC60C2F200000068704740F2CD10F9
:10378000C2F20000027840F2DC61C2F20001086877
:10379000104408607047000080B542F20001C4F296
:1037A0000201086840F010000860032000F096F85D
:1037B0000F2000F005F800F03BF8002080BD00006D
:1037C00080B582B0009040F2AC00C2F20000006808
:1037D00040F2CD11C2F200010A784FF47A71B1FBC8
:1037E000F2F1B0FBF1F000F023FF20B1FFE7012080
:1037F0008DF8070018E000980F280DD8FFE7009912
:103800004FF0FF30002200F04FF8009840F2D01146
:10381000C2F20001086003E001208DF8070003E018
:1038200000208DF80700FFE79DF8070002B080BD7B
:1038300083B0FFE741F21800C4F20200016841F0D2
:1038400001010160006800F0010002900298FFE7AA
:10385000FFE741F21C00C4F20200016841F0805110
:103860000160006800F0805001900198FFE7FFE7D9
:103870000421C4F2010108680090009820F0E06083
:103880000090009840F00070009000980860FFE7FA
:1038900003B0704780B582B08DF807009DF907002E
:1038A00005F0F0FD02B080BD80B586B08DF8170040
:1038B000049103920020029005F0FCFD02909DF916
:1038C0001700019002980499039A03F0EDFD014658
:1038D000019805F0F7FD06B080BD000080B582B00C
:1038E0000190019805F010FE02B080BD80B588B04F
:1038F000079000200690059004900390029007988E
:103900000190012866D0FFE70198022800F0A58009
:10391000FFE70198102840F0B080FFE741F2040073
:10392000C4F202000068039041F20000C4F20200F9
:103930000068C00100284CD5FFE70398C0F383411D
:103940004AF23800C0F60000405C04909DF80E007A
:10395000C007F0B1FFE741F20400C4F202000068C2
:10396000C0F340414AF24800C0F60000405C0690B7
:103970009DF80E00C00758B1FFE7069941F20020FC
:10398000C0F27A00B0FBF1F0049948430590FFE7DC
:1039900007E0049840F60011C0F23D01484305904D
:1039A000FFE741F20400C4F2020000684002002870
:1039B00003D5FFE7059802900AE0059840004AF613
:1039C000AB21CAF6AA21A0FB011040080290FFE734
:1039D000FFE753E041F22000C4F2020000680390C8
:1039E000039800F44070B0F5807F0AD1FFE79DF89E
:1039F0000C008007002804D5FFE74FF40040029038
:103A00002AE0039800F44070B0F5007F0DD1FFE785
:103A100041F22400C4F2020000688007002804D5A7
:103A2000FFE749F64040029015E0039800F440702B
:103A3000B0F5407F0DD1FFE741F20000C4F2020073
:103A400000688003002804D5FFE74FF2244002906D
:103A500000E0FFE7FFE7FFE710E000F03BFA41F28C
:103A60000401C4F20201096801F44042022101EBA1
:103A70005231B0FBF1F0029000E0FFE7029808B08D
:103A800080BD000080B586B00490002003900290B5
:103A900004980078C007002800F0AC80FFE7002001
:103AA0008DF8070041F21C00C4F202000068C0005B
:103AB000002813D4FFE7FFE741F21C00C4F2020024
:103AC000016841F080510160006800F08050009072
:103AD0000098FFE701208DF80700FFE747F200009C
:103AE000C4F200000068C005002822D4FFE747F2B6
:103AF0000001C4F20001086840F480700860FFF71C
:103B000037FE0390FFE747F20000C4F200000068B0
:103B1000C00500280CD4FFE7FFF72AFE0399401ADE
:103B2000652804D3FFE703208DF817008AE0EAE751
:103B3000FFE741F22000C4F20200006800F4407088
:103B400002900298E0B3FFE702980499496801F4F3
:103B50004071884234D0FFE741F22001C4F20201F3
:103B6000086820F44070029040F24042C4F24222C1
:103B70000120106000201060029808609DF8080085
:103B8000C007E0B1FFE7FFF7F3FD0390FFE741F265
:103B90002000C4F202000068800700280ED4FFE76E
:103BA000FFF7E6FD0399401A41F28931884204D3B8
:103BB000FFE703208DF8170044E0E8E7FFE7FFE7A1
:103BC00041F22001C4F20201086820F44070049A16
:103BD0005268104308609DF80700012809D1FFE7EB
:103BE00041F21C01C4F20201086820F08050086014
:103BF000FFE7FFE704980078800700280CD5FFE76F
:103C000041F20401C4F20201086820F44040049A21
:103C1000926810430860FFE704980078C006002807
:103C20000CD5FFE741F20401C4F20201086820F458
:103C30008000049AD26810430860FFE700208DF8E6
:103C40001700FFE79DF8170006B080BD80B584B06F
:103C500002900191029820B9FFE701208DF80F0032
:103C60001BE1019842F20001C4F20201096801F06F
:103C70000701884216D9FFE742F20000C4F20200B1
:103C8000016821F00701019A11430160006800F00A
:103C900007000199884204D0FFE701208DF80F004A
:103CA000FBE0FFE702980078800700282AD5FFE7AD
:103CB000029800784007002809D5FFE741F2040187
:103CC000C4F20201086840F4E0600860FFE702986F
:103CD00000780007002809D5FFE741F20401C4F28B
:103CE0000201086840F460500860FFE741F20401F7
:103CF000C4F20201086820F0F000029A92681043B2
:103D00000860FFE702980078C007002860D0FFE74E
:103D10000298406801280ED1FFE741F20000C4F28A
:103D2000020000688003002804D4FFE701208DF81A
:103D30000F00B2E021E00298406802280ED1FFE7B0
:103D400041F20000C4F2020000688001002804D49F
:103D5000FFE701208DF80F009FE00DE041F2000029
:103D6000C4F2020000688007002804D4FFE70120A5
:103D70008DF80F0091E0FFE7FFE741F20401C4F284
:103D80000201086820F00300029A5268104308609C
:103D9000FFF7EEFC0090FFE741F20400C4F20200DE
:103DA000006800F00C0002994968B0EB810F0ED05A
:103DB000FFE7FFF7DDFC0099401A41F289318842A4
:103DC00004D3FFE703208DF80F0066E0E4E7FFE788
:103DD000019842F20001C4F20201096801F00701F2
:103DE000884216D2FFE742F20000C4F202000168E6
:103DF00021F00701019A11430160006800F00700FB
:103E00000199884204D0FFE701208DF80F0044E0BB
:103E1000FFE702980078400700280CD5FFE741F241
:103E20000401C4F20201086820F4E060029AD2683A
:103E300010430860FFE702980078000700280DD5BE
:103E4000FFE741F20401C4F20201086820F4605067
:103E5000029A126940EAC2000860FFE700F04CF8DD
:103E600041F20401C4F202010968C9B20A0949F623
:103E70005471C0F60001895CC84040F2AC01C2F246
:103E80000001086040F2D010C2F200000068FFF7A5
:103E900097FC00208DF80F00FFE79DF80F0004B09D
:103EA00080BD000040F2AC00C2F200000068704724
:103EB00080B5FFF7F7FF41F20401C4F2020109687F
:103EC000C1F3022249F66471C0F60001895CC84062
:103ED00080BD000080B5FFF7E5FF41F20401C4F2A8
:103EE00002010968C1F3C22249F66471C0F60001FB
:103EF000895CC84080BD000086B000200590049019
:103F000003900290019041F20400C4F202000068A4
:103F10000590059800F00C000146009100283FD064
:103F2000FFE70098042804D0FFE70098082806D08F
:103F300037E041F20020C0F27A00019037E00598A6
:103F4000C0F383414AF24A00C0F60000405C029090
:103F50009DF81600C007C0B1FFE741F20400C4F2AB
:103F600002000068C0F340414AF25A00C0F6000067
:103F7000405C0490029841F20021C0F27A0148436B
:103F80000499B0FBF1F0039007E0029840F60011AD
:103F9000C0F23D0148430390FFE70398019006E01B
:103FA000FFE741F20020C0F27A000190FFE701989C
:103FB00006B0704780B586B00490049820B9FFE73A
:103FC00001208DF817002EE304980078C007002820
:103FD00000F0AE80FFE741F20400C4F20200006886
:103FE00000F00C00042813D0FFE741F20400C4F2F3
:103FF0000200006800F00C0008281BD1FFE741F226
:104000000400C4F202000068C003002812D5FFE7D4
:1040100041F20000C4F2020000688003002808D5C5
:10402000FFE70498406820B9FFE701208DF81700EA
:10403000F9E27CE0FFE704984068B0F5803F09D1E1
:10404000FFE741F20001C4F20201086840F4803049
:10405000086032E00498406868B9FFE741F2000167
:10406000C4F20201086820F480300860086820F477
:104070008020086020E004984068B0F5A02F0DD1A2
:10408000FFE741F20001C4F20201086840F4802019
:104090000860086840F4803008600CE041F20001DC
:1040A000C4F20201086820F480300860086820F437
:1040B00080200860FFE7FFE7FFE7FFE7049840681C
:1040C000D0B1FFE7FFF754FB0390FFE741F2000098
:1040D000C4F202000068800300280CD4FFE7FFF759
:1040E00047FB0399401A652804D3FFE703208DF8A6
:1040F000170098E2EAE719E0FFF73AFB0390FFE7C1
:1041000041F20000C4F202000068800300280CD5D0
:10411000FFE7FFF72DFB0399401A652804D3FFE75B
:1041200003208DF817007EE2EAE7FFE7FFE7FFE7ED
:10413000049800788007002840F18D80FFE741F265
:104140000400C4F20200006810F00C0F13D0FFE767
:1041500041F20400C4F20200006800F00C000828DC
:1041600029D1FFE741F20400C4F202000068C00355
:10417000002820D4FFE741F20000C4F202000068EA
:104180008007002809D5FFE704980069012804D0BA
:10419000FFE701208DF8170045E241F20001C4F26B
:1041A0000201086820F0F800049A526940EAC2004F
:1041B0000860FFE74EE00498006958B3FFE700216C
:1041C000C4F2422101200860FFF7D2FA0390FFE712
:1041D00041F20000C4F202000068800700280CD4FD
:1041E000FFE7FFF7C5FA0399401A032804D3FFE756
:1041F00003208DF8170016E2EAE741F20001C4F24D
:104200000201086820F0F800049A526940EAC200EE
:1042100008601EE00021C4F2422100200860FFF780
:10422000A7FA0390FFE741F20000C4F20200006821
:10423000800700280CD5FFE7FFF79AFA0399401A88
:10424000032804D3FFE703208DF81700EBE1EAE72A
:10425000FFE7FFE7FFE7049800780007002848D54C
:10426000FFE70498806918B3FFE740F28041C4F289
:10427000422101200860FFF77BFA0390FFE741F23B
:104280002400C4F202000068800700280CD4FFE775
:10429000FFF76EFA0399401A032804D3FFE70320BF
:1042A0008DF81700BFE1EAE7012003F033FE1FE0BD
:1042B00040F28041C4F2422100200860FFF758FA22
:1042C0000390FFE741F22400C4F202000068800777
:1042D00000280CD5FFE7FFF74BFA0399401A032893
:1042E00004D3FFE703208DF817009CE1EAE7FFE71E
:1042F000FFE7049800784007002840F1D880FFE7E6
:1043000000208DF8070041F21C00C4F20200006892
:10431000C000002813D4FFE7FFE741F21C00C4F2FD
:104320000200016841F080510160006800F0805097
:1043300000900098FFE701208DF80700FFE747F2A3
:104340000000C4F200000068C005002822D4FFE786
:1043500047F20001C4F20001086840F48070086070
:10436000FFF706FA0390FFE747F20000C4F20000EF
:104370000068C00500280CD4FFE7FFF7F9F903999E
:10438000401A652804D3FFE703208DF817004AE19F
:10439000EAE7FFE7FFE70498C068012809D1FFE7D3
:1043A00041F22001C4F20201086840F001000860F7
:1043B00031E00498C06868B9FFE741F22001C4F217
:1043C0000201086820F001000860086820F004007D
:1043D00008601FE00498C06805280DD1FFE741F28E
:1043E0002001C4F20201086840F004000860086877
:1043F00040F0010008600CE041F22001C4F202012B
:10440000086820F001000860086820F004000860D7
:10441000FFE7FFE7FFE7FFE70498C068E0B1FFE7C9
:10442000FFF7A6F90390FFE741F22000C4F2020073
:104430000068800700280ED4FFE7FFF799F9039979
:10444000401A41F28931884204D3FFE703208DF8F6
:104450001700E8E0E8E71BE0FFF78AF90390FFE7C1
:1044600041F22000C4F202000068800700280ED547
:10447000FFE7FFF77DF90399401A41F2893188423D
:1044800004D3FFE703208DF81700CCE0E8E7FFE74F
:104490009DF80700012809D1FFE741F21C01C4F291
:1044A0000201086820F080500860FFE7FFE70498E9
:1044B000C069002800F0B380FFE741F20400C4F2B5
:1044C0000200006800F00C00082800F08280FFE77E
:1044D0000498C06902285CD1FFE76021C4F2422140
:1044E00000200860FFF744F90390FFE741F2000065
:1044F000C4F202000068800100280CD5FFE7FFF736
:1045000037F90399401A032804D3FFE703208DF8F5
:10451000170088E0EAE70498006AB0F5803F0CD104
:10452000FFE741F20401C4F20201086820F4003000
:10453000049A926810430860FFE741F20401C4F254
:104540000201086820F47410049B1A6A5B6A1A431B
:10455000104308606021C4F2422101200860FFF787
:1045600007F90390FFE741F20000C4F2020000687F
:10457000800100280CD4FFE7FFF7FAF80399401AEE
:10458000032804D3FFE703208DF817004BE0EAE788
:104590001EE06021C4F2422100200860FFF7E8F825
:1045A0000390FFE741F20000C4F2020000688001BE
:1045B00000280CD5FFE7FFF7DBF80399401A032822
:1045C00004D3FFE703208DF817002CE0EAE7FFE7AC
:1045D00024E00498C069012804D1FFE701208DF888
:1045E000170020E041F20400C4F2020000680290CB
:1045F000029800F480300499096A884208D1FFE7E4
:10460000029800F470100499496A884204D0FFE7C8
:1046100001208DF8170006E0FFE7FFE7FFE7002025
:104620008DF81700FFE79DF8170006B080BD000069
:1046300080B582B00190019803F0D0FD02B080BD3A
:1046400081B0009001B0704781B0009001B0704718
:1046500084B00290019100200090FFE7029890F84A
:104660003C00012804D1FFE702208DF80F0044E050
:104670000299012081F83C00FFE7FFE7009820F055
:10468000FF000199C96808430090009820F4407029
:104690000199896808430090009820F4806001998E
:1046A000496808430090009820F400600199096867
:1046B00008430090009820F480500199096908434C
:1046C0000090009820F40050019949690843009037
:1046D000009820F480400199C9690843009000982F
:1046E000029909684864FFE70299002081F83C00BC
:1046F000FFE700208DF80F00FFE79DF80F0004B0E2
:104700007047000085B003900291FFE7039890F88E
:104710003C00012804D1FFE702208DF813005BE084
:104720000399012081F83C00FFE7FFE7039902208D
:1047300081F83D0003980068406801900398006884
:1047400080680090019820F0700001900298016844
:1047500001980843019001980399096848600398FB
:10476000006842F60041C4F20101884218D0FFE718
:1047700003980068B0F1804F12D0FFE703980068FB
:1047800040F20041C4F20001884209D0FFE70398DB
:10479000006840F60001C4F2000188420ED1FFE734
:1047A000009820F08000009002984168009808432B
:1047B00000900098039909688860FFE70399012039
:1047C00081F83D00FFE70399002081F83C00FFE7F6
:1047D00000208DF81300FFE79DF8130005B0704727
:1047E00080B582B00090009820B9FFE701208DF8D5
:1047F00007003FE0009890F83D0040B9FFE70099BE
:10480000002081F83C00009800F038F8FFE700999C
:10481000022081F83D00009951F8040B03F084FD5B
:104820000099012081F84600FFE70099012081F8F6
:104830003E00009981F83F00009981F840000099FE
:1048400081F84100FFE7FFE70099012081F842006D
:10485000009981F84300009981F84400009981F89B
:104860004500FFE70099012081F83D0000208DF808
:104870000700FFE79DF8070002B080BD80B584B057
:1048800003900398006842F60041C4F20101884297
:1048900019D1FFE7FFE741F21800C4F202000168F6
:1048A00041F400610160006800F400600290029829
:1048B000FFE71920019000221146FEF7F5FF01984D
:1048C000FEF7E8FFFFE704B080BD000083B0019071
:1048D000019890F83D00012804D0FFE701208DF8F1
:1048E0000B0047E00199022081F83D000198016822
:1048F000C86840F00100C8600198006842F60041B5
:10490000C4F20101884218D0FFE701980068B0F1B5
:10491000804F12D0FFE70198006840F20041C4F2D6
:104920000001884209D0FFE70198006840F60001C5
:10493000C4F20001884212D1FFE701980068806844
:1049400000F0070000900098062807D0FFE70198C4
:104950000168086840F001000860FFE706E0019880
:104960000168086840F001000860FFE700208DF84A
:104970000B00FFE79DF80B0003B0704780B586B0D1
:104980000490039100208DF80B00FFE7049890F845
:104990003C00012804D1FFE702208DF81700ABE0AE
:1049A0000499012081F83C00FFE7FFE70499022009
:1049B00081F83D000498006880680190019820F01B
:1049C00077000190019820F47F40019001980499AC
:1049D00009688860039800680090002872D0FFE79B
:1049E000009810286ED0FFE7009820286AD0FFE7D3
:1049F0000098302866D0FFE70098402855D0FFE7A0
:104A00000098502837D0FFE70098602840D0FFE793
:104A1000009870280BD0FFE70098B0F5805F05D0B4
:104A2000FFE70098B0F5005F16D052E055E004981B
:104A30000068039B5A689968DB6803F009FD0498D5
:104A4000006880680190019840F07700019001981B
:104A500004990968886040E004980068039B5A68DC
:104A60009968DB6803F0F4FC04980168886840F4F6
:104A70008040886031E004980068039A5168D268E9
:104A800003F0A2FE04980068502103F0FBFC24E030
:104A900004980068039A5168D26803F0BDFE049838
:104AA0000068602103F0EEFC17E004980068039AA8
:104AB0005168D26803F088FE04980068402103F032
:104AC000E1FC0AE0049800680399096803F0DAFC45
:104AD00003E001208DF80B00FFE70499012081F825
:104AE0003D00FFE70499002081F83C00FFE79DF8B6
:104AF0000B008DF81700FFE79DF8170006B080BD8A
:104B000080B586B004900391049820B9FFE7012096
:104B10008DF8170084E0049890F83D0040B9FFE755
:104B20000499002081F83C00049800F07DF8FFE72C
:104B30000499022081F83D0004980168886844F2D5
:104B4000070290438860049951F8040B03F0ECFBD2
:104B50000498006880680290049800688069019059
:104B600004980068006A009003980168029808435E
:104B70000290019840F203318843019003998868BC
:104B8000896940EA0121019808430190019840F6A3
:104B90000C418843019001984FF2F0018843019045
:104BA0000399C868C96940EA012101980843019046
:104BB00003990869096A000140EA01310198084334
:104BC0000190009820F022000090039948684969FC
:104BD00040EA01110098084300900298049909687E
:104BE00088600198049909688861009804990968A7
:104BF00008620499012081F84600049981F83E007A
:104C0000049981F83F00049981F84200049981F8E1
:104C10004300049981F83D0000208DF81700FFE75C
:104C20009DF8170006B080BD80B58AB009900020BD
:104C3000089007900690059009980068B0F1804FA1
:104C40002CD1FFE7FFE741F21C00C4F2020001682B
:104C500041F001010160006800F001000490049837
:104C6000FFE7FFE741F21800C4F20200016841F0DB
:104C700004010160006800F0040003900398FFE75E
:104C800003200590002006900120079040F60000C8
:104C9000C4F2010005A9FEF797FB35E0099800680A
:104CA00040F60001C4F2000188422CD1FFE7FFE783
:104CB00041F21C00C4F20200016841F004010160ED
:104CC000006800F0040002900298FFE7FFE741F25D
:104CD0001800C4F20200016841F008010160006898
:104CE00000F0080001900198FFE7C0200590002027
:104CF00006900120079040F60040C4F2010005A98B
:104D0000FEF762FBFFE7FFE70AB080BD80B586B023
:104D100004900391049890F83E008DF80B000498DD
:104D200090F83F008DF80A00049890F842008DF842
:104D30000900049890F843008DF808000398B8B96A
:104D4000FFE79DF80B00012805D1FFE79DF809005A
:104D5000012804D0FFE701208DF8170079E00499BD
:104D6000022081F83E00049981F84200FFE742E00A
:104D70000398042817D1FFE79DF80A00012805D100
:104D8000FFE79DF80800012804D0FFE701208DF817
:104D900017005EE00499022081F83F00049981F831
:104DA0004300FFE726E09DF80B0001280FD1FFE745
:104DB0009DF80A0001280AD1FFE79DF809000128A3
:104DC00005D1FFE79DF80800012804D0FFE7012086
:104DD0008DF817003DE00499022081F83E00049907
:104DE00081F83F00049981F84200049981F843005A
:104DF000FFE7FFE7FFE70398019020B1FFE7019885
:104E0000042807D00DE0049800680021012203F077
:104E100003FB14E0049800680421012203F0FCFA6B
:104E20000DE00498006800210122009203F0F4FADA
:104E3000009A04980068042103F0EEFAFFE7049852
:104E40000168086840F00100086000208DF8170034
:104E5000FFE79DF8170006B080BD000081B000900C
:104E600001B0704780B582B0019001980068006978
:104E700000F002010020B0EB510F28D0FFE70198AD
:104E80000068C06800F002010020B0EB510F1DD097
:104E9000FFE7019801686FF00200086101990120A5
:104EA0000877019800688069800720B1FFE70198C2
:104EB000FFF7D4FF06E0019800F042F9019800F0F6
:104EC00037FAFFE7019900200877FFE7FFE701982D
:104ED0000068006900F004010020B0EB910F29D0B8
:104EE000FFE701980068C06800F004010020B0EB03
:104EF000910F1ED0FFE7019801686FF00400086170
:104F000001990220087701980068806910F4407FB9
:104F100004D0FFE70198FFF7A1FF06E0019800F039
:104F20000FF9019800F004FAFFE7019900200877D3
:104F3000FFE7FFE701980068006900F00801002022
:104F4000B0EBD10F28D0FFE701980068C06800F0EF
:104F500008010020B0EBD10F1DD0FFE701980168D8
:104F60006FF0080008610199042008770198006833
:104F7000C069800720B1FFE70198FFF76FFF06E0E7
:104F8000019800F0DDF8019800F0D2F9FFE70199EF
:104F900000200877FFE7FFE701980068006900F04C
:104FA00010010020B0EB111F29D0FFE70198006825
:104FB000C06800F010010020B0EB111F1ED0FFE709
:104FC000019801686FF010000861019908200877C6
:104FD00001980068C06910F4407F04D0FFE7019891
:104FE000FFF73CFF06E0019800F0AAF8019800F0F6
:104FF0009FF9FFE7019900200877FFE7FFE7019895
:1050000000680069C00780B1FFE701980068C068C8
:10501000C00748B1FFE7019801686FF0010008611F
:10502000019800F039FAFFE7FFE70198006800698E
:10503000C1B20020B0EBD11F13D0FFE70198006888
:10504000C068C1B20020B0EBD11F09D0FFE70198C2
:1050500001686FF0800008610198FFF7F1FAFFE73F
:10506000FFE701980068006900F040010020B0EB04
:10507000911F14D0FFE701980068C06800F040015C
:105080000020B0EB911F09D0FFE7019801686FF095
:1050900040000861019800F00BFBFFE7FFE7019873
:1050A0000068006900F020010020B0EB511F14D00F
:1050B000FFE701980068C06800F020010020B0EB15
:1050C000511F09D0FFE7019801686FF020000861C7
:1050D0000198FFF7B9FAFFE7FFE702B080BD0000D3
:1050E00080B586B005900020049003900290019056
:1050F0000598006842F60041C4F2010188421DD1C2
:10510000FFE7FFE741F21800C4F20200016841F036
:1051100004010160006800F0040000900098FFE7BF
:105120004FF41060019002200290049040F60000BD
:10513000C4F2010001A9FEF747F9FFE706B080BD00
:1051400081B0009001B0704780B586B004900391A3
:10515000029200208DF80700FFE7049890F83C00C9
:10516000012804D1FFE702208DF8170089E0049997
:10517000012081F83C00FFE7FFE7029800900C282F
:1051800000F270800099DFE801F0076D6D6D206D11
:105190006D6D3A6D6D6D530004980068039903F0CE
:1051A00087F904980168886940F0080088610498CC
:1051B0000168886920F004008861039802690498F6
:1051C000016888691043886150E004980068039979
:1051D00003F0D6F904980168886940F4006088619A
:1051E00004980168886920F48060886103980269E6
:1051F00004980168886940EA0220886136E00498D2
:105200000068039903F028FA04980168C86940F01F
:105210000800C86104980168C86920F00400C861EA
:105220000398026904980168C8691043C8611DE0C9
:1052300004980068039903F07BFA04980168C86930
:1052400040F40060C86104980168C86920F4806077
:10525000C8610398026904980168C86940EA02209D
:10526000C86103E001208DF80700FFE7FFE704991C
:10527000002081F83C00FFE79DF807008DF817003B
:10528000FFE79DF8170006B080BD000080B582B032
:105290000090009820B9FFE701208DF807003FE05B
:1052A000009890F83D0040B9FFE70099002081F890
:1052B0003C00009800F038F8FFE70099022081F8E0
:1052C0003D00009951F8040B03F02EF800990120DD
:1052D00081F84600FFE70099012081F83E0000991F
:1052E00081F83F00009981F84000009981F8410061
:1052F000FFE7FFE70099012081F84200009981F85B
:105300004300009981F84400009981F84500FFE7C7
:105310000099012081F83D0000208DF80700FFE78B
:105320009DF8070002B080BD81B0009001B07047C9
:1053300081B0009001B0704780B58AB008900791A5
:10534000079828B9FFE7089890F83E0005901CE000
:105350000798042805D1FFE7089890F83F000490CB
:1053600010E00798082805D1FFE7089890F840005A
:10537000039004E0089890F841000390FFE7039839
:105380000490FFE704980590FFE70598012804D0F2
:10539000FFE701208DF827007AE0079828B9FFE79A
:1053A0000899022081F83E001EE00798042806D1E3
:1053B000FFE70899022081F83F00029012E0079869
:1053C000082806D1FFE70899022081F840000190E3
:1053D00005E00899022081F841000190FFE701985B
:1053E0000290FFE70298FFE70898006807990122FA
:1053F00003F012F80898006842F60041C4F2010177
:10540000884207D1FFE708980168486C40F40040E3
:105410004864FFE70898006842F60041C4F20101C1
:10542000884218D0FFE708980068B0F1804F12D08A
:10543000FFE70898006840F20041C4F2000188428A
:1054400009D0FFE70898006840F60001C4F20001A7
:10545000884212D1FFE708980068806800F00700D2
:1054600006900698062807D0FFE7089801680868A4
:1054700040F001000860FFE706E00898016808684E
:1054800040F001000860FFE700208DF82700FFE7EB
:105490009DF827000AB080BD80B58AB009900998B0
:1054A00040F22C51C2F20001884240F0FE80FFE73A
:1054B00040F2DB11C2F2000108780130087040F2BE
:1054C000DD11C2F2000108780130087040F2DC11F1
:1054D000C2F2000108780130087040F2B810C2F240
:1054E0000000807938B9FFE740F21C00C2F20000EA
:1054F00040688047FFE740F2DB10C2F2000000780E
:1055000005280DD1FFE740F20400C2F20000006957
:10551000804740F2DB11C2F2000100200870FFE773
:1055200040F2DC10C2F20000007807280DD1FFE73E
:1055300040F2DC11C2F200010020087040F22400A9
:10554000C2F2000040688047FFE740F2DD10C2F27F
:10555000000000780A2845D1FFE740F20400C2F2BB
:105560000000049040698047049840F26801C2F24C
:10557000000103914A68416840F22420C2F2000011
:105580000190904701460198016240F24001C2F249
:1055900000010591C9680291006AFBF797F8029A29
:1055A0000146002008909047039904984A68816852
:1055B00040F24820C2F2000006909047059902464A
:1055C00006980262C9680791006AFBF77FF8079A9C
:1055D000014601209047089840F2DD11C2F2000117
:1055E0000870FFE740F28000C2F20000C07910B3FB
:1055F000FFE740F28000C2F2000001790131017141
:105600000079C82816DBFFE740F28001C2F20001F2
:10561000009100200871496988470098416901207C
:105620008847009841690220884700984169032013
:105630008847FFE7FFE740F28000C2F20000007AEF
:10564000A8B1FFE740F28000C2F2000041790131C9
:1056500041714079C82809DBFFE740F28001C2F2BE
:1056600000010020487149698847FFE7FFE740F2E1
:105670008000C2F20000407AB0B1FFE740F2800043
:10568000C2F200008179013181718079C8280ADB7A
:10569000FFE740F28000C2F2000000218171416901
:1056A00001208847FFE7FFE7FFE70AB080BD000061
:1056B00081B0009001B0704782B00190ADF8021047
:1056C00002B0704780B584B0039000200290039828
:1056D00000684069C0B2C0090290039890F8410088
:1056E000212823D1FFE7029800B3FFE7FFE7FFE798
:1056F0000398006850E8050F20F080000190FFE754
:1057000001990398026842E805100028F0D1FFE7EC
:10571000FFE70398806B28B1FFE70398806BFDF7E4
:1057200063FBFFE7039803F0D7FAFFE703980068ED
:105730004069C0F380100290039890F8420022283C
:1057400023D1FFE7029800B3FFE7FFE7FFE70398E5
:10575000006850E8050F20F040000090FFE7009936
:105760000398026842E805100028F0D1FFE7FFE740
:105770000398C06B28B1FFE70398C06BFDF734FBBB
:10578000FFE7039803F04AFAFFE7002004B080BD6A
:1057900081B0009001B0704780B592B0119011981F
:1057A00000680068109011980068C0680F90119808
:1057B000006840690E9000200D900C90109800F049
:1057C0000F000D900D9888B9FFE79DF84000800606
:1057D00000280AD5FFE79DF83C008006002804D584
:1057E000FFE7119803F094FAE9E1FFE70D9800282C
:1057F00000F0C280FFE79DF83800C00738B9FFE726
:10580000BDF83C0010F4907F00F0B680FFE79DF8F3
:105810004000C00758B1FFE79DF83D00C00730B118
:10582000FFE71199486C40F001004864FFE79DF8DC
:105830004000400700280BD5FFE79DF83800C0075F
:1058400030B1FFE71199486C40F002004864FFE76F
:105850009DF84000800700280BD5FFE79DF8380031
:10586000C00730B1FFE71199486C40F0040048646C
:10587000FFE79DF840000007002811D5FFE79DF8DD
:105880003C008006002805D4FFE79DF83800C007DB
:1058900030B1FFE71199486C40F008004864FFE719
:1058A0001198406C002866D0FFE79DF84000800604
:1058B00000280AD5FFE79DF83C008006002804D5A3
:1058C000FFE7119803F024FAFFE711980068406998
:1058D000C0F380100C901198406C0007002804D48D
:1058E000FFE70C9800283ED0FFE7119803F096F9E7
:1058F000119800684069400600282FD5FFE7FFE7B0
:10590000FFE71198006850E8050F20F040000B9069
:10591000FFE70B991198026842E805100028F0D1C2
:10592000FFE7FFE71198C06B98B1FFE71198C16BD3
:1059300048F65920C0F6000048631198C06BFDF787
:1059400091FA28B1FFE71198C06B416B8847FFE7D8
:1059500003E01198FFF71CFFFFE703E01198FFF742
:1059600017FFFFE706E01198FFF712FF11990020DB
:105970004864FFE7FFE722E11198006B012840F03F
:10598000FE80FFE79DF84000C006002840F1F78048
:10599000FFE79DF83C00C006002840F1F080FFE7DB
:1059A000FFE700200A901198006800680A9011989B
:1059B000006840680A900A98FFE7119800684069FB
:1059C0004006002840F18180FFE71198C06B006815
:1059D0004068ADF82600BDF82600002874D0FFE727
:1059E000BDF826001199898D88426DDAFFE7BDF870
:1059F00026001199C8851198C06B8069202858D05D
:105A0000FFE7FFE7FFE71198006850E8030F20F475
:105A100080700890FFE708991198026842E8031027
:105A20000028F0D1FFE7FFE7FFE7FFE711980068E4
:105A300050E8050F20F001000790FFE70799119843
:105A4000026842E805100028F0D1FFE7FFE7FFE712
:105A5000FFE71198006850E8050F20F0400006901D
:105A6000FFE706991198026842E805100028F0D176
:105A7000FFE7FFE71199202081F8420011990020EB
:105A80000863FFE7FFE71198006850E8030F20F074
:105A900010000590FFE705991198026842E803108D
:105AA0000028F0D1FFE7FFE71198C06BFDF79CF9E4
:105AB000FFE71199022048631198818DC28D891AE0
:105AC00089B2FFF7F9FDFFE779E01199888DC98D5B
:105AD000401AADF812001198C08D00284ED0FFE793
