:020000040800F2
:10000000800C0020750200081D8A00088575000814
:10001000398200083D380008B9A800080000000037
:100020000000000000000000000000001197000820
:10003000D138000800000000359400089D970008A2
:100040008F0200088F0200088F0200088F0200084C
:100050008F0200088F0200088F0200088F0200083C
:100060008F0200088F0200088F0200084138000844
:100070008F020008513800088F020008613800081C
:10008000713800088F0200088F0200088F020008F4
:100090008F0200088F0200088F0200088F020008FC
:1000A0008F020008B19800088F0200088F02000834
:1000B000C19800088F020008D19800088F0200083C
:1000C0008F0200088F0200088F0200088F020008CC
:1000D0008F02000861A70008D9A7000841A80008FE
:1000E0008F0200088F0200088F02000800F002F85B
:1000F00000F0B0F80AA090E8000C82448344AAF112
:100100000107DA4501D100F0A5F8AFF2090EBAE80F
:100110000F0013F0010F18BFFB1A43F0010318473B
:1001200010D1000030D100000A444FF0000C10F84C
:10013000013B13F0070408BF10F8014B1D1108BF65
:1001400010F8015B641E05D010F8016B641E01F805
:10015000016BF9D113F0080F1EBF10F8014BAD1C55
:100160000C1B09D16D1E58BF01F801CBFAD505E073
:1001700014F8016B01F8016B6D1EF9D59142D6D3CD
:10018000704700000023002400250026103A28BFF5
:1001900078C1FBD8520728BF30C148BF0B607047F9
:1001A0006E2900F01982702900F05B8366290CF03B
:1001B000BB8265290CF0B88267290CF0B5826129F1
:1001C0000CF0B48203681B0A28BF41F08001692942
:1001D00000F0C681642900F0C381752900F0C08158
:1001E0006F2900F0E982782900F02783E92900F0DF
:1001F0008382E42900F08082F52900F07D82EF29D6
:1002000000F0E682F82900F026830368DB0928BFA6
:1002100041F08001632901F08F83732901F09483F9
:10022000E32901F09F83F32901F0A48300207047A4
:100230001FB502F067F80400002000210BF0CAF996
:10024000401C6060002000210BF0AEF9E0601FBD93
:1002500010B510BD02F029F81146FFF7E9FF0AF0CA
:1002600045FC02F01DF903B4FFF7F2FF03BC02F0F6
:100270009BFB00000948804709480047FEE7FEE76E
:10028000FEE7FEE7FEE7FEE7FEE7FEE7FEE7FEE746
:1002900004480549054A064B70470000A19800082C
:1002A000ED00000880060020800C0020800800205F
:1002B000800800200FB41CB5084B06AA7B44694691
:1002C0000090059800F0A1F904460020694600F06E
:1002D000AFF920461CBC5DF814FB00007103000060
:1002E0000FB400B58DB010A9099000910B904FF09C
:1002F000FF300A9000200C9006487844069006488B
:1003000078446A4607900F9909A800F041FD0DB0A6
:100310005DF814FBB30A0000CB0A0000401ECAB20D
:1003200010F8011F8A4202D00029F9D1002070473D
:1003300010B5431C02E010F8011B71B18107FAD11E
:100340004FF0013202C88C1A8C4314EAC211F9D062
:10035000C01A0A0603D0C01E10BDC01A10BD0A0480
:1003600001D0801E10BD0902FCD0401E10BD40EA25
:10037000010370B59B072ED14FF00136042A2AD312
:1003800008C810C99D1B9D43121F15EAC61517D03A
:10039000D8B2E1B2401A50EA056110D198B2A1B2C8
:1003A000401A50EA05410AD123F07F4024F07F41F2
:1003B000401A50EA052102D1180EA0EB146070BD5E
:1003C000A342DBD018BA21BA884201D9012070BDFE
:1003D0004FF0FF3070BD0AB9002070BD10F8013B2E
:1003E00011F8014B63B1A3420AD1521E08D010F894
:1003F000013B11F8014B1BB1A34201D1521EEDD1BB
:10040000181B70BD4FF000020429C0F0128010F0DC
:10041000030C00F01B80CCF1040CBCF1020F18BFE0
:1004200000F8012BA8BF20F8022BA1EB0C0100F073
:100430000DB85FEAC17C24BF00F8012B00F8012B46
:1004400048BF00F8012B70474FF0000200B513467B
:1004500094469646203922BFA0E80C50A0E80C50E4
:10046000B1F12001BFF4F7AF090728BFA0E80C5095
:1004700048BF0CC05DF804EB890028BF40F8042B8E
:1004800008BF704748BF20F8022B11F0804F18BFFB
:1004900000F8012B704770477047704770B50446ED
:1004A00085690068C10601D5302600E02026C00716
:1004B00007D070BDD4E9012130469047206A401C26
:1004C00020626D1EF6D570BD70B504468569007852
:1004D000C00707D170BDD4E9012120209047206AD0
:1004E000401C20626D1EF6D570BD09684A0501D515
:1004F00040B27047C905FCD500B2704709684A058B
:1005000001D5C0B27047C905FCD580B2704770B53F
:100510000C460546012A05D02878800600D5EA69F0
:10052000002302E0012305E05B1C934202D2E05C61
:100530000028F9D1A869E618C01AA861286A1844E9
:1005400028622846FFF7AAFF04E0D5E9012114F844
:10055000010B9047B442F8D32846FFF7B5FF70BDB2
:100560002DE9F0410646002410687529314616A58C
:1005700010D0FFF7BAFF002802DA404213A507E0C7
:1005800031688A0701D512A502E0490704D511A5F3
:10059000012401E0FFF7B2FF00210A2206F124073F
:1005A00009E0B0FBF2FCB0FBF2F302FB1C003030C0
:1005B00078541846491C0028F3D123462A46304671
:1005C000BDE8F04100F0C8BD000000002D000000B3
:1005D0002B0000002000000011680268006A53052B
:1005E00001D508700AE0D30501D5088006E013069E
:1005F00003D5C217C1E9000200E00860012070477E
:1006000001694A1C02610878704700B58FB0CDE9D6
:1006100001310021059105497944CDE903101146C6
:10062000684600F029F90FB000BD0000E5FFFFFFAC
:100630000A6802F8010B0A60704700002DE9FF5FAD
:1006400015468A460446DFF8AC80F8440027D8E90E
:1006500000103E46CDE9001010E03AF816106A4648
:1006600002A801F0FEFD411C07D02178890603D5C0
:10067000E269391891420DD80744761C207880062B
:1006800002D5E069B84205DDAE42E6DB3AF8160075
:100690000028E2D1A069C01BA0612046FFF7FEFE42
:1006A000D8E90010CDE90010002017E03AF8181042
:1006B0006A4602A801F0D5FDB0F1FF3F81460BD09C
:1006C00000250DF1080B05E0D4E901211BF8050018
:1006D00090476D1C4D45F7D308F10100B0428046AC
:1006E000E4DB206A384420622046FFF7EDFEBDE8D7
:1006F000FF9F0000DEC100002DE9F0418046D21DC1
:1007000022F007020025D2E90002F52915A614D02F
:10071000011E72F1000106DA0023D0EB030063EB47
:10072000020211A608E0D8F800108B0701D50FA629
:1007300002E0490701D50EA601251146002408F163
:10074000240704E000F0BAFC30323A55641C50EA49
:100750000102F7D12B46324621464046BDE8F04122
:1007600000F0FABC000000002D0000002B0000008B
:100770002000000030B4002100F1240408E002F061
:100780000705D208303542EA4372DB086554491C3C
:1007900052EA0305F3D10468002310A2250708D507
:1007A00004F020040C4304D0C46901230CA2641E8D
:1007B000C46130BC00F0D0BC10B5044621461068BE
:1007C000FFF79CFE02462046BDE810400023D1E71B
:1007D000D21D22F00701D1E90023CBE70000000081
:1007E00030000000F0B40D460188090502D5214C07
:1007F0007C4402E01F4C7C440E34002100F12406AE
:1008000008E002F00F071209E75D42EA03721B09D4
:100810007754491C52EA0307F3D1027800231207E8
:1008200004D5702D06D009B1022311342246F0BC44
:1008300000F092BC01231034F8E770B504460D4671
:1008400021461068FFF75AFE024629462046BDE8B9
:1008500070400023C6E7D21D22F00703D3E900232E
:10086000C0E70368126843F0200303600823C361F4
:100870000023B7E740C000002DE9F05F8946044639
:100880004FF0000ADFF874B1FB44C0F820A0204606
:10089000E1688847002874D0252806D0D4E90121D2
:1008A0009047206A401C2062F1E700265F46204600
:1008B000E16888472028054607DB312D05D27819E5
:1008C00010F8200C08B10643F1E7B00701D526F077
:1008D0000406C4F81CA00027C4F818A02A2D09D0CB
:1008E00028460AF0F4FD38B304EB8708303DC8F819
:1008F000185019E059F8041B204604EB8702916157
:10090000E1688847012F054618D1E069002820DA00
:1009100026F020061DE0D8F8180000EB800005EB5B
:1009200040003038C8F818002046E168884705467E
:100930000AF0CDFD0028EED1012F0AD02E2D08D1CE
:100940002046E16888477F1C0546022F46F02006B6
:10095000C4DBA069002803DA404246F00106A0612A
:10096000F00701D026F010066C2D0BD0682D09D0B1
:100970004C2D39D06A2D35D0742D35D07A2D33D009
:1009800016E038E0E1682F4620468847B842054621
:1009900009D16C2F26D04FF48060E16806432046D1
:1009A0008847054604E06C2F1AD04FF48070064348
:1009B0000DB3A5F14100192802D8203546F4006690
:1009C0004A462946204626604E46FFF7E9FB80B19D
:1009D00001280BD0F61D26F0070000F1080956E7A4
:1009E0004020E4E78020D8E70020D6E706F104099C
:1009F0004DE7284652E7206ABDE8F09FD0BF0000CF
:100A00002DE9FF4F1C4691464FF0FF3581B0002184
:100A10008A468846D4E90167A16902986D1C884717
:100A2000216A834688470028F6D1BBF1FF3F0CD0EE
:100A3000002F26F4C0661ADD700615D5BBF12B0F0A
:100A40000AD0BBF12D0F0FD104E04FF0FF3005B0FD
:100A5000BDE8F08F46F48066A16902986D1C884756
:100A60007F1E8346002F02DDBBF1300F03D0B9F1AA
:100A7000000F2AD025E0A1696D1C02987F1E46F464
:100A800000768847002F834605DDBBF1780F06D03E
:100A9000BBF1580F03D0B9F1000F10D011E0B9F13C
:100AA000000F02D0B9F1100F0BD1A1696D1C029893
:100AB0007F1E26F4007688478346102000E0082039
:100AC00081464FEAE970009017E00A20F8E74346B4
:100AD000AAFB0928DDF800C07F1E03FB098046F44D
:100AE000007605F101050AFB0C0112EB0B0A0298D6
:100AF00041EBEB78A16988478346002F06DD494624
:100B0000584600F03BFF5FEA000BE0D5E169029830
:100B10008847B00502D46FF0010098E7F00718D1BC
:100B2000700610D55146700505D50023D1EB0301A1
:100B300063EB080200E042462068031D2360006862
:100B4000C0E9001205E02068011D21600068C0E9CD
:100B500000A828467BE72DE9FF5F1D464FF0FF3BCD
:100B600091464FF000085F46D5E90146A969019812
:100B70007F1C8847296A824688470028F6D1BAF147
:100B8000FF3F0CD0002E24F4C06419DD600614D59C
:100B9000BAF12B0F09D0BAF12D0F0ED103E0584650
:100BA00004B0BDE8F09F44F48064A96901987F1CFB
:100BB0008847761E8246002E02DDBAF1300F03D040
:100BC000B9F1000F26D032E0A969761E01987F1C8A
:100BD00044F400748847002E824605DDBAF1780F90
:100BE00006D0BAF1580F03D0B9F1000F10D01EE0B3
:100BF000B9F1000F02D0B9F1100F18D1A969761E12
:100C000001987F1C24F4007488478246102002E07B
:100C1000082000E00A20814609E0A96908FB0908CC
:100C2000761E01987F1C44F4007488478246002E8B
:100C300005DD4946504600F0A1FE0028EDDAE969DD
:100C400001988847A00502D46FF00100A8E7E007EB
:100C500025D1600613D5600502D5C8F1000000E07B
:100C6000404629680A1D2A600968220501D50870D6
:100C700015E0220701D5088011E008600FE0286820
:100C8000011D29600068210502D580F8008006E07A
:100C9000210702D5A0F8008001E0C0F800803846A6
:100CA0007EE72DE9FF5F4FF000089946144646465F
:100CB0009169D2E901A7DDF838B001988847054667
:100CC00059EA0B0005D009E0A1690198761C884714
:100CD0000546216A284688470028F5D1681C03D0BC
:100CE0005FEACA7005D015E04FF0FF3004B0BDE8F0
:100CF000F09F2068011D2160D0F800800AE05FEAC3
:100D0000CA7001D108F8015BA169761C01987F1EA9
:100D100088470546002F1ADD681C18D0B9F1000F6E
:100D20000DD0E81705EBD060421120F01F0059F8F4
:100D300022102A1A012090400142E0D107E0BBF1C5
:100D4000000FDCD12846216A88470028D7D0E16906
:100D500001988847BBF1000F07D1002E05DD5FEA3F
:100D6000CA7002D1002188F80010A068B84203DDE3
:100D7000BBF1000F03D017B16FF00100B6E73046AA
:100D8000B4E7000002681144137801601846704708
:100D9000D1600549794451610449794411620021C7
:100DA0001161114600F0F8BDEDFFFFFFA90300003F
:100DB000426842B1016811F8013B23B1521EC0E9FB
:100DC0000012184670470121C160881E70474268B2
:100DD0005AB1C368016843B983688B4205D0491E84
:100DE000521CC0E90012002070474FF0FF307047DE
:100DF0002DE9FF4F4FF000089A461446C14646467B
:100E000083B0D2E901B7CDF80080CDF804809169B4
:100E100004988847109905465AEA010005D009E070
:100E2000A1690498761C88470546216A28468847A8
:100E30000028F5D1681C03D05FEACB7005D02AE00A
:100E40004FF0FF3007B0BDE8F08F2068011D216032
:100E5000D0F800801FE002A86A46E9B201F0E1F98B
:100E6000411C07D0801C09D04FF000095FEACB700D
:100E700007D00AE0E169049888473EE04FF0010995
:100E800004E0BDF8081028F8021B7F1EA169049831
:100E9000761C88470546002F1ADD681C18D0BAF169
:100EA000000F0DD0E81705EBD060421120F01F00B5
:100EB0005AF822102A1A012090400142CBD107E0B3
:100EC00010980028C7D12846216A88470028C2D038
:100ED000E16904988847B9F1000F0ED1109830B934
:100EE000002E04DD5FEACB7001D1A8F80000A068F5
:100EF000B84202DD109818B117B16FF00100A1E7F8
:100F000030469FE72DE9FF4F4FF000089B461446FF
:100F1000454683B0D2E90196CDF80080CDF8048033
:100F20009169DDF848A00498884707465BEA0A0003
:100F300005D009E0A16904986D1C88470746216A1D
:100F4000384688470028F5D1781C03D05FEAC9707D
:100F500005D01BE04FF0FF3007B0BDE8F08F2068F0
:100F6000011D2160D0F8008010E05FEAC97007D150
:100F70006A464046B9B201F074F9411C31D0804450
:100F8000A1696D1C0498761E88470746002E14DD63
:100F9000781C12D0BBF1000007D03B46DDE91012EF
:100FA00001F030F90028E0D107E0BAF1000FDCD100
:100FB0003846216A88470028D7D0E16904988847D5
:100FC000BAF1000F06D1002D04DD5FEAC97001D12E
:100FD00088F80000A068B04203DDBAF1000F03D02A
:100FE00016B16FF00100B7E72846B5E72DE9FF5FBE
:100FF0009B46144600273D469169D2E90196DDF8EB
:1010000040A00198884780465BEA0A0005D009E0C5
:10101000A16901986D1C88478046216A404688472F
:101020000028F5D1B8F1FF3F03D05FEAC97005D0C1
:1010300014E04FF0FF3004B0BDE8F09F2068011DC0
:10104000216007680AE05FEAC97001D127F8028BC6
:10105000A1696D1C0198761E88478046002E15DD1B
:10106000B8F1FF3F12D0BBF1000007D04346DDE9E5
:101070000E1201F0C7F80028E5D107E0BAF1000F21
:10108000E1D14046216A88470028DCD0E169019817
:101090008847BAF1000F05D1002D03DD5FEAC97062
:1010A00000D13880A068B04203DDBAF1000F03D050
:1010B00016B16FF00100BEE72846BCE730B5B0F1CD
:1010C0000A0271F100034FEA900E4EEA817EB0EB06
:1010D0000E0061EB91014FEA101E4EEA017E10EB0B
:1010E0000E0041EB11114FEA102E4EEA016E10EB8B
:1010F0000E0041EB11214FEA104E4EEA014E10EB6B
:101100000E0041EB1141401841F100014FEAD000BF
:1011100040EA41704FEAD1014FEA810444EA9074F9
:1011200010EB800544EB01046D1944EB0404521BE1
:10113000A3414FF0000348BF0A3200D530BD401C28
:1011400041F1000130BD10B5044601F0D3F800684C
:10115000005D00F0010010BD2DE9F0470D469946F5
:101160009246044600F124080168880604D5E06927
:1011700021F01001216000E00120A84201DD471BA1
:1011800000E00027A1697A1902EB0900081AA061A2
:101190002078C00602D42046FFF780F9002608E038
:1011A000D4E901211AF806009047206A401C761CF9
:1011B00020624E45F4DB2078C0060AD52046FFF7B2
:1011C0006DF906E0D4E9012130209047206A401CE7
:1011D0002062381EA7F10107F4DC07E0D4E9012101
:1011E00018F805009047206A401C2062281EA5F1CF
:1011F0000105F3DC2046FFF767F92078000602D5E9
:101200000220BDE8F0870120FBE72DE9FF4F0C46E7
:101210001E464FF0FF378BB0D2E90001DDF8608049
:101220000A908A46C1F30A5505B93D460021084691
:101230004FF00000BAF1000F00F4400005DA00EBB7
:1012400080004FF4400101EA50004FEA9059B9F193
:10125000010F00DDB9460A9850EA4A000ED044F664
:101260001050A5F2FF3545432F14B8F1000F1ED0E2
:101270007542291E1EDDC9F100021CE0B8F1010F04
:101280004FF0000001D0302103E0F24305E021548B
:10129000401CB042FBDB30460022002121540B9958
:1012A000C1F80880C1E900200FB0BDE8F08FBD1B78
:1012B0006D1CDEE74A4600DA694206A801F07EF8B6
:1012C00006AB93E8070003AB83E8070050460A9992
:1012D00009F034FC8DE80700A0F500501F3800909D
:1012E0000398002D0ADD42F21F014A4608440023FC
:1012F00003A90390684609F0DFFE09E0A0F500505D
:101300004A461F38002303A90390684609F0FEFEF1
:101310008DE807000004000C03D04FF0FF304108B7
:1013200000E01046B8F1000F03D0002200921546ED
:101330001EE0751E05D4FFF7C1FE303262556D1EEA
:10134000F9D5B3460122084302D000227F1C04E0F5
:101350002078302801D100227F1E002A099784D0EE
:101360001DE0112D07DAFFF7A9FE303262556D1C22
:1013700050EA0102F5D1084302D00098C8B10EE04E
:101380000021681E05E0235C625C63542254401E09
:10139000491C8142F7DBAB46A81B401E0990002088
:1013A00004F80B000B98099AC0F80880C0E9002BDC
:1013B0007AE711264FF0000857E72DE9F04F8846ED
:1013C0000446D21D22F0070191B0D1E90001CDE918
:1013D0000A0109F0E7FF02460B98C00F01D02D204B
:1013E00007E02068810701D52B2002E0202101EAD7
:1013F000C000032A099001D0072A05DB03464146B5
:10140000204600F09BFF0BE12078800601D5E069C3
:1014100000E00620B8F1650F814606D0B8F1660FEE
:1014200018D0B8F1670F70D131E00020B9F1110F79
:10143000009001DB112301E009F101030AAA01A9CF
:101440000CA8FFF7E2FEDDE90C70002609F10105AA
:10145000834647E001204B4600904FF000470AAA20
:1014600001A90CA8FFF7D1FEDDE90DB00C995D468E
:10147000002610B909F101000D18B9EB050003D4DD
:10148000C0F1FF3609F10105A5EB09002BE0B9F128
:10149000010F01DA4FF001090020B9F1110F00909E
:1014A000484601DD112300E003460AAA01A90CA861
:1014B000FFF7ABFEDDE90C704D4600268346207831
:1014C00000070AD4AB4500DA5D4601A8012D04DD12
:1014D000411911F8011C302907D04F4502DA17F1E4
:1014E000040F04DA012082460FE06D1EEEE7002FA4
:1014F00002DCED1B3E4403E0781CA84200DD7D1CAD
:10150000B81B00F1010A4FF000472078000703D410
:10151000AA4501DB4FF0FF3A0021B7F1004F0DF172
:1015200043088DF8431024D002202B23002F01DA2A
:101530007F422D230A21021EA0F1010000DC5FB1D1
:1015400097FBF1FC97FBF1F201FB1C7C17460CF1B9
:10155000300C08F801CDEEE7A8F1010003702188F6
:10156000090501D5452100E06521A0F1010800F839
:10157000011C09980FA9A1EB0807FF1D00B101206C
:10158000411901EBEA70A1693844081A401EA061B4
:101590002078C00602D42046FEF780FF099828B1C3
:1015A000D4E901219047206A401C20622078C006BF
:1015B00022D52046FEF772FF1EE0002E04DBB34565
:1015C00002DD01A8805D00E03020D4E901219047D0
:1015D000206A401C2062761CAAF101005FEA000A22
:1015E0000AD100F08FFEC0680168405CD4E9012197
:1015F0009047206A401C2062281EA5F10105DCDC12
:1016000007E0D4E9012118F8010B9047206A401C3B
:101610002062381EA7F10107F3DC2046FEF754FFD5
:10162000032011B041E600002DE9F04F04460D46BD
:10163000D21D22F0070089B0D0E90097484639460C
:1016400009F0B0FE0246F80F01D02D2307E0206814
:10165000810701D52B2302E0202101EAC0038DF888
:1016600020300BB1012000E00020032A824601D087
:10167000072A04DB2946204600F060FE3FE120787F
:10168000800601D40D2500E0E569C7F30A560D2D4B
:1016900049DA00214FEA175B08464FF00000002F9F
:1016A00000F4400007DA00EB80004FF4400100EB4B
:1016B000D07001EA60008115012901DD4FF0FF3192
:1016C00000224FEA850CBCF1180F06D31346ACF18B
:1016D00018004FF08052C24003E04FF4801323FA09
:1016E0000CF30CF10C0CBCF1200F04D3ACF1200C6A
:1016F00009FA0CF001E007FA0CF000294FF000485D
:1017000001DD18B90FE00ED140450CD319EB0209E9
:101710005F4121B9404502D19F4329EA0209BBEB51
:10172000175F00D0761C2088000502D57B487844DE
:1017300002E07A487844193808AA302302F80A30BF
:10174000037C0AF10101002E0AF1020A53546A4691
:1017500002DC4FF0300101E04FF031014FF00108A1
:101760008DF8001002D0A6F2FF3603E059EA4701D7
:1017700000D06B4E002D02DC2178090704D54FF014
:1017800002082E218DF80110C44600210BE0C7F39A
:1017900003433F01C35C491C6D1E02F80830052954
:1017A00008F1010801DA002DF1DC00210CE000EB6A
:1017B0001973491C1B786D1E082902F808304FEA7E
:1017C000091908F1010801DA002DF0DC21688B0607
:1017D00002D516E0A8F10108E04505DD02EB08039B
:1017E00013F8013C302BF5D0B8F1000F09DD02EB06
:1017F000080313F8013C2E2B03D1090701D4A8F1EB
:101800000108002D05DD3E2102F808106D1E08F1CB
:101810000108407C002E02F8080008F1010804DAF3
:101820002D20764202F8080002E02B2002F8080082
:101830000A214FF47A70864208F101080BDB96FB0F
:10184000F0F3303302F8083096FBF0F308F10108AA
:1018500000FB136601E0642E0CDB642096FBF0F3C2
:10186000303302F8083096FBF0F308F1010800FB72
:10187000136601E00A2E06DB96FBF1F0303002F829
:10188000080008F1010896FBF1F001FB1060303010
:1018900002F80800A16908F1010808EB050202EB53
:1018A0000A00081AA0612078C00602D42046FEF77C
:1018B000F5FD216A08AE01EB0A00206204E0D4E9DC
:1018C000012116F8010B9047BAF1010AF7D22078EE
:1018D000C00602D52046FEF7E1FD6E4609E016F887
:1018E000010B3E280FD0D4E901219047206A401C0B
:1018F0002062B8F10108F2D22046FEF7E5FD09B0FA
:101900000320BDE8F08F206A2844206203E0D4E978
:101910000121302090476D1EEBD3F8E74EB1000057
:1019200002FCFFFF10B5436913B1AFF3008001E083
:10193000FEF7EDFD012010BD127800F124010A70C0
:1019400000224A700122EDE711684FF0FF32E9E70B
:1019500010B5436913B1AFF3008001E0FEF76EFEEE
:10196000012010BD128800F1240182840022C2846B
:101970000122EDE711684FF0FF32E9E73A2800D283
:10198000303820F02002412A01D3A2F137008842EA
:1019900001D34FF0FF3070472DE9F34F4FF0000AAD
:1019A0000C4656468DB001200C9001F10C000B90B6
:1019B00062690B9801219047051E2DD0252D2CD052
:1019C000216A8847C0B162690B9801219047216A5A
:1019D00088470028F7D16269411E0B98904700E0C4
:1019E000761CA1690D988847216A88470028F7D19D
:1019F000E1690D988847DBE7A1690D988847A842FF
:101A0000074601D1761CD3E7E1690D9888477F1C12
:101A100002D1BAF1000F6FD06BE162690B98002719
:101A20003D46394690472A2804D162690B98012126
:101A300090470125DFF8D08262690B980121904719
:101A4000A0F130010A290AD24745E5DC07EB8701FE
:101A500000EB4107303FDFD445F01005ECE7E90625
:101A600001D46FF000476C280AD04C2814D06828A5
:101A700015D06A280DD074281CD07A281AD01DE001
:101A800062690B98012190476C2802D045F004054B
:101A900014E045F002050DE045F020050AE062691A
:101AA0000B9801219047682802D045F0080505E011
:101AB00045F4006562690B9801219047C4E901571C
:101AC00065283DD019DC58287AD00CDC452837D061
:101AD00004DC252826D041289ED131E046282FD08D
:101AE000472899D12CE05B2877D0612828D063283B
:101AF0007CD0642823D15AE0F6E06F2848D008DC77
:101B000066281DD067281BD0692821D06E2816D1E1
:101B100027E0702845D0732868D0752847D07828EA
:101B20000DD14DE0A1690D988847252805463FF461
:101B300069AFE1690D9888476D1C3FF46AAFD8E042
:101B40000D9923466A466FF001000AF051FEC5E088
:101B500045F0400023464FF000026060A80736D4ED
:101B60003EE0E8077FF447AF2068011D2160006870
:101B7000290501D506701BE7290701D5068017E75F
:101B8000A90703D5F117C0E9006111E706600FE767
:101B900045F0400023464FF008026060A80716D4C5
:101BA0001EE040F60E0125EA0100606016E045F0F7
:101BB000400023464FF00A026060A80707D40FE0F8
:101BC00045F040006060A80708D5234610220D9913
:101BD0006FF00100FEF714FF80E007E010222346BB
:101BE0000D996FF00100FEF7B6FF77E04FF00009A6
:101BF00063284F46C8464B46CB4602D05B2806D0EA
:101C000038E0E80601D40120A060012732E06269D3
:101C1000D4F80CB00B98012190475E2807D14FF003
:101C2000010949466269D4F80CB00B9890472169C4
:101C300039B900210A4603AB43F82120491C082981
:101C4000FADBD8B3216949B308F1010862690B983E
:101C5000012190475D28F4D1B9F1000F09D000208F
:101C600003A951F82020D24341F82020401C082825
:101C7000F7DB03AB2069002820794FEA40701ED0C3
:101C80005B462246CDF80080CDE901970D990028EA
:101C90006FF0010020DAFFF7A9F91FE0C11703AACE
:101CA00000EBD1614B1121F01F0102EB8302411ABD
:101CB00013680120884003431360C7E719E00D99BA
:101CC000224600286FF00100009702DAFFF790F833
:101CD00004E0FEF7E6FF01E0FFF714F900280ADA56
:101CE000401C06D10C9820B14FF0FF300FB0BDE87A
:101CF000F08F5046FAE7E90701D10AF1010A0644DC
:101D000000200C9054E60000CCCCCC0C2DE9FF4F09
:101D100006468BB00878FF2806D0491C2D2805D030
:101D200000244FF0000908E000200CE00124F8E74F
:101D300009EB8903491C00EB43090878FF28F7D118
:101D400014B1C9F100008146107800252C46AA463E
:101D500029462D2801D02B2804D1521C2D2813D020
:101D6000002082468B461078FF280FD04FF0000CE1
:101D70000A21521CA5FB017804FB018105FB0C1113
:101D8000C5194BEB0104EEE70120EAE70021084604
:101D90004FF00000BAF1000F02D000EB80004008C5
:101DA000C0F38157012F01DD4FF0FF370E9955EA3F
:101DB000040009EB01080BD04FF0020918F5FA7F77
:101DC00016DA4FEACA70002F706008DD012007E0C4
:101DD0004FEACA70C6E900B00FB0BDE8F08F00202E
:101DE000306000F093FAC0F800901821084616E021
:101DF000B8F5FA7F18DD002F02DAF748784401E0E1
:101E0000F6487844D0E90010C6E9001040EACA70EC
:101E1000706000F07BFAC0F80090142108460FB003
:101E2000BDE8F04F0AF07DBC002108464FF00000ED
:101E3000B8F10001099002DAC7F1000200E03A4669
:101E400001DAC8F1000106A800F0B8FA06AB93E881
:101E5000070003AB83E8070044F23E005BEA04019D
:101E60000090584604D144F21E012C465D46009174
:101E7000210C0904014306D10099240444EA1544C5
:101E80002D041039009104F07F41014306D10099DF
:101E9000240244EA15642D020839009104F07041CF
:101EA000014306D10099240144EA15742D01091F4C
:101EB000009104F04041014306D10099A40044EA96
:101EC0009574AD00891E009104F00041084304D1CF
:101ED00000986D196441401E00904FF001033A468E
:101EE0006846B8F1000FCDE9014503A902DD09F00C
:101EF00022F901E009F0F5F8BAF1000F04460D46A9
:101F000001D084F00044002108464FF000000999F8
:101F100040F2FF77484010F00C0F07D124F000404A
:101F2000284303D0C4F30A50B84212D100F0EEF9AE
:101F3000C0F80090C4F30A50B8420AD1A8487844C7
:101F4000D0E90010C6E9001004F0004108437060B9
:101F500042E7C6E900543FE72DE9FF4F1F464FF027
:101F6000000A4FF0FF38454691B0D7E90146CDF859
:101F70003CA000F0C7F9C0680168405C1090B969E6
:101F800012986D1C8847396A814688470028F6D127
:101F9000B9F1FF3F0AD0002E24F4D06411DDB9F16D
:101FA0002B0F08D0B9F12D0F0BD102E0404615B030
:101FB00013E744F48064B96912986D1C8847761E53
:101FC0008146600504A901D52D2000E02B20002EBC
:101FD00001F1010B0DF130088DF810003FDDB9F172
:101FE000690F08D0B9F1490F05D0B9F16E0F02D0D1
:101FF000B9F14E0F1CD13B4601A8009580E8500274
:10200000DDE912126FF002000AF0F6FBC11CCED11E
:102010000EE0B96912986D1C884781461398761EA8
:1020200044F4007405600F98401C002E0F9016DDDC
:10203000B9F1300FEDD0B9F1780F02D0B9F1580FE6
:102040000DD10F9801280AD13B46CDE90054DDE9B6
:102050001212001F02960AF0CDFBC11CA7D11099E5
:1020600089453ED144F0800406E01399681CAAF12A
:10207000010A44F400740860B9696D1C1298761E58
:10208000884730288146F0D02BE01099894505D14A
:10209000200603D4761E44F0800418E0484609F078
:1020A00016FA08B3761E0DF123029345A9F130000C
:1020B00044F4007406D20BF8010B200607D5AAF1F0
:1020C000010003E0200602D40AF101008246A005C7
:1020D00002D51399681C0860B96912986D1C88476D
:1020E0008146002ED1DC53E0002E51DDB9F1650FA1
:1020F00002D0B9F1450F4BD1A00549D5B9696D1C86
:102100001298761E24F440748847002E81460CDD18
:102110002B2804D0B9F12D0F07D144F48074B9698C
:1021200012986D1C8847761E8146E00501D52D2149
:1021300000E02B2108F8011BCDF8008021E0761E7D
:102140000DF13901884544F400740CD2A9F1300036
:1021500010F0FF0088F8000002D10099884509D9E5
:1021600008F1010806E0E00501D51E4801E042F251
:102170000F708246B96912986D1C88478146139882
:102180000560002E04DD484609F0A1F90028D6D1EB
:10219000F96912988847FF2053468BF8000088F8A9
:1021A000000000200A900B9004AA0CA90AA8FFF7CF
:1021B000ADFDA00502D46FF00100F8E614F0240F85
:1021C00012D0E0071CD13868DDE90A12031D3B601C
:1021D0000068C0E9001213E058B400004AB40000DF
:1021E0000EB30000F1D8FFFF0AA9684609F0FEF817
:1021F000E00705D13868009A011D39600068026067
:102200002846D4E610B508E030F8024B9C4204D1D1
:102210000AB1002010BD012010BD491EF4D21046A5
:1022200010BDF8B516460C46054600F063F8036885
:1022300093F80101012804D0185D78B101202C80A9
:10224000F8BDD3F803013246214603F20313C71841
:1022500068460023B84700992980F8BD4FF0FF3049
:10226000F8BD2DE9F04116460C46054600F042F84F
:10227000036893F80101012807D0FF2C12D8185DDC
:1022800080B101202C70BDE8F081D3F807013246FF
:10229000214603F20713C7182846BC46BDE8F041A3
:1022A000002360474FF0FF30EDE7754600F002F97C
:1022B000AE4605006946534620F00700854618B033
:1022C00020B5FDF7E5FFBDE820404FF000064FF0D8
:1022D00000074FF000084FF0000BAC46ACE8C00917
:1022E000ACE8C009ACE8C009ACE8C00921F00701BE
:1022F0008D46704710B500F005F8001D10BD00BFF9
:10230000D592000000487047E8010020004870475F
:10231000C8010020B2F120030AD5C2F1200301FA5E
:1023200002F120FA03F341EA030100FA02F07047D8
:1023300000FA03F14FF00000704700002DE9F04172
:102340001F46044603260168072A01F4006004DBE7
:1023500008B116A505E016A503E008B115A500E033
:1023600015A521F010002060A069C01EA0610FB16A
:10237000401EA0612046FEF791F84FB1D4E901213B
:1023800038469047206A401C2062C01C206206E04C
:10239000206AFAE7D4E9012115F8010B9047761E6F
:1023A000F8D22046FEF790F8BDE8F0814E414E008D
:1023B0006E616E00494E4600696E66002DE9F04779
:1023C000814616468AB0354878440DC88DE80D0020
:1023D00032487844801C03AC0DC884E80D0041F6F7
:1023E0009B300844372190FBF1F290FBF1F5A5F109
:1023F000800501FB12041B3C02D56442012000E071
:102400000020DFF898A080460027FA44AAF1BE0A0F
:102410000EE0E0070AD03246684607EB4701012389
:102420000AEB810108F072FE8DE8070064107F1C42
:10243000002CEED1194F7F44AE3F19E0E80715D0CC
:1024400007EB04100DF1180A90E80E008AE80E0060
:10245000C068F04201D1981908903246012306A9BC
:1024600003A808F053FE03AB83E807006D10641C5B
:10247000002DE3D14FF0010332466946B8F1000F59
:1024800003A802D008F018FE01E008F03FFEC9E9F9
:102490000001C9F808200AB0BDE8F08744A5000093
:1024A00010B50446AFF300802046BDE81040FDF7AC
:1024B000DABE000000487047C801002010B5FFF7E1
:1024C00025FF006810BD10B50446FFF71FFF04602C
:1024D00010BD00002DE9FF4F1F464FF03C0987B0AB
:1024E0004FF00042DDE9141001F10108DDF858A0B9
:1024F00002EA4050039000200590834605460446BA
:102500000490B969461E08988847AAF1010A02900A
:10251000BAF1000F3BDD02982E2815D01021FFF7ED
:102520002DFA00282EDB4FF0010B0599014317D03F
:10253000B9F1000F0BDB4A46C117FFF7EBFE05436D
:102540000C43A9F1040905E0012004900BE008B157
:1025500045F0010501200590049820B9361D02E0E0
:10256000049800B1361FB969089808F10108884736
:10257000BBF1000FAAF1010A0290C9D00999C1F874
:102580000080C5E70298702808D0502806D0F96965
:1025900008988847BBF1000F14D04FE0002002904C
:1025A0000120BBF1000F049009D0B969089808F127
:1025B00001088847AAF10109B9F1000F07DCF969A0
:1025C000089888476FF001000BB0BDE8F08F2B280A
:1025D00004D02D280CD14FF0FF300490B969089831
:1025E00008F101088847A9F10109B9F1000FE6DDFA
:1025F000411CE4D00A21FFF7C1F90028DFDB029972
:1026000008F1010801EB810100EB41000290B9697A
:10261000089888470A21FFF7B1F9099AA9F1010939
:10262000B9F1000FC2F8008001DD0028E7DAF9698E
:10263000089888470499029800FB016655EA04004F
:1026400004D004F04041090002D006E0039898E06D
:10265000A40044EA9574AD00B61E04F000410800E1
:1026600002D16D196441761E159810F0240F03D025
:102670004FF00B095C4803E04FF028096FF07D0034
:102680008246564507DAAAEB06018944B9F1410FA3
:1026900001DD4FF0410901200021A9F10102FFF7FE
:1026A00039FE024628400B462140084301D0012153
:1026B00000E00021501E029143F1FF3128402140EB
:1026C000084301D0012000E000200299834651EA2E
:1026D0000B014FD0002108464FF00000039900F491
:1026E000400039B100EB80004FF4400100EBD070A6
:1026F00001EA60008015012802DD4FF0FF3000E0A4
:1027000013D0401C36D0029860B3BBF1000F0CD13F
:102710004A4601200021FFF7FDFD284021400843E3
:1027200001D0012000E00020E0B101204A46002154
:10273000FFF7F0FD034640190A4661412D1A8C410E
:1027400011D3B9F1400F09DD159810F0240F02D014
:10275000AAF1340603E0AAF1170600E0761C002572
:102760004FF0004406E05B1E42F1FF3220EA030511
:1027700021EA0204CAF10100B04206DA1B490398BB
:1027800008430190002000900EE0039AC4F3D32187
:10279000E80A0A43164940EA44500A433146CDE963
:1027A0000002684608F088FE159810F0240F0BD040
:1027B0001598C00715D13868DDE90012031D3B608C
:1027C0000068C0E900120CE002A8694608F00EFE9D
:1027D0001598C00705D13868029A011D3960006854
:1027E00002604046F0E6000002FCFFFF0000F07FC0
:1027F0000000F03F2DE9FF4F92461D4685B04FF097
:102800000041DDE9124BDDE914727F1E01EA4B50F5
:10281000414940F0FF4940EA0108002122F0200030
:102820004928049102D04E2828D04CE03BA0012634
:1028300007C88DE80700A9690698641C88477F1EB1
:10284000014606D41DF8060018B121F0200181428E
:102850000BD0E96906988847032E34D0082E32D071
:102860006FF0010009B0BDE8F08F761C032E01D097
:10287000082EE0D1601CCAF80000DCE7A9690698C0
:10288000641C88477F1E2AD420F02000412826D1CE
:10289000A9690698641C88477F1E20D420F0200078
:1028A0004E281CD1A9690698641C88477F1E48F4ED
:1028B000002849F48009CAF8004001D4282806D02D
:1028C000E969069888475FEACB7012D022E0A969CF
:1028D0000698641C88477F1E01D4002803DAE96942
:1028E00006988847BCE72928F1D1641CCAF8004043
:1028F000E9E71BF0240F07D028680499031D2B601B
:102900000068C0E9001805E02868021D2A60006818
:10291000C0F800902046A5E70000F07F494E4649E8
:102920004E495459000000004FF0013C50F8042B70
:1029300051F8043B9A4221D1A2EB0C03934313EAD2
:10294000CC1317D150F8042B51F8043B9A4215D1FF
:10295000A2EB0C03934313EACC130BD150F8042BD6
:1029600051F8043B9A4209D1A2EB0C03934313EABA
:10297000CC13DBD04FF00000704700BFD01A01BA73
:10298000B1FA81F101F0180122FA01F0CB40DBB27B
:10299000C0B2C01AC1F120012CFA01F3D11A91433F
:1029A00011EAC311E6D1704701491820ABBEFEE71A
:1029B000260002007047000080B584B0029000201D
:1029C0000190029800688068C00770B3FFE7029822
:1029D0000168886820F00100886002F01FF901900A
:1029E000FFE7029800688068C007E8B1FFE702F0DF
:1029F00015F90199401A032815D3FFE702980068DA
:102A00008068C00770B1FFE70299886A40F0100043
:102A100088620299C86A40F00100C86201208DF8FE
:102A20000F0006E0FFE7DCE7FFE700208DF80F006E
:102A3000FFE79DF80F0004B080BD000080B582B0B4
:102A400001900198406A00900098806A10F0500F41
:102A500028D1FFE70099886A40F4007088620098E6
:102A60000068806800F46020B0F5602F16D1FFE7A1
:102A70000098007B90B9FFE70099886A20F4807085
:102A800088620098806AC004002806D4FFE7009995
:102A9000886A40F001008862FFE7FFE7009801F0D4
:102AA00069F905E00098006A016B01988847FFE723
:102AB00002B080BD80B582B001900198406A00905C
:102AC0000099886A40F0400088620099C86A40F026
:102AD0000400C862009801F055F902B080BD000002
:102AE00080B582B001900198406A0090009801F092
:102AF00045F902B080BD000080B584B0029000208E
:102B000001900090029800688068C007002849D1B1
:102B1000FFE702980168886840F00100886040F291
:102B2000A800C2F2000000684DF68361C4F21B31B8
:102B3000A0FB0110800C0090FFE7009820B1FFE798
:102B4000009801380090F8E702F068F80190FFE77C
:102B5000029800688068C00718BBFFE702F05EF8C3
:102B60000199401A03281BD3FFE702980068806888
:102B7000C007A0B9FFE70299886A40F01000886298
:102B80000299C86A40F00100C862FFE7029900207C
:102B900081F82400FFE701208DF80F0006E0FFE731
:102BA000D6E7FFE700208DF80F00FFE79DF80F0044
:102BB00004B080BD80B582B0002001908DF8030084
:102BC000FFE79DF80300312817DCFFE79DF80310AD
:102BD00040F20010C2F2000000EB4100808809F0D2
:102BE000DFFB0146019809F031FA0190FFE79DF8FB
:102BF000030001308DF80300E3E701980021C4F2DF
:102C0000482109F0BBFA019001984FF08B4109F07F
:102C1000B5FA09F0EFF94FF0663246F26663C4F296
:102C20000A0308F0C5FF00220023C4F2140308F0D1
:102C3000BFFF08F0E5FC40F20011C2F2000108609D
:102C400002B080BD80B582B040F28830C2F2000090
:102C5000019000F0EFFE019840F20011C2F2000175
:102C60000431322201F002FA02B080BD80B540F298
:102C70008C10C2F20000407978B1FFE740F28C106E
:102C8000C2F2000000214171016840F2A050C2F27E
:102C90000000422204F0AEFBFFE780BD80B540F2A9
:102CA000A050C2F200000268D16841F01001D1606A
:102CB00040F28C11C2F200010968422204F09AFB32
:102CC00080BD000080B59CB040F2A810C2F20000A8
:102CD000C079002800F0D181FFE740F2F800C2F28D
:102CE00000000078012828D1FFE740F26C00C2F212
:102CF00000008068804740F24400C2F20000016991
:102D000019910078013009F04BFB199A01460846E9
:102D1000904740F28401C2F200011A9100204871EC
:102D20008871087248720A6901211B9190471A98AC
:102D30001B990269084690479EE140F2F800C2F2F2
:102D40000000007802282AD1FFE740F26C00C2F2AE
:102D500000008068804740F24400C2F20000016930
:102D600016910078C04309F01BFB169A01460846ED
:102D7000904740F28401C2F200011791002048718F
:102D800088710A690121189190471798189902696A
:102D90000846904717991898087248726BE140F2FC
:102DA000F800C2F200000078032831D1FFE740F2BA
:102DB0006C00C2F200008068804740F24400C2F21A
:102DC0000000016913910078129008F09DFE002226
:102DD00015920023C3F6E07308F044FC08F010FCE1
:102DE000014612981491013009F0DAFA139A01465B
:102DF00014989047159A40F28400C2F20000427184
:102E0000827101210172427202690846904731E1E4
:102E100040F2F800C2F200000078042830D1FFE749
:102E200040F26C00C2F200008068804740F244002B
:102E3000C2F2000001690F9100780E90013009F094
:102E4000AFFA01460E98109108F05EFE0022119232
:102E50000023C3F6E07308F005FC08F0D1FB0F9ADD
:102E6000014610989047119840F28402C2F2000285
:102E70005071907110720121517212699047F8E0FF
:102E800040F2F800C2F200000078052829D1FFE7DF
:102E900040F26C00C2F200008068804740F24400BB
:102EA000C2F2000001690C9100780B90C04309F058
:102EB00077FA01460B980D91013009F071FA0C9ADE
:102EC00001460D98904740F28400C2F200000022B3
:102ED0004271827101210172427202690846904773
:102EE000C6E040F2F800C2F200000078062828D1BF
:102EF000FFE740F26C00C2F200008068804740F2B9
:102F00004400C2F200000169099100780890013084
:102F100009F046FA014608980A91C04309F040FAC0
:102F2000099A01460A98904740F28402C2F20002D0
:102F300000205071907110720121517212699047F6
:102F400095E040F2F800C2F200000078072823D193
:102F5000FFE740F26C00C2F200008068804740F258
:102F60004400C2F200000269002105910846904722
:102F7000059840F28401C2F20001069148718871FF
:102F8000087248720A6901210791904706980799CB
:102F900002690846904769E040F2F800C2F200007A
:102FA0000078082822D1FFE740F28401C2F2000134
:102FB0000020C871FFE740F28400C2F200000390D5
:102FC0000269002104910846904703980499026918
:102FD00001209047039804990269022090470398C2
:102FE0000499026903209047FFE73EE040F2F800B1
:102FF000C2F200000078092822D1FFE740F28401E4
:10300000C2F200010020C871FFE740F28400C2F262
:10301000000001900269002001210291904701986F
:1030200002990269084690470198029902690220B4
:10303000904701980299026903209047FFE713E047
:1030400040F2F800C2F2000000780A280BD1FFE736
:1030500040F28401C2F20001002008710122CA710D
:1030600008724872FFE7FFE7FFE7FFE7FFE7FFE7C8
:10307000FFE7FFE7FFE7FFE7FFE740F2F801C2F2F3
:103080000001002008701CB080BD000080B540F237
:10309000E850C2F200000268D16841F01001D1602E
:1030A00040F29C11C2F200010968422204F0A2F928
:1030B00080BD000080B59EB040F2A810C2F20000B2
:1030C00000684CF64B21C0F600010F22FDF74FF9C6
:1030D000B0B9FFE740F26C00C2F2000080688047A0
:1030E00040F27800C2F20000826840F2A810C2F2FA
:1030F0000000006840F27421C2F20001904796E09F
:1031000040F2A810C2F2000000684CF65B21C0F645
:1031100000010F22FDF72BF9B0B9FFE740F26C0078
:10312000C2F200008068804740F27800C2F20000DE
:10313000826840F2A810C2F20000006840F29821B4
:10314000C2F20001904771E040F2A810C2F2000004
:1031500000684CF64221C0F600010822FDF707F98D
:10316000B8B9FFE740F26C00C2F200008068804707
:1031700040F27800C2F20000826840F2A810C2F269
:103180000000006840F25021C2F200011431904763
:103190004BE040F2A810C2F2000000684CF6392162
:1031A000C0F600010822FDF7E2F8B8B9FFE740F2E7
:1031B0006C00C2F200008068804740F27800C2F2E2
:1031C0000000826840F2A810C2F20000006840F2DD
:1031D0005021C2F200011831904725E040F2A810BA
:1031E000C2F2000000684CF63021C0F6000108224F
:1031F000FDF7BDF8B8B9FFE740F26C00C2F200007D
:103200008068804740F27800C2F20000826840F295
:10321000A810C2F20000006840F25021C2F2000182
:103220001C319047FFE7FFE7FFE7FFE7FFE740F2CA
:10323000A810C2F2000000684CF69721C0F6000109
:103240000F22FDF794F8A8B9FFE740F26C00C2F234
:1032500000008068804740F24400C2F2000002692A
:1032600000210846904740F2A811C2F20001012057
:103270008871FFE740F2A810C2F2000000684CF627
:10328000B221C0F600010B22FDF771F8B8B9FFE7D3
:1032900040F26C00C2F200008068804740F24400B7
:1032A000C2F20000026900211D91084690471D9856
:1032B00040F2A811C2F20001C8718871FFE740F224
:1032C000A810C2F200008079002800F07782FFE7A2
:1032D00040F2A810C2F2000000684CF6BE21C0F611
:1032E00000010822FDF743F840BBFFE740F26C0005
:1032F000C2F200008068804740F24400C2F2000041
:1033000001691A910078013009F04AF81A9A0146C9
:103310000846904740F28401C2F200011B91002050
:1033200048718871087248720A6901211C9190479E
:103330001B981C990269084690473EE240F2A8108B
:10334000C2F2000000684CF6A721C0F600010A2274
:10335000FDF70DF850BBFFE740F26C00C2F2000031
:103360008068804740F24400C2F200000169179172
:103370000078C04309F014F8179A014608469047B0
:1033800040F28401C2F20001189100204871887156
:103390000A690121199190471898199902690846FC
:1033A0009047189919980872487205E240F2A810DF
:1033B000C2F2000000684CF6F021C0F600010A22BB
:1033C000FCF7D5FF88BBFFE740F26C00C2F20000BB
:1033D0008068804740F24400C2F200000169149105
:1033E0000078139008F090FB002216920023C3F699
:1033F000E07308F037F908F003F9014613981591C6
:10340000013008F0CDFF149A014615989047169A9E
:1034100040F28400C2F20000427182710121017207
:103420004272026908469047C5E140F2A810C2F214
:10343000000000684CF60F31C0F600010B22FCF7CB
:1034400096FF80BBFFE740F26C00C2F2000080688C
:10345000804740F24400C2F20000016910910078F8
:103460000F90013008F09CFF01460F98119108F071
:103470004BFB002212920023C3F6E07308F0F2F82F
:1034800008F0BEF8109A014611989047129840F241
:103490008402C2F2000250719071107201215172C7
:1034A0001269904786E140F2A810C2F2000000685D
:1034B0004CF6DD21C0F600011222FCF758FF48BB94
:1034C000FFE740F26C00C2F200008068804740F2E3
:1034D0004400C2F2000001690D9100780C90C043D5
:1034E00008F05EFF01460C980E91013008F058FF7D
:1034F0000D9A01460E98904740F28400C2F20000F7
:1035000000224271827101210172427202690846F1
:1035100090474EE140F2A810C2F2000000684CF65D
:10352000FB21C0F600011322FCF721FF40BBFFE79F
:1035300040F26C00C2F200008068804740F2440014
:10354000C2F2000001690A9100780990013008F088
:1035500027FF014609980B91C04308F021FF0A9A02
:1035600001460B98904740F28402C2F2000200200C
:10357000507190711072012151721269904717E1D8
:1035800040F2A810C2F2000000684CF6D221C0F64A
:1035900000010A22FCF7EBFE18BBFFE740F26C00CB
:1035A000C2F200008068804740F24400C2F200008E
:1035B00002690021069108469047069840F284016E
:1035C000C2F20001079148718871087248720A6955
:1035D0000121089190470798089902690846904789
:1035E000E5E040F2A810C2F2000000684CF6852128
:1035F000C0F600011122FCF7BAFED8B9FFE740F28D
:103600002A20C2F200000178B1FA81F14909017063
:10361000007838B1FFE740F2A811C2F200010120A2
:10362000C87106E040F22A21C2F2000100200870B1
:10363000FFE7BBE040F2A810C2F2000000684CF6C1
:103640006B21C0F600010C22FCF791FE00284CD142
:10365000FFE740F22820C2F200000178B1FA81F1C0
:103660004909017040F28402C2F200020021517146
:1036700091710078E0B1FFE7FFE740F28400C2F209
:1036800000000490026900210591084690470498C3
:103690000599026901209047049805990269022062
:1036A000904704980599026903209047FFE71BE0C3
:1036B000FFE740F28400C2F200000290026900209D
:1036C00001210391904702980399026908469047A7
:1036D00002980399026902209047029803990269AF
:1036E00003209047FFE7FFE75FE040F2A810C2F237
:1036F000000000684CF6C721C0F600010A22FCF762
:1037000036FEC0BBFFE740F22920C2F2000001787C
:10371000B1FA81F149090170007848B1FFE740F240
:103720008401C2F20001002008710120C87121E06B
:1037300040F28401C2F200010020C871FFE740F2AC
:103740008400C2F200000090026900200121019172
:10375000904700980199026908469047009801999E
:10376000026902209047009801990269032090475E
:10377000FFE7FFE718E040F2A810C2F2000000687F
:103780004CF67821C0F600010C22FCF7F0FD50B990
:10379000FFE740F24401C2F200010878013000F076
:1037A00001000870FFE7FFE7FFE7FFE7FFE7FFE73C
:1037B000FFE7FFE7FFE7FFE7FFE7FFE71EB080BD9A
:1037C00080B540F2A810C2F20000407978B1FFE75E
:1037D00040F2A810C2F2000000214171016840F2DD
:1037E0003060C2F20000422203F004FEFFE780BD19
:1037F00080B540F23060C2F200000268D16841F04A
:103800001001D16040F2A811C2F200010968422201
:1038100003F0F0FD80BD000080B582B001908DF80E
:10382000031001999DF8032040F23060C2F20000BD
:103830000A2303F013FE02B080BD0000FFE7FEE79D
:1038400080B540F2B830C2F2000000F0EFFD80BD5C
:1038500080B540F28440C2F2000000F0E7FD80BD78
:1038600080B540F2FC30C2F2000000F0DFFD80BD08
:1038700080B540F24040C2F2000000F0D7FD80BDAC
:1038800084B003900291019200930398C16B026C83
:1038900001209040486000980399096848600398A7
:1038A0004068102809D1FFE70198039909688860EA
:1038B000029803990968C86008E0029803990968AA
:1038C0008860019803990968C860FFE704B07047F1
:1038D0007047000080B586B040F20000C2F20000E0
:1038E000059001680091406808F084FB41F27B423A
:1038F000C4F2AE7247F6E123C3F6947308F058F9A8
:10390000024600980192029108F074FB0246019869
:1039100003920A46029904924FF0C0424FF6E12307
:10392000C4F2350308F044F9039A049B07F09AFEA9
:1039300007F066FE0599086006B080BD80B588B0C6
:1039400000200490ADF81E00ADF81C0040F62402E3
:10395000C4F200021168ADF81E102421C4F2000167
:103960000B685B42ADF81C3010600860BDF91E00AA
:1039700064210091484308F0C7F84FF033320192B8
:1039800043F23333C4F22303029307F027FF049A70
:103990000023C4F22603039307F020FF049A0023B8
:1039A000C4F21003059307F019FF07F029FE0099F0
:1039B00040F20002C2F2000206925060BDF91C0003
:1039C000484308F0A1F8019A029B07F007FF039B08
:1039D000049A07F003FF049A059B07F0FFFE07F027
:1039E0000FFE0699886008B080BD000080B584B0E5
:1039F00040F21050C2F2000002903C21019102F00E
:103A0000EFFB019940F25850C2F20000039002F01F
:103A1000E7FB029802F0B0F9039802F0ADF904B0A8
:103A200080BD000081B0EFF3108072B60090FFE718
:103A3000FEE7000080B586B0049000208DF80F00EE
:103A40000190FFE7049890F82400012804D1FFE7D3
:103A500002208DF81700AEE00499012081F82400BF
:103A6000FFE7FFE70498FEF7A7FF8DF80F00049823
:103A7000FFF742F88DF80F009DF80F00002840F086
:103A80008F80FFE70498806A40F0020020F488509D
:103A90000499886240F2A800C2F200000068009019
:103AA000022001F079F901460098B0FBF1F04000E6
:103AB0000190FFE7019820B1FFE7019801380190DC
:103AC000F8E704980168886840F00800886001F011
:103AD000A5F80290FFE704980068806800070028B6
:103AE00022D5FFE701F09AF80299401A0B281AD361
:103AF000FFE70498006880680007002812D5FFE7F8
:103B00000498806A40F0100020F002000499886256
:103B1000FFE70499002081F82400FFE701208DF8D9
:103B2000170048E0FFE7D6E704980168886840F08E
:103B30000400886001F072F80290FFE704980068C2
:103B400080684007002822D5FFE701F067F8029956
:103B5000401A0B281AD3FFE70498006880684007D2
:103B6000002812D5FFE70498806A40F0100020F08A
:103B7000020004998862FFE70499002081F824007C
:103B8000FFE701208DF8170015E0FFE7D6E704985E
:103B9000806A40F0010020F0020004998862FFE78B
:103BA000FFE70499002081F82400FFE79DF80F004B
:103BB0008DF81700FFE79DF8170006B080BD0000E4
:103BC00085B00390029100208DF807000090FFE778
:103BD000039890F82400012804D1FFE702208DF813
:103BE0001300C3E00399012081F82400FFE7FFE7F9
:103BF00002984068062812D8FFE703980068406BD7
:103C0000029A1168526802EB8202053A1F23934020
:103C100098439140084303990968486329E0029852
:103C200040680C2812D8FFE703980068006B029ADE
:103C30001168526802EB8202233A1F239340984393
:103C40009140084303990968086311E003980068EC
:103C5000C06A029A1168526802EB8202413A1F233D
:103C6000934098439140084303990968C862FFE76D
:103C7000FFE7029800680A2812D3FFE7039800685C
:103C8000C06802990A68896802EB42021E3A07235B
:103C9000934098439140084303990968C86010E035
:103CA00003980068006902990A68896802EB420279
:103CB000072393409843914008430399096808619A
:103CC000FFE702980068102805D0FFE70298006817
:103CD000112840D1FFE70398006842F20041C4F286
:103CE000010188422DD1FFE7039800688068000237
:103CF000002825D4FFE703980168886840F4000095
:103D0000886002980068102819D1FFE740F2A800E7
:103D1000C2F2000000684DF68361C4F21B31A0FBC3
:103D20000110800C00EB800040000090FFE700983D
:103D300020B1FFE7009801380090F8E7FFE7FFE7C0
:103D400008E00399886A40F02000886201208DF81D
:103D50000700FFE7FFE7FFE70399002081F8240051
:103D6000FFE79DF807008DF81300FFE79DF81300AB
:103D700005B0704781B0009001B0704781B00090ED
:103D800001B0704781B0009001B0704780B588B035
:103D9000069000208DF8170004900390029006987A
:103DA00020B9FFE701208DF81F00F4E00698806835
:103DB00030B1FFE70698007D08B1FFE7FFE7FFE7B6
:103DC0000698806A50B9FFE706990020C8620699F4
:103DD00081F82400069800F0E3F8FFE70698FEF764
:103DE000EBFD8DF817000698806AC006002800F1E8
:103DF000C480FFE79DF81700002840F0BE80FFE771
:103E00000698806A40F0020020F488500699886283
:103E100006994868CA691043097B40EA4101039842
:103E200008430390069881680120B1F5807F0190D6
:103E300008D0FFE7069880680138B0FA80F04009A2
:103E40000190FFE701990498CA0740F48071002AA5
:103E500018BF084604900698007D01281ED1FFE790
:103E60000698007B70B9FFE7069881694EF2000062
:103E7000CFF6FF7000EB41300499084340F4006036
:103E800004900AE00699886A40F02000886206994A
:103E9000C86A40F00100C862FFE7FFE706980068C3
:103EA000406820F46940049908430699096848600D
:103EB0000698006880684FF2FD71CFF6E171084006
:103EC000039908430699096888600698816801206B
:103ED000B1F5807F009008D0FFE706988068013830
:103EE000B0FA80F040090090FFE7009800F0010070
:103EF000002818BF4FF48070B0F5807F09D1FFE72C
:103F0000069801690020CFF6F07000EB0150029096
:103F1000FFE706980068C06A20F470000299084321
:103F200006990968C86206980068806840F6FE61D4
:103F3000CFF61F710840039988420CD1FFE706991C
:103F40000020C8620698806A40F0010020F002005C
:103F50000699886210E00698806A40F0100020F010
:103F60000200069988620699C86A40F00100C8629A
:103F700001208DF81700FFE708E00699886A40F0F5
:103F80001000886201208DF81700FFE79DF81700E8
:103F90008DF81F00FFE79DF81F0008B080BD0000EE
:103FA00080B588B00790002006900590049003909B
:103FB0000798006842F20041C4F20101884252D1E0
:103FC000FFE7FFE741F21800C4F20200016841F484
:103FD00000710160006800F4007002900298FFE731
:103FE000FFE741F21800C4F20200016841F0040149
:103FF0000160006800F0040001900198FFE71020C4
:1040000003900320049040F60000C4F2010003A9CD
:1040100000F030FC40F2B830C2F2000000900821FD
:10402000C4F2020101600021416081608022C2600F
:104030004FF4807202614FF48062426120228261FB
:10404000C16100F037FB18B1FFE7FFF7EBFCFFE7BA
:10405000FFE7079840F2B831C2F200010162079809
:104060004862FFE7FFE708B080BD000080B586B07A
:1040700004900391029200208DF8070004980068D4
:1040800042F20041C4F20101884209D0FFE70498DE
:10409000006842F60001C4F20101884209D1FFE73D
:1040A00042F20440C4F20100006800F47020009065
:1040B00002E000200090FFE70098002840F0DC803C
:1040C000FFE7FFE7049890F82400012804D1FFE7F8
:1040D00002208DF81700D8E00499012081F824000F
:1040E000FFE7FFE70498FEF707FD8DF807009DF84E
:1040F0000700002840F0B880FFE70498806A40F489
:10410000807040F6016188430499886204980068D1
:1041100042F60001C4F20101884209D1FFE742F2F0
:104120000440C4F20100006810F4702F03D018E0BE
:104130000020B0B9FFE70499886A20F480108862F3
:104140000498006840684005002809D5FFE70498F6
:10415000806A40F4805020F4005004998862FFE7A0
:104160002CE00499886A40F4801088620498006802
:1041700042F20041C4F20101884209D0FFE70498ED
:10418000006842F60001C4F20101884209D1FFE74C
:1041900042F20440C4F2010000684005002803D444
:1041A0000BE0012048B9FFE70498806A40F4805092
:1041B00020F4005004998862FFE7FFE70498806AC2
:1041C000C004002806D5FFE70499C86A20F006005D
:1041D000C86203E004990020C862FFE7FFE7049982
:1041E000002081F82400FFE70498016A42F63D2090
:1041F000C0F6000088620498016A42F6E120C0F629
:104200000000C8620498016A42F6B520C0F60000BA
:104210000863049801686FF0020008600498016860
:10422000886840F48070886004980168006A4C31A6
:10423000039A029B00F096FA04980068806800F4E4
:104240006020B0F5602F07D1FFE704980168886807
:1042500040F4A000886006E004980168886840F493
:1042600080108860FFE706E0FFE70499002081F8EE
:104270002400FFE7FFE703E001208DF80700FFE7D8
:104280009DF807008DF81700FFE79DF8170006B0AE
:1042900080BD000083B0019000208DF803000198DC
:1042A00090F8210002280DD0FFE7019904208863CF
:1042B000FFE70199002081F82000FFE701208DF839
:1042C0000B0021E001980168086820F00E000860EA
:1042D00001980168086820F0010008600198C16B2E
:1042E000026C012090404860FFE70199012081F8AD
:1042F0002100FFE70199002081F82000FFE79DF8E9
:1043000003008DF80B00FFE79DF80B0003B070472A
:1043100080B588B0079000208DF81B00079890F8B2
:104320002100022807D0FFE70799042088630120B5
:104330008DF81B0076E007980168086820F00E00F1
:10434000086007980168086820F001000860079875
:1043500000680821C4F20201884203D1FFE701206E
:10436000059047E0079800681C21C4F202018842CA
:1043700003D1FFE71020049039E00798006830214E
:10438000C4F20201884204D1FFE74FF48070039029
:104390002AE0079800684421C4F20201884204D14F
:1043A000FFE74FF4805002901BE007980068582107
:1043B000C4F20201884204D1FFE74FF4803001903B
:1043C0000CE0079801686C22C4F202024FF0807082
:1043D000914208BF4FF480100190FFE701980290CE
:1043E000FFE702980390FFE703980490FFE7049823
:1043F0000590FFE705980421C4F2020108600799BF
:10440000012081F82100FFE70799002081F82000B2
:10441000FFE70798406B20B1FFE70798416B88479B
:10442000FFE7FFE79DF81B0008B080BD80B58EB0A8
:104430000D900D98C06B00680C900D980068006896
:104440000B900C980D99096CC8404007002875D551
:10445000FFE79DF82C00400700286FD5FFE70D9877
:10446000006800688006002807D4FFE70D980168FF
:10447000086820F004000860FFE70D980068082134
:10448000C4F20201884203D1FFE704200A9047E00A
:104490000D9800681C21C4F20201884203D1FFE795
:1044A0004020099039E00D9800683021C4F20201E3
:1044B000884204D1FFE74FF4806008902AE00D980D
:1044C00000684421C4F20201884204D1FFE74FF49E
:1044D000804007901BE00D9800685821C4F202014B
:1044E000884204D1FFE74FF4802006900CE00D983D
:1044F00001686C22C4F202024FF08060914208BF52
:104500004FF480000690FFE706980790FFE70798B2
:104510000890FFE708980990FFE709980A90FFE7DD
:104520000A980421C4F2020108600D98C06A20B103
:10453000FFE70D98C16A8847FFE7B8E00C980D992E
:10454000096CC8408007002840F18080FFE79DF893
:104550002C008007002879D5FFE70D9800680068D7
:10456000800600280BD4FFE70D980168086820F04A
:104570000A0008600D99012081F82100FFE70D98DD
:1045800000680821C4F20201884203D1FFE702203B
:10459000059047E00D9800681C21C4F20201884292
:1045A00003D1FFE72020049039E00D980068302106
:1045B000C4F20201884204D1FFE74FF40070039077
:1045C0002AE00D9800684421C4F20201884204D117
:1045D000FFE74FF4005002901BE00D98006858214F
:1045E000C4F20201884204D1FFE74FF40030019089
:1045F0000CE00D9801686C22C4F202024FF00070CA
:10460000914208BF4FF400100190FFE7019802901B
:10461000FFE702980390FFE703980490FFE70498F0
:104620000590FFE705980421C4F202010860FFE746
:104630000D99002081F82000FFE70D98806A20B1D5
:10464000FFE70D98816A8847FFE72FE00C980D99E6
:10465000096CC8400007002827D5FFE79DF82C000B
:104660000007002821D5FFE70D980168086820F0B1
:104670000E0008600D98C26B016C012000FA01F178
:1046800051600D9988630D9981F82100FFE70D991C
:10469000002081F82000FFE70D98006B20B1FFE7B4
:1046A0000D98016B8847FFE7FFE7FFE7FFE70EB0D4
:1046B00080BD000083B0019000200090019820B9D7
:1046C000FFE701208DF80B0047E0019908684FF6DD
:1046D000F872CBF6FD7210444CF6CD42CCF6CC42CB
:1046E000A0FB02026FF0030000EA92000864019947
:1046F0000020C4F20200C8630199022081F8210061
:104700000198006800680090009843F6F0718843B3
:10471000009001994868D1F808C0CB680A6940EA5E
:104720000C00184310434A6910438A691043C96951
:1047300001430098084300900098019909680860B7
:10474000019900208863019A012182F821100199C2
:1047500081F820008DF80B00FFE79DF80B0003B0F7
:104760007047000080B586B00490039102920193D7
:1047700000208DF80300FFE7049890F8200001283E
:1047800004D1FFE702208DF817004CE004990120C6
:1047900081F82000FFE7FFE7049890F82100012846
:1047A00032D1FFE70499022081F82100049900200A
:1047B000886304980168086820F001000860049884
:1047C0000399029A019BFFF75BF80498C06A38B11D
:1047D000FFE704980168086840F00E0008600CE0EC
:1047E00004980168086820F00400086004980168D3
:1047F000086840F00A000860FFE70498016808684C
:1048000040F00100086009E0FFE70499002081F80A
:104810002000FFE702208DF80300FFE79DF803006A
:104820008DF81700FFE79DF8170006B080BD000067
:1048300080B584B0039000F0F1F9029003980190E4
:104840000198013048B1FFE740F2C110C2F2000008
:104850000178019808440190FFE7FFE700F0DEF9D6
:104860000299401A0199884201D2FFE7F6E704B0A5
:1048700080BD000090B00F900E9100200D90099027
:10488000FFE70E9800680D99C840002800F07F816E
:10489000FFE70D99012088400C900E9800680C9954
:1048A00008400B900B980C99884240F06C81FFE710
:1048B0000E9840680590002851D0FFE70598012820
:1048C0003AD0FFE7059802283FD0FFE70598032874
:1048D0005FD0FFE70598112832D0FFE7059812282E
:1048E00038D0FFE705980021C1F21101884236D087
:1048F000FFE705980021C1F2120188422FD0FFE79F
:1049000005980021C1F22101884228D0FFE70598CF
:104910000021C1F22201884221D0FFE70598002141
:10492000C1F2310188421AD0FFE705980021C1F297
:104930003201884213D02FE00E98C06809902CE015
:104940000E98C0680430099027E00E98C0680830BF
:10495000099022E00E98C0680C3009901DE00E9876
:10496000806818B9FFE70420099011E00E9880686C
:10497000012806D1FFE7082009900C980F990861DB
:1049800005E0082009900C980F994861FFE7FFE7C0
:1049900003E00020099000E0FFE70B98FF2803D810
:1049A000FFE70F98049003E00F9804300490FFE7AE
:1049B000049808900B98FF2804D8FFE70D98800012
:1049C000039006E00D996FF01F0000EB810003904B
:1049D000FFE70398079008980068079A0F21914015
:1049E0008843099991400843089908600E98C07956
:1049F000C006002840F1C680FFE7FFE741F218003B
:104A0000C4F20200016841F001010160006800F099
:104A1000010006900698FFE70D9820F0030008219A
:104A2000C4F2010140580A900D9800F00300810083
:104A30000F2000FA01F10A9888430A900F9840F677
:104A40000001C4F20101884203D1FFE70020029077
:104A500026E00F9840F60041C4F20101884203D1DC
:104A6000FFE70120019018E00F9841F20001C4F225
:104A70000101884203D1FFE7022000900AE00F996C
:104A800041F20042C4F201020420914208BF032017
:104A90000090FFE700980190FFE701980290FFE780
:104AA00002980D9901F00301890000FA01F10A98BA
:104AB00008430A900A980D9921F003010822C4F2D4
:104AC000010288500E988079C006002809D5FFE7BA
:104AD0000B9A40F20841C4F20101086810430860D3
:104AE00008E00B9A40F20841C4F2010108689043C3
:104AF0000860FFE70E9880798006002809D5FFE757
:104B00000B9A40F20C41C4F201010868104308609E
:104B100008E00B9A40F20C41C4F20101086890438E
:104B20000860FFE70E9880798007002809D5FFE725
:104B30000B9A40F20441C4F2010108681043086076
:104B400008E00B9A40F20441C4F201010868904366
:104B50000860FFE70E988079C00748B1FFE70B9A1D
:104B600040F20041C4F2010108681043086008E007
:104B70000B9A40F20041C4F20101086890430860BA
:104B8000FFE7FFE7FFE70D9801300D9079E610B0E1
:104B90007047000082B00190ADF802100198806863
:104BA000BDF80210084204D0FFE701208DF8010093
:104BB00003E000208DF80100FFE79DF8010002B03E
:104BC0007047000083B00290ADF806100298C068EC
:104BD0000090009ABDF8060002EA0001904340EA06
:104BE00001400299086103B07047000082B0019053
:104BF000ADF802108DF801209DF8010028B1FFE703
:104C0000BDF802000199086105E0BDF8020000044A
:104C100001990861FFE702B07047000040F2786038
:104C2000C2F200000068704740F2C110C2F20000FA
:104C3000027840F27861C2F200010868104408600E
:104C40007047000080B542F20001C4F2020108681A
:104C500040F010000860032000F096F80F2000F0EC
:104C600005F800F03BF8002080BD000080B582B060
:104C7000009040F2A800C2F20000006840F2C111AA
:104C8000C2F200010A784FF47A71B1FBF2F1B0FB85
:104C9000F1F000F023FF20B1FFE701208DF80700BD
:104CA00018E000980F280DD8FFE700994FF0FF306B
:104CB000002200F04FF8009840F2C411C2F2000147
:104CC000086003E001208DF8070003E000208DF864
:104CD0000700FFE79DF8070002B080BD83B0FFE743
:104CE00041F21800C4F20200016841F001010160C4
:104CF000006800F0010002900298FFE7FFE741F230
:104D00001C00C4F20200016841F08051016000689B
:104D100000F0805001900198FFE7FFE70421C4F202
:104D2000010108680090009820F0E0600090009871
:104D300040F00070009000980860FFE703B07047F3
:104D400080B582B08DF807009DF9070005F06EFE72
:104D500002B080BD80B586B08DF817000491039233
:104D60000020029005F07AFE02909DF91700019054
:104D700002980499039A03F053FE0146019805F046
:104D800075FE06B080BD000080B582B0019001982C
:104D900005F08EFE02B080BD80B588B0079000207F
:104DA00006900590049003900290079801900128C6
:104DB00066D0FFE70198022800F0A580FFE7019880
:104DC000102840F0B080FFE741F20400C4F2020076
:104DD0000068039041F20000C4F202000068C001C4
:104DE00000284CD5FFE70398C0F383414CF60C2014
:104DF000C0F60000405C04909DF80E00C007F0B1C2
:104E0000FFE741F20400C4F202000068C0F3404131
:104E10004CF61C20C0F60000405C06909DF80E0089
:104E2000C00758B1FFE7069941F20020C0F27A00AE
:104E3000B0FBF1F0049948430590FFE707E00498C0
:104E400040F60011C0F23D0148430590FFE741F2F2
:104E50000400C4F2020000684002002803D5FFE706
:104E6000059802900AE0059840004AF6AB21CAF680
:104E7000AA21A0FB011040080290FFE7FFE753E0E2
:104E800041F22000C4F2020000680390039800F48D
:104E90004070B0F5807F0AD1FFE79DF80C008007D5
:104EA000002804D5FFE74FF4004002902AE0039861
:104EB00000F44070B0F5007F0DD1FFE741F224000F
:104EC000C4F2020000688007002804D5FFE749F615
:104ED0004040029015E0039800F44070B0F5407F28
:104EE0000DD1FFE741F20000C4F202000068800328
:104EF000002804D5FFE74FF22440029000E0FFE7CE
:104F0000FFE7FFE710E000F03BFA41F20401C4F2D2
:104F10000201096801F44042022101EB5231B0FB69
:104F2000F1F0029000E0FFE7029808B080BD0000B9
:104F300080B586B004900020039002900498007819
:104F4000C007002800F0AC80FFE700208DF80700C4
:104F500041F21C00C4F202000068C000002813D413
:104F6000FFE7FFE741F21C00C4F20200016841F0D4
:104F700080510160006800F0805000900098FFE7C9
:104F800001208DF80700FFE747F20000C4F200009F
:104F90000068C005002822D4FFE747F20001C4F2F0
:104FA0000001086840F480700860FFF737FE039046
:104FB000FFE747F20000C4F200000068C0050028C7
:104FC0000CD4FFE7FFF72AFE0399401A652804D3A3
:104FD000FFE703208DF817008AE0EAE7FFE741F2D8
:104FE0002000C4F20200006800F4407002900298B1
:104FF000E0B3FFE702980499496801F440718842E0
:1050000034D0FFE741F22001C4F20201086820F425
:105010004070029040F24042C4F2422201201060EF
:1050200000201060029808609DF80800C007E0B1F9
:10503000FFE7FFF7F3FD0390FFE741F22000C4F222
:1050400002000068800700280ED4FFE7FFF7E6FDA6
:105050000399401A41F28931884204D3FFE70320C3
:105060008DF8170044E0E8E7FFE7FFE741F2200191
:10507000C4F20201086820F44070049A5268104398
:1050800008609DF80700012809D1FFE741F21C01E3
:10509000C4F20201086820F080500860FFE7FFE7D3
:1050A00004980078800700280CD5FFE741F204013E
:1050B000C4F20201086820F44040049A9268104348
:1050C0000860FFE704980078C00600280CD5FFE7C9
:1050D00041F20401C4F20201086820F48000049A3D
:1050E000D26810430860FFE700208DF81700FFE743
:1050F0009DF8170006B080BD80B584B00290019184
:10510000029820B9FFE701208DF80F001BE10198FC
:1051100042F20001C4F20201096801F0070188426D
:1051200016D9FFE742F20000C4F20200016821F044
:105130000701019A11430160006800F0070001991E
:10514000884204D0FFE701208DF80F00FBE0FFE765
:1051500002980078800700282AD5FFE70298007897
:105160004007002809D5FFE741F20401C4F202011B
:10517000086840F4E0600860FFE7029800780007E4
:10518000002809D5FFE741F20401C4F202010868D2
:1051900040F460500860FFE741F20401C4F20201EC
:1051A000086820F0F000029A926810430860FFE758
:1051B00002980078C007002860D0FFE70298406896
:1051C00001280ED1FFE741F20000C4F2020000689E
:1051D0008003002804D4FFE701208DF80F00B2E01F
:1051E00021E00298406802280ED1FFE741F200005A
:1051F000C4F2020000688001002804D4FFE7012007
:105200008DF80F009FE00DE041F20000C4F20200B3
:1052100000688007002804D4FFE701208DF80F0004
:1052200091E0FFE7FFE741F20401C4F202010868E0
:1052300020F00300029A526810430860FFF7EEFC6A
:105240000090FFE741F20400C4F20200006800F0A1
:105250000C0002994968B0EB810F0ED0FFE7FFF711
:10526000DDFC0099401A41F28931884204D3FFE7FE
:1052700003208DF80F0066E0E4E7FFE7019842F2B3
:105280000001C4F20201096801F00701884216D248
:10529000FFE742F20000C4F20200016821F00701BA
:1052A000019A11430160006800F0070001998842EB
:1052B00004D0FFE701208DF80F0044E0FFE70298DB
:1052C0000078400700280CD5FFE741F20401C4F242
:1052D0000201086820F4E060029AD2681043086076
:1052E000FFE702980078000700280DD5FFE741F29C
:1052F0000401C4F20201086820F46050029A1269A5
:1053000040EAC2000860FFE700F04CF841F20401F7
:10531000C4F202010968C9B20A094CF62811C0F6A4
:105320000001895CC84040F2A801C2F20001086097
:1053300040F2C410C2F200000068FFF797FC0020A2
:105340008DF80F00FFE79DF80F0004B080BD00004E
:1053500040F2A800C2F200000068704780B5FFF775
:10536000F7FF41F20401C4F202010968C1F302220D
:105370004CF63811C0F60001895CC84080BD0000C1
:1053800080B5FFF7E5FF41F20401C4F202010968AC
:10539000C1F3C2224CF63811C0F60001895CC84046
:1053A00080BD000086B0002005900490039002901C
:1053B000019041F20400C4F20200006805900598D3
:1053C00000F00C000146009100283FD0FFE7009854
:1053D000042804D0FFE70098082806D037E041F2FF
:1053E0000020C0F27A00019037E00598C0F38341B5
:1053F0004CF61E20C0F60000405C02909DF816009E
:10540000C007C0B1FFE741F20400C4F20200006827
:10541000C0F340414CF62E20C0F60000405C0490E2
:10542000029841F20021C0F27A0148430499B0FB8E
:10543000F1F0039007E0029840F60011C0F23D0140
:1054400048430390FFE70398019006E0FFE741F22D
:105450000020C0F27A000190FFE7019806B0704783
:1054600080B586B00490049820B9FFE701208DF83C
:1054700017002EE304980078C007002800F0AE80E3
:10548000FFE741F20400C4F20200006800F00C00E3
:10549000042813D0FFE741F20400C4F202000068C0
:1054A00000F00C0008281BD1FFE741F20400C4F211
:1054B00002000068C003002812D5FFE741F2000097
:1054C000C4F2020000688003002808D5FFE70498B2
:1054D000406820B9FFE701208DF81700F9E27CE071
:1054E000FFE704984068B0F5803F09D1FFE741F23B
:1054F0000001C4F20201086840F48030086032E024
:105500000498406868B9FFE741F20001C4F2020163
:10551000086820F480300860086820F48020086063
:1055200020E004984068B0F5A02F0DD1FFE741F2CC
:105530000001C4F20201086840F480200860086895
:1055400040F4803008600CE041F20001C4F2020136
:10555000086820F480300860086820F48020086023
:10556000FFE7FFE7FFE7FFE704984068D0B1FFE7F8
:10557000FFF754FB0390FFE741F20000C4F2020082
:105580000068800300280CD4FFE7FFF747FB03996E
:10559000401A652804D3FFE703208DF8170098E22E
:1055A000EAE719E0FFF73AFB0390FFE741F200005A
:1055B000C4F202000068800300280CD5FFE7FFF763
:1055C0002DFB0399401A652804D3FFE703208DF8CB
:1055D00017007EE2EAE7FFE7FFE7FFE704980078BD
:1055E0008007002840F18D80FFE741F20400C4F2FB
:1055F0000200006810F00C0F13D0FFE741F2040026
:10560000C4F20200006800F00C00082829D1FFE76E
:1056100041F20400C4F202000068C003002820D454
:10562000FFE741F20000C4F2020000688007002892
:1056300009D5FFE704980069012804D0FFE701209D
:105640008DF8170045E241F20001C4F2020108683A
:1056500020F0F800049A526940EAC2000860FFE7AF
:105660004EE00498006958B3FFE70021C4F24221DC
:1056700001200860FFF7D2FA0390FFE741F2000033
:10568000C4F202000068800700280CD4FFE7FFF78F
:10569000C5FA0399401A032804D3FFE703208DF8C5
:1056A000170016E2EAE741F20001C4F202010868BD
:1056B00020F0F800049A526940EAC20008601EE037
:1056C0000021C4F2422100200860FFF7A7FA0390EE
:1056D000FFE741F20000C4F20200006880070028E2
:1056E0000CD5FFE7FFF79AFA0399401A032804D371
:1056F000FFE703208DF81700EBE1EAE7FFE7FFE79C
:10570000FFE7049800780007002848D5FFE70498D1
:10571000806918B3FFE740F28041C4F242210120C2
:105720000860FFF77BFA0390FFE741F22400C4F220
:1057300002000068800700280CD4FFE7FFF76EFA2C
:105740000399401A032804D3FFE703208DF81700BC
:10575000BFE1EAE7012003F09BFE1FE040F2804139
:10576000C4F2422100200860FFF758FA0390FFE7D7
:1057700041F22400C4F202000068800700280CD522
:10578000FFE7FFF74BFA0399401A032804D3FFE71A
:1057900003208DF817009CE1EAE7FFE7FFE7049894
:1057A00000784007002840F1D880FFE700208DF8FE
:1057B000070041F21C00C4F202000068C00000288B
:1057C00013D4FFE7FFE741F21C00C4F202000168B6
:1057D00041F080510160006800F080500090009816
:1057E000FFE701208DF80700FFE747F20000C4F251
:1057F00000000068C005002822D4FFE747F200013E
:10580000C4F20001086840F480700860FFF706FAEF
:105810000390FFE747F20000C4F200000068C005F3
:1058200000280CD4FFE7FFF7F9F90399401A65281F
:1058300004D3FFE703208DF817004AE1EAE7FFE70A
:10584000FFE70498C068012809D1FFE741F2200171
:10585000C4F20201086840F00100086031E00498D9
:10586000C06868B9FFE741F22001C4F2020108688C
:1058700020F001000860086820F0040008601FE0C4
:105880000498C06805280DD1FFE741F22001C4F259
:105890000201086840F004000860086840F0010058
:1058A00008600CE041F22001C4F20201086820F017
:1058B00001000860086820F004000860FFE7FFE7C7
:1058C000FFE7FFE70498C068E0B1FFE7FFF7A6F93C
:1058D0000390FFE741F22000C4F202000068800755
:1058E00000280ED4FFE7FFF799F90399401A41F217
:1058F0008931884204D3FFE703208DF81700E8E0E0
:10590000E8E71BE0FFF78AF90390FFE741F2200088
:10591000C4F202000068800700280ED5FFE7FFF7F9
:105920007DF90399401A41F28931884204D3FFE797
:1059300003208DF81700CCE0E8E7FFE79DF80700AB
:10594000012809D1FFE741F21C01C4F202010868F5
:1059500020F080500860FFE7FFE70498C069002846
:1059600000F0B380FFE741F20400C4F202000068D7
:1059700000F00C00082800F08280FFE70498C0695E
:1059800002285CD1FFE76021C4F2422100200860B8
:10599000FFF744F90390FFE741F20000C4F2020070
:1059A0000068800100280CD5FFE7FFF737F903995D
:1059B000401A032804D3FFE703208DF8170088E07E
:1059C000EAE70498006AB0F5803F0CD1FFE741F2A6
:1059D0000401C4F20201086820F40030049A9268BD
:1059E00010430860FFE741F20401C4F202010868B5
:1059F00020F47410049B1A6A5B6A1A43104308600F
:105A00006021C4F2422101200860FFF707F90390EA
:105A1000FFE741F20000C4F20200006880010028A4
:105A20000CD4FFE7FFF7FAF80399401A032804D3D0
:105A3000FFE703208DF817004BE0EAE71EE0602146
:105A4000C4F2422100200860FFF7E8F80390FFE766
:105A500041F20000C4F202000068800100280CD569
:105A6000FFE7FFF7DBF80399401A032804D3FFE7A9
:105A700003208DF817002CE0EAE7FFE724E0049804
:105A8000C069012804D1FFE701208DF8170020E04C
:105A900041F20400C4F2020000680290029800F48F
:105AA00080300499096A884208D1FFE7029800F41F
:105AB00070100499496A884204D0FFE701208DF8EC
:105AC000170006E0FFE7FFE7FFE700208DF817006B
:105AD000FFE79DF8170006B080BD000080B582B0DA
