:03000000020003F8
:0C000300787FE4F6D8FD75810D02004AFC
:1000F000750DFFC290D291D292D293C2947580FFB7
:1001000012008F8F0DE50DF460F6E50DB40105B218
:1001100080120134E50DB40205B281120134E50DFF
:10012000B40305B282120134E50DB404D3B28312D4
:04013000013480CC4A
:09015000010C000108FF010B0085
:10008F00C2A3D2A4D2A5D2A6D2A785090A850809F0
:10009F00050BE50CB4010330A40930A50630A60307
:1000AF0020A72B20A405750801801620A50575082B
:1000BF0002800E20A605750803800620A703750889
:1000CF0004E50B64037019F50BF50CAF082230A48F
:1000DF000F30A50C30A60930A706750C01E4F50BFF
:0100EF0022EE
:0D013400007F047E817D77DDFEDEFCDFFABA
:01014100229B
:0D014200007F027E677D93DDFEDEFCDFFAAC
:01014F00228D
:09015A00007F027EC7DEFEDFFC1F
:010163002279
:080164007F5A7EA3DEFEDFFCE2
:01016C002270
:05016D00007F14DFFE1D
:01017200226A
:10000F000200F0E493A3F8E493A34003F68001F217
:10001F0008DFF48029E493A3F85407240CC8C333F2
:10002F00C4540F4420C8834004F456800146F6DFC1
:10003F00E4800B0102040810204080900150E47E00
:10004F00019360BCA3FF543F30E509541FFEE493B6
:10005F00A360010ECF54C025E060A840B8E493A37D
:10006F00FAE493A3F8E493A3C8C582C8CAC583CAA8
:10007F00F0A3C8C582C8CAC583CADFE9DEE780BE60
:0101590000A5
:00000001FF
