:1005E600C294D293120619900609E493F5521204A6
:0305F6007A80FB0D
:03000B000205A249
:1005A200C0E0C0F0C083C082C0D075D000C000C01F
:1005B20001C002C003C004C005C006C007758CFCA0
:1005C200758A661204ED12025AD007D006D005D001
:1005D20004D003D002D001D000D0D0D082D083D0BA
:0405E200F0D0E03243
:1005F900313233263435362537383928301B0D2723
:10054E00103201010101010101010101010101014D
:10055E000101100801010101010101010101010167
:10056E0001010101011800041900000000041D0022
:10057E000000000121001022FFFFFFFFFFFFFFFF21
:08058E00FFFFFFFFFFFFFFFF6D
:10047A00E4F542E4F543E54225E025E0243225434C
:10048A00F8E6FFE54225E025E024082543F8E6FEE4
:10049A006F603DEE6020E54225E025E024F9F58213
:1004AA00E43405F583E5822543F582E43583F58353
:1004BA00E493FF12014AE54225E025E02432254370
:1004CA00F8E6FFE54225E025E024082543F8A607DB
:1004DA000543E543C39404409D0542E542C39404A1
:0204EA0040913F
:0104EC0022ED
:02014A008F44E0
:10014C00E544C394304048E544D394395041E47FAE
:10015C000AFEFDFCAB20AA1FA91EA81D12000EA8AA
:10016C0004A905AA06AB07E54424D0FFE434FFFE3E
:10017C003395E0FDFCEB2FF520EA3EF51FE93DF54C
:10018C001EE83CF51DAF20AE1FAD1EFC020256E56D
:10019C0044B42622E4F51885201C851F1B851E1AE5
:1001AC00851D19F520F51FF51EF51DAF20AE1FADF1
:1001BC001EAC1D020256E544B42822751801852098
:1001CC001C851F1B851E1A851D19E4F520F51FF5CE
:1001DC001EF51DAF20AE1FAD1EAC1D806DE544B4E9
:1001EC000D4AE518701AE51C2520F51CE51B351F7A
:1001FC00F51BE51A351EF51AE519351DF51980198B
:10020C00C3E51C9520F51CE51B951FF51BE51A9500
:10021C001EF51AE519951DF519E4F520F51FF51EC7
:10022C00F51DAF1CAE1BAD1AAC19801EE544B41BFA
:10023C001CE4F520F51FF51EF51DF51CF51BF51A34
:0D024C00F519AF20AE1FAD1EAC1D1203341E
:010259002282
:10025A00E52125E025E02422F8E625E0FFA2A4E432
:10026A00334FFFE52125E025E02422F8A607E52102
:10027A0025E025E02423F8E625E0FFA2A5E4334F94
:10028A00FFE52125E025E02423F8A607E52125E05E
:10029A0025E02424F8E625E0FFA2A6E4334FFFE593
:1002AA002125E025E02424F8A607E52125E025E01C
:1002BA002425F8E625E0FFA2A7E4334FFFE5212530
:1002CA00E025E02425F8A607E4FFE52125E025E05E
:1002DA0024222FF8E6540FFE700EE52125E025E0D2
:1002EA0024322FF8E4F6800FBE0F0CE52125E02515
:1002FA00E024322FF876010FBF04CF0521E521C390
:10030A0094044003E4F521E52114600F14601114EC
:10031A00601324037013D2A0C2A322D2A3C2A222C2
:09032A00D2A2C2A122D2A1C2A0FC
:0103330022A7
:10060900C0F9A4B0999282F880908883C6A1868E99
:0B0596000652FFFFFFFFFFFF015100B6
:1004ED007580FFE55114601C14602514602E146096
:1004FD003714604024057048C292C291C2900551D4
:10050D0085528022C292C291D2900551855380228C
:10051D00C292D291C290055185548022C292D2913D
:10052D00D290055185558022D292C291C29005512B
:10053D0085568022D292C291D290E4F55185578092
:01054D00228B
:080334008F488E478D468C4571
:10033C00E4F54AFFFEFDFCAB48AA47A946A845C315
:10034C001201395018754A01AF48AE47AD46AC455D
:10035C0012012B8F488E478D468C458003E4F54A5D
:10036C00E4F549E47B0AFAF9F8AF48AE47AD46AC80
:10037C0045120099AF03744B2549F8A607AF48AE58
:10038C0047AD46AC45E47B0AFAF9F81200998F4860
:10039C008E478D468C450549E549B406C675490519
:1003AC00744B2549F8E6700576FFD549F3E54AB458
:1003BC000110C3E54964809485500774532549F8AE
:1003CC0076BFC3E549648094804016744B2549F888
:1003DC00E690060993FF74522549F8A60715498043
:0103EC00E12F
:0103ED0022ED
:10061900D2AF438901758CFC758A66D2A9D28C2226
:030000000203EE0A
:0C03EE00787FE4F6D8FD758157020435D5
:10000E00E88FF0A4CC8BF0A42CFCE98EF0A42CFC91
:10001E008AF0EDA42CFCEA8EF0A4CDA8F08BF0A40F
:10002E002DCC3825F0FDE98FF0A42CCD35F0FCEB6E
:10003E008EF0A4FEA9F0EB8FF0A4CFC5F02ECD3933
:0F004E00FEE43CFCEAA42DCE35F0FDE43CFC22A0
:10005D0075F008758200EF2FFFEE33FECD33CDCC5A
:10006D0033CCC58233C5829BED9AEC99E5829840DD
:10007D000CF582EE9BFEED9AFDEC99FC0FD5F0D6BA
:10008D00E4CEFBE4CDFAE4CCF9A88222B800C1B9E4
:10009D000059BA002DEC8BF084CFCECDFCE5F0CB22
:1000AD00F97818EF2FFFEE33FEED33FDEC33FCEB5B
:1000BD0033FB10D703994004EB99FB0FD8E5E4F916
:1000CD00FA227818EF2FFFEE33FEED33FDEC33FC03
:1000DD00C933C910D7059BE99A4007EC9BFCE99AF7
:1000ED00F90FD8E0E4C9FAE4CCFB2275F010EF2F3C
:1000FD00FFEE33FEED33FDCC33CCC833C810D7073C
:10010D009BEC9AE899400AED9BFDEC9AFCE899F876
:0E011D000FD5F0DAE4CDFBE4CCFAE4C8F92209
:0E012B00C3E49FFFE49EFEE49DFDE49CFC22E5
:10013900EB9FF5F0EA9E42F0E99D42F0E89C45F01C
:010149002293
:1003FA000205E6E493A3F8E493A34003F68001F22E
:10040A0008DFF48029E493A3F85407240CC8C33303
:10041A00C4540F4420C8834004F456800146F6DFD2
:10042A00E4800B010204081020408090054EE47E0F
:10043A00019360BCA3FF543F30E509541FFEE493C7
:10044A00A360010ECF54C025E060A840B8E493A38E
:10045A00FAE493A3F8E493A3C8C582C8CAC583CAB9
:10046A00F0A3C8C582C8CAC583CADFE9DEE780BE71
:0105A1000059
:00000001FF
