:03000000020003F8
:0C000300787FE4F6D8FD75811702004AF2
:100171000A09C0F9A4B0999282F880900114100183
:08018100152D01131E010800F9
:10018A005389F0438901C28D758CFC758A66D28CBD
:01019A002242
:10010C00E4F516F51712018A7580FF12008F308DF9
:10011C00FAC28D758CFC758A660517E51770020599
:10012C0016D394E8E516940340E1E4F516F51705AB
:10013C0013D3E513943B7480948040CFE4F51305FE
:10014C0015D3E515943B7480948040BFE4F51505F8
:10015C0014D3E51494177480948040AFE4F514F52F
:05016C0015F51380A64B
:10008F00D293C2947580FFE50814601A146021148E
:10009F00602814603514604C24057060C292C291C0
:1000AF00C290E513802CC292C291D290E5138012B8
:1000BF00C292D291C290E5158018C292D291D2907D
:1000CF00E51575F00A8424098010D292C291C2906E
:1000DF00E51475F00A84740925F0F8E6F58012012D
:1000EF00B7050822D292C291D290E51475F00A8416
:0C00FF002409F8E6F5801201B7E4F508CA
:01010B0022D1
:0D019B00007F047E817D77DDFEDEFCDFFA53
:0101A8002234
:0D01A900007F027E677D93DDFEDEFCDFFA45
:0101B6002226
:0901B700007F027EC7DEFEDFFCC2
:0101C000221C
:0801C1007F5A7EA3DEFEDFFC85
:0101C9002213
:0501CA00007F14DFFEC0
:0101CF00220D
:10000F0002010CE493A3F8E493A34003F68001F2FA
:10001F0008DFF48029E493A3F85407240CC8C333F2
:10002F00C4540F4420C8834004F456800146F6DFC1
:10003F00E4800B0102040810204080900171E47EDF
:10004F00019360BCA3FF543F30E509541FFEE493B6
:10005F00A360010ECF54C025E060A840B8E493A37D
:10006F00FAE493A3F8E493A3C8C582C8CAC583CAA8
:10007F00F0A3C8C582C8CAC583CADFE9DEE780BE60
:010189000075
:00000001FF
