:10024E00D280D281D282D283C294D293D292D291D0
:10025E00C290D2AF438901758CF8758ACDD2A9D2DE
:09026E008C12014F12022280F8EB
:03000B000201A44B
:1001A400C0E0C0F0C083C082C0D075D000C000C021
:1001B40001C002C003C004C005C006C007758CF8A6
:1001C400758ACD12000ED007D006D005D004D00316
:1001D400D002D001D000D0D0D082D083D0F0D0E0F3
:0101E40032E8
:1001E500102C0101010101010101010101010101C0
:1001F5000101100A010101010101010101010101D2
:1002050001010101011A00011B00101CFFFFFFFF86
:0C021500FFFFFFFFFFFFFFFFFFFFFFFFE9
:10014F00E4F508E4F509E50825E025E0240A25098A
:10015F00F8E6FFE50825E025E0242C2509F8E66FF1
:10016F006020EF6003120277E50825E025E0242CDC
:10017F002509F8E6FFE50825E025E0240A2509F81A
:10018F00A6070509E509C3940440BB0508E508C3A4
:04019F00940440AFD5
:0101A3002239
:1002770020A404753C012220A504753C022220A677
:0C02870004753C032220A703753C0422F0
:10022200E53CB40106E4F53CB28022E53CB40206AA
:10023200E4F53CB28122E53CB40306E4F53CB2822B
:0C02420022E53CB40405E4F53CB2832244
:10000E00E51B25E025E0241CF8E625E0FFA2A4E48C
:10001E00334FFFE51B25E025E0241CF8A607E51B62
:10002E0025E025E0241DF8E625E0FFA2A5E4334FE8
:10003E00FFE51B25E025E0241DF8A607E51B25E0BE
:10004E0025E0241EF8E625E0FFA2A6E4334FFFE5E7
:10005E001B25E025E0241EF8A607E51B25E025E07C
:10006E00241FF8E625E0FFA2A7E4334FFFE51B258A
:10007E00E025E0241FF8A607E4F51AE51B25E02588
:10008E00E0241C251AF8E6540FFF700FE51B25E03F
:10009E0025E0242C251AF8E4F68010BF0F0DE51B81
:1000AE0025E025E0242C251AF87601051AE51AB468
:0400BE0004C9C2A30C
:0100C200221B
:030000000200C338
:0C00C300787FE4F6D8FD75813C02010A4C
:1000CF0002024EE493A3F8E493A34003F68001F2F7
:1000DF0008DFF48029E493A3F85407240CC8C33332
:1000EF00C4540F4420C8834004F456800146F6DF01
:1000FF00E4800B01020408102040809001E5E47EAB
:10010F00019360BCA3FF543F30E509541FFEE493F5
:10011F00A360010ECF54C025E060A840B8E493A3BC
:10012F00FAE493A3F8E493A3C8C582C8CAC583CAE7
:10013F00F0A3C8C582C8CAC583CADFE9DEE780BE9F
:0102210000DC
:00000001FF
