:1005C200555000444F574E004C454654005249473F
:1005D200485400454E54455200455343003132338E
:0D05E200263435362537383928301B0D27D3
:10053D000156000157009000010101010101010167
:10054D0001010101010101010258000001350010F6
:10055D0036FFFFFFFFFFFFFFFFFFFFFFFFFFFFFF67
:10056D00FF1046010101010101010101010101011C
:03057D0001010178
:100680007F017E0012044BD2AF1206481204CA80CA
:01069000FB6E
:03000B000205816A
:10058100C0E0C0F0C083C082C0D075D000C000C040
:1005910001C002C003C004C005C006C00785568C57
:1005A10085578A120253D007D006D005D004D00354
:1005B100D002D001D000D0D0D082D083D0F0D0E012
:0105C1003207
:10044B00E4F50BF50AF509F508F50B750A107509B6
:10045B000EF508FCFDAB0BAA0AA909A80812003976
:10046B00E47BE87A03F9F81200C48F0B8E0A8D092E
:10047B008C08C3E4950BF50BE4950AF50A7401950A
:10048B0009F509E49508F508E50B2412F50BE4359D
:10049B000AF50AE43509F509E43508F508AF0BAEA2
:1004AB000AAD09FC78081201678F56850B575389E3
:0E04BB00F043890185568C85578AD2A9D28CD0
:0104C9002210
:10065C007580FFC290D291D295AF80C295EF20E702
:01066C00F697
:01066D00226A
:10069100AE0712065CC290C2918E80D295C295229D
:1006A100AE0712065CD290C2918E80D295C295227D
:10066E00ED7004AC078004EF2440FCEC4480FF02E4
:02067E000691E3
:1005EF008B208A21892212066EAB20AA21A9221202
:1005FF00000E60130522E5227002052114F9120086
:08060F000EFF1206A180E22299
:100648007F381206917F0C1206917F061206917F61
:040658000102069104
:0E0327008B208A2189228F268E258D248C23FF
:10033500E4F527F528E47B0AFAF9F8AF26AE25ADF2
:1003450024AC231200C4AF03AE27052774292EF869
:10035500A607AF26AE25AD24AC23E47B0AFAF9F84F
:100365001200C48F268E258D248C23E4FFFEFDFC10
:10037500AB26AA25A924A823D312015650B7E527F1
:100385002528F528AF271527D3EF64809480401DD5
:1003950074292527F8E62430FFAB200522E522AA9B
:1003A500217002052114F9EF12002780D7AB20AA8E
:0903B50021A922E4120027AF285F
:0103BE00221C
:0B0617008F1FC37410951FFBE4FDFF54
:1006220012066EAF031BEF60077F201206A180F354
:0106320022A5
:10025300E53525E025E02436F8E625E0FFA2A4E411
:10026300334FFFE53525E025E02436F8A607E535CD
:1002730025E025E02437F8E625E0FFA2A5E4334F87
:10028300FFE53525E025E02437F8A607E53525E029
:1002930025E02438F8E625E0FFA2A6E4334FFFE586
:1002A3003525E025E02438F8A607E53525E025E0E7
:1002B3002439F8E625E0FFA2A7E4334FFFE535250F
:1002C300E025E02439F8A607E4FFE53525E025E03D
:1002D30024362FF8E6540FFE700EE53525E025E0B1
:1002E30024002FF8E4F28010BE0F0DE53525E0253C
:1002F300E024002FF87401F20FBF04CE0535533507
:1003030003E53514600F1460111460132403701394
:10031300D2A0C2A322D2A3C2A222D2A2C2A122D21B
:03032300A1C2A0D4
:0103260022B4
:1004CA00E4F508E4F509E50825E025E02400250916
:1004DA00F8E2FFE50825E025E024462509F8E6FECE
:1004EA006F603DEE6020E50825E025E024DFF58217
:1004FA00E43405F583E5822509F582E43583F5833D
:10050A00E493FF12017AE50825E025E02400250995
:10051A00F8E2FFE50825E025E024462509F8A607C4
:10052A000509E509C39404409D0508E508C3940438
:02053A004091EE
:01053C00229C
:02017A008F0AEA
:10017C00E4F51FE50AC39430402BE50AD3943950BB
:10018C00247B007A00790BEF24D0FFE434FFFE339C
:10019C0095E0FDFC1203271206177B007A00790B01
:1001AC00E4FF1205EFE50A642670157BFF7A0579EA
:1001BC00C21206331206177BFF7A0579C202024D72
:1001CC00E50A642870157BFF7A0579C5120633128F
:1001DC0006177BFF7A0579C502024DE50A64257086
:1001EC00147BFF7A0579CA1206331206177BFF7A45
:1001FC000579CA804CE50A642770147BFF7A05796F
:10020C00CF1206331206177BFF7A0579CF8032E5C1
:10021C000A640D70147BFF7A0579D5120633120629
:10022C00177BFF7A0579D58018E50A641B70177B5C
:10023C00FF7A0579DB1206331206177BFF7A0579F4
:06024C00DBE4FF1205EFE8
:010252002289
:030000000203BF39
:0C03BF00787FE4F6D8FD75815902040631
:10000E00BB010689828A83E0225002E722BBFE02F0
:09001E00E32289828A83E4932223
:10002700BB010689828A83F0225002F722BBFE01B8
:02003700F322B2
:10003900E88FF0A4CC8BF0A42CFCE98EF0A42CFC66
:100049008AF0EDA42CFCEA8EF0A4CDA8F08BF0A4E4
:100059002DCC3825F0FDE98FF0A42CCD35F0FCEB43
:100069008EF0A4FEA9F0EB8FF0A4CFC5F02ECD3908
:0F007900FEE43CFCEAA42DCE35F0FDE43CFC2275
:1000880075F008758200EF2FFFEE33FECD33CDCC2F
:1000980033CCC58233C5829BED9AEC99E5829840B2
:1000A8000CF582EE9BFEED9AFDEC99FC0FD5F0D68F
:1000B800E4CEFBE4CDFAE4CCF9A88222B800C1B9B9
:1000C8000059BA002DEC8BF084CFCECDFCE5F0CBF7
:1000D800F97818EF2FFFEE33FEED33FDEC33FCEB30
:1000E80033FB10D703994004EB99FB0FD8E5E4F9EB
:1000F800FA227818EF2FFFEE33FEED33FDEC33FCD8
:10010800C933C910D7059BE99A4007EC9BFCE99ACB
:10011800F90FD8E0E4C9FAE4CCFB2275F010EF2F10
:10012800FFEE33FEED33FDCC33CCC833C810D70710
:100138009BEC9AE899400AED9BFDEC9AFCE899F84B
:0E0148000FD5F0DAE4CDFBE4CCFAE4C8F922DE
:10015600EB9FF5F0EA9E42F0E99D42F0E89C45F0FF
:010166002276
:10016700E8600FECC313FCED13FDEE13FEEF13FF76
:03017700D8F1229A
:10063300E4FFFE12000E600C0FEF70010E09E9706B
:05064300F20A80EF2225
:1003CB00020680E493A3F8E493A34003F68001F2C2
:1003DB0008DFF48029E493A3F85407240CC8C33333
:1003EB00C4540F4420C8834004F456800146F6DF02
:1003FB00E4800B010204081020408090053DE47E50
:10040B00019360BCA3FF543F30E509541FFEE493F6
:10041B00A360010ECF54C025E060A840B8E493A3BD
:10042B00FAE493A3F8E493A3C8C582C8CAC583CAE8
:10043B00F0A3C8C582C8CAC583CADFE9DEE780BEA0
:01058000007A
:00000001FF
