:0300000002000EED
:0C000E00787FE4F6D8FD758110020055E3
:10020800E7D7B777EBDBBB7BEDDDBD7DEEDEBE7EF2
:0A021800C0F9A4B0999282F880901A
:0A024800020AFFFF0109FF01080090
:100125007510FFD293C2941202221201868F10E538
:1001350010F46012E4FFEF90020893B510048F09E4
:1001450080040FBF10F0E5092401FBE433FA7C00BD
:100155007D0AAF03FE12009A74182DF58274023CD5
:10016500F583E493F50A7C007D0AAF03AE02120025
:100175009A74182FF58274023EF583E493F50B808B
:01018500A9D0
:10022200D2AF5389F0438901758CFC758A66D2A9D5
:03023200D28C2249
:1001E4007580FFE50814600F047018C292C291C2B2
:1001F400900508850A8022C292C291D290E4F50843
:03020400850B80E7
:0102070022D4
:03000B00020235B9
:10023500C0E0758CFC758A66E509F460031201E47B
:03024500D0E032D4
:06025200010CFF010F008A
:100186007D01850D0E850C0D050F75A0F0ED640142
:100196007040E5A054F064F0603875A0F0E5A05416
:1001A600F064F06005E5A054F0FE75A00FE5A054DC
:1001B6000F640F6007E5A0540F4EF50CE50F6403BE
:1001C600701BF50FE50CB50D14B50E11F4600EAFEE
:0D01D6000C22E5A054F0FCBCF003E4F50F92
:0101E30022F9
:10001A00020125E493A3F8E493A34003F68001F2D6
:10002A0008DFF48029E493A3F85407240CC8C333E7
:10003A00C4540F4420C8834004F456800146F6DFB6
:10004A00E4800B0102040810204080900248E47EFC
:10005A00019360BCA3FF543F30E509541FFEE493AB
:10006A00A360010ECF54C025E060A840B8E493A372
:10007A00FAE493A3F8E493A3C8C582C8CAC583CA9D
:10008A00F0A3C8C582C8CAC583CADFE9DEE780BE55
:0102580000A5
:10009A00C2D5EC30E709B2D5E4C39DFDE49CFCEE81
:1000AA0030E715B2D5E4C39FFFE49EFE1200D0C329
:1000BA00E49DFDE49CFC80031200D030D507C3E424
:0600CA009FFFE49EFE22F0
:1000D000BC000BBE0029EF8DF084FFADF022E4CC14
:1000E000F875F008EF2FFFEE33FEEC33FCEE9DECDD
:1000F000984005FCEE9DFE0FD5F0E9E4CEFD22ED23
:10010000F8F5F0EE8420D21CFEADF075F008EF2F6C
:10011000FFED33FD4007985006D5F0F222C398FD5D
:050120000FD5F0EA22FA
:00000001FF
